{
  "contractName": "Elecciones",
  "abi": [
    {
      "inputs": [
        {
          "internalType": "string",
          "name": "_nombre",
          "type": "string"
        },
        {
          "internalType": "string",
          "name": "_year",
          "type": "string"
        }
      ],
      "stateMutability": "nonpayable",
      "type": "constructor"
    },
    {
      "inputs": [],
      "name": "admin",
      "outputs": [
        {
          "internalType": "address",
          "name": "",
          "type": "address"
        }
      ],
      "stateMutability": "view",
      "type": "function",
      "constant": true
    },
    {
      "inputs": [
        {
          "internalType": "uint256",
          "name": "",
          "type": "uint256"
        }
      ],
      "name": "colegioElectoral",
      "outputs": [
        {
          "internalType": "uint256",
          "name": "id",
          "type": "uint256"
        },
        {
          "internalType": "string",
          "name": "nombre",
          "type": "string"
        },
        {
          "internalType": "address",
          "name": "adminColegio",
          "type": "address"
        },
        {
          "internalType": "string",
          "name": "direccion",
          "type": "string"
        },
        {
          "internalType": "uint256",
          "name": "numeroMesas",
          "type": "uint256"
        },
        {
          "internalType": "uint256",
          "name": "numeroVotantes",
          "type": "uint256"
        },
        {
          "internalType": "uint256",
          "name": "numeroVotos",
          "type": "uint256"
        }
      ],
      "stateMutability": "view",
      "type": "function",
      "constant": true
    },
    {
      "inputs": [
        {
          "internalType": "uint256",
          "name": "",
          "type": "uint256"
        }
      ],
      "name": "colegios",
      "outputs": [
        {
          "internalType": "uint256",
          "name": "id",
          "type": "uint256"
        },
        {
          "internalType": "string",
          "name": "nombre",
          "type": "string"
        },
        {
          "internalType": "address",
          "name": "adminColegio",
          "type": "address"
        },
        {
          "internalType": "string",
          "name": "direccion",
          "type": "string"
        },
        {
          "internalType": "uint256",
          "name": "numeroMesas",
          "type": "uint256"
        },
        {
          "internalType": "uint256",
          "name": "numeroVotantes",
          "type": "uint256"
        },
        {
          "internalType": "uint256",
          "name": "numeroVotos",
          "type": "uint256"
        }
      ],
      "stateMutability": "view",
      "type": "function",
      "constant": true
    },
    {
      "inputs": [
        {
          "internalType": "uint256",
          "name": "",
          "type": "uint256"
        }
      ],
      "name": "datosMesa",
      "outputs": [
        {
          "internalType": "uint256",
          "name": "idColegio",
          "type": "uint256"
        },
        {
          "internalType": "uint256",
          "name": "numeroMesa",
          "type": "uint256"
        },
        {
          "internalType": "address",
          "name": "presidente",
          "type": "address"
        },
        {
          "internalType": "uint256",
          "name": "numeroVotantes",
          "type": "uint256"
        },
        {
          "internalType": "uint256",
          "name": "numeroVotos",
          "type": "uint256"
        },
        {
          "internalType": "bool",
          "name": "actaFirmada",
          "type": "bool"
        }
      ],
      "stateMutability": "view",
      "type": "function",
      "constant": true
    },
    {
      "inputs": [
        {
          "internalType": "string",
          "name": "",
          "type": "string"
        }
      ],
      "name": "datosPartidos",
      "outputs": [
        {
          "internalType": "string",
          "name": "nombre",
          "type": "string"
        },
        {
          "internalType": "uint256",
          "name": "votos",
          "type": "uint256"
        }
      ],
      "stateMutability": "view",
      "type": "function",
      "constant": true
    },
    {
      "inputs": [
        {
          "internalType": "address",
          "name": "",
          "type": "address"
        }
      ],
      "name": "datosPresidente",
      "outputs": [
        {
          "internalType": "string",
          "name": "nombre",
          "type": "string"
        },
        {
          "internalType": "address",
          "name": "direccion",
          "type": "address"
        },
        {
          "internalType": "uint256",
          "name": "numeroMesa",
          "type": "uint256"
        },
        {
          "internalType": "uint256",
          "name": "idColegio",
          "type": "uint256"
        }
      ],
      "stateMutability": "view",
      "type": "function",
      "constant": true
    },
    {
      "inputs": [
        {
          "internalType": "address",
          "name": "",
          "type": "address"
        }
      ],
      "name": "datosVotante",
      "outputs": [
        {
          "internalType": "address",
          "name": "direccion",
          "type": "address"
        },
        {
          "internalType": "uint256",
          "name": "idColegio",
          "type": "uint256"
        },
        {
          "internalType": "uint256",
          "name": "numeroMesa",
          "type": "uint256"
        },
        {
          "internalType": "string",
          "name": "nombre",
          "type": "string"
        },
        {
          "internalType": "string",
          "name": "calle",
          "type": "string"
        },
        {
          "internalType": "string",
          "name": "dni",
          "type": "string"
        },
        {
          "internalType": "bool",
          "name": "votado",
          "type": "bool"
        }
      ],
      "stateMutability": "view",
      "type": "function",
      "constant": true
    },
    {
      "inputs": [
        {
          "internalType": "uint256",
          "name": "",
          "type": "uint256"
        },
        {
          "internalType": "uint256",
          "name": "",
          "type": "uint256"
        }
      ],
      "name": "mesaColegio",
      "outputs": [
        {
          "internalType": "uint256",
          "name": "",
          "type": "uint256"
        }
      ],
      "stateMutability": "view",
      "type": "function",
      "constant": true
    },
    {
      "inputs": [
        {
          "internalType": "uint256",
          "name": "",
          "type": "uint256"
        }
      ],
      "name": "mesas",
      "outputs": [
        {
          "internalType": "uint256",
          "name": "idColegio",
          "type": "uint256"
        },
        {
          "internalType": "uint256",
          "name": "numeroMesa",
          "type": "uint256"
        },
        {
          "internalType": "address",
          "name": "presidente",
          "type": "address"
        },
        {
          "internalType": "uint256",
          "name": "numeroVotantes",
          "type": "uint256"
        },
        {
          "internalType": "uint256",
          "name": "numeroVotos",
          "type": "uint256"
        },
        {
          "internalType": "bool",
          "name": "actaFirmada",
          "type": "bool"
        }
      ],
      "stateMutability": "view",
      "type": "function",
      "constant": true
    },
    {
      "inputs": [],
      "name": "nombre",
      "outputs": [
        {
          "internalType": "string",
          "name": "",
          "type": "string"
        }
      ],
      "stateMutability": "view",
      "type": "function",
      "constant": true
    },
    {
      "inputs": [
        {
          "internalType": "uint256",
          "name": "",
          "type": "uint256"
        }
      ],
      "name": "partidos",
      "outputs": [
        {
          "internalType": "string",
          "name": "",
          "type": "string"
        }
      ],
      "stateMutability": "view",
      "type": "function",
      "constant": true
    },
    {
      "inputs": [
        {
          "internalType": "uint256",
          "name": "",
          "type": "uint256"
        }
      ],
      "name": "presidentes",
      "outputs": [
        {
          "internalType": "address",
          "name": "",
          "type": "address"
        }
      ],
      "stateMutability": "view",
      "type": "function",
      "constant": true
    },
    {
      "inputs": [
        {
          "internalType": "uint256",
          "name": "",
          "type": "uint256"
        },
        {
          "internalType": "uint256",
          "name": "",
          "type": "uint256"
        }
      ],
      "name": "votanteColegio",
      "outputs": [
        {
          "internalType": "address",
          "name": "",
          "type": "address"
        }
      ],
      "stateMutability": "view",
      "type": "function",
      "constant": true
    },
    {
      "inputs": [
        {
          "internalType": "uint256",
          "name": "",
          "type": "uint256"
        },
        {
          "internalType": "uint256",
          "name": "",
          "type": "uint256"
        }
      ],
      "name": "votanteMesa",
      "outputs": [
        {
          "internalType": "address",
          "name": "",
          "type": "address"
        }
      ],
      "stateMutability": "view",
      "type": "function",
      "constant": true
    },
    {
      "inputs": [
        {
          "internalType": "uint256",
          "name": "",
          "type": "uint256"
        }
      ],
      "name": "votantes",
      "outputs": [
        {
          "internalType": "address",
          "name": "",
          "type": "address"
        }
      ],
      "stateMutability": "view",
      "type": "function",
      "constant": true
    },
    {
      "inputs": [],
      "name": "year",
      "outputs": [
        {
          "internalType": "string",
          "name": "",
          "type": "string"
        }
      ],
      "stateMutability": "view",
      "type": "function",
      "constant": true
    },
    {
      "inputs": [
        {
          "internalType": "string",
          "name": "_nombrePartido",
          "type": "string"
        }
      ],
      "name": "creaPartido",
      "outputs": [
        {
          "internalType": "uint256",
          "name": "",
          "type": "uint256"
        }
      ],
      "stateMutability": "nonpayable",
      "type": "function"
    },
    {
      "inputs": [],
      "name": "partidosLength",
      "outputs": [
        {
          "internalType": "uint256",
          "name": "",
          "type": "uint256"
        }
      ],
      "stateMutability": "view",
      "type": "function",
      "constant": true
    },
    {
      "inputs": [
        {
          "internalType": "address",
          "name": "_direccion",
          "type": "address"
        },
        {
          "internalType": "uint256",
          "name": "_numeroMesa",
          "type": "uint256"
        },
        {
          "internalType": "string",
          "name": "_nombre",
          "type": "string"
        },
        {
          "internalType": "string",
          "name": "_calle",
          "type": "string"
        },
        {
          "internalType": "string",
          "name": "_dni",
          "type": "string"
        }
      ],
      "name": "creaVotante",
      "outputs": [],
      "stateMutability": "nonpayable",
      "type": "function"
    },
    {
      "inputs": [],
      "name": "votantesLength",
      "outputs": [
        {
          "internalType": "uint256",
          "name": "",
          "type": "uint256"
        }
      ],
      "stateMutability": "view",
      "type": "function",
      "constant": true
    },
    {
      "inputs": [
        {
          "internalType": "uint256",
          "name": "_numeroMesa",
          "type": "uint256"
        }
      ],
      "name": "votanteMesaLength",
      "outputs": [
        {
          "internalType": "uint256",
          "name": "",
          "type": "uint256"
        }
      ],
      "stateMutability": "view",
      "type": "function",
      "constant": true
    },
    {
      "inputs": [
        {
          "internalType": "uint256",
          "name": "_idColegio",
          "type": "uint256"
        }
      ],
      "name": "votanteColegioLength",
      "outputs": [
        {
          "internalType": "uint256",
          "name": "",
          "type": "uint256"
        }
      ],
      "stateMutability": "view",
      "type": "function",
      "constant": true
    },
    {
      "inputs": [
        {
          "internalType": "address",
          "name": "_direccionVotante",
          "type": "address"
        },
        {
          "internalType": "string",
          "name": "_partido",
          "type": "string"
        }
      ],
      "name": "votaPartido",
      "outputs": [],
      "stateMutability": "nonpayable",
      "type": "function"
    },
    {
      "inputs": [
        {
          "internalType": "uint256",
          "name": "_idColegio",
          "type": "uint256"
        }
      ],
      "name": "creaMesa",
      "outputs": [],
      "stateMutability": "nonpayable",
      "type": "function"
    },
    {
      "inputs": [],
      "name": "mesasLength",
      "outputs": [
        {
          "internalType": "uint256",
          "name": "",
          "type": "uint256"
        }
      ],
      "stateMutability": "view",
      "type": "function",
      "constant": true
    },
    {
      "inputs": [
        {
          "internalType": "uint256",
          "name": "id",
          "type": "uint256"
        },
        {
          "internalType": "string",
          "name": "_nombre",
          "type": "string"
        },
        {
          "internalType": "string",
          "name": "_direccion",
          "type": "string"
        }
      ],
      "name": "creaColegio",
      "outputs": [],
      "stateMutability": "nonpayable",
      "type": "function"
    },
    {
      "inputs": [],
      "name": "colegiosLength",
      "outputs": [
        {
          "internalType": "uint256",
          "name": "",
          "type": "uint256"
        }
      ],
      "stateMutability": "view",
      "type": "function",
      "constant": true
    },
    {
      "inputs": [
        {
          "internalType": "uint256",
          "name": "_idColegio",
          "type": "uint256"
        }
      ],
      "name": "mesaColegioLength",
      "outputs": [
        {
          "internalType": "uint256",
          "name": "",
          "type": "uint256"
        }
      ],
      "stateMutability": "view",
      "type": "function",
      "constant": true
    },
    {
      "inputs": [
        {
          "internalType": "string",
          "name": "_nombre",
          "type": "string"
        },
        {
          "internalType": "address",
          "name": "_direccionPresidente",
          "type": "address"
        },
        {
          "internalType": "uint256",
          "name": "_numeroMesa",
          "type": "uint256"
        }
      ],
      "name": "asignaPresidenteMesa",
      "outputs": [],
      "stateMutability": "nonpayable",
      "type": "function"
    },
    {
      "inputs": [
        {
          "internalType": "address",
          "name": "_direccion",
          "type": "address"
        }
      ],
      "name": "presidenteExiste",
      "outputs": [
        {
          "internalType": "bool",
          "name": "",
          "type": "bool"
        }
      ],
      "stateMutability": "view",
      "type": "function",
      "constant": true
    },
    {
      "inputs": [],
      "name": "quienSoy",
      "outputs": [
        {
          "internalType": "string",
          "name": "_nombre",
          "type": "string"
        },
        {
          "internalType": "address",
          "name": "_direccion",
          "type": "address"
        },
        {
          "internalType": "uint256",
          "name": "_idColegio",
          "type": "uint256"
        },
        {
          "internalType": "uint256",
          "name": "_numeroMesa",
          "type": "uint256"
        },
        {
          "internalType": "string",
          "name": "_rol",
          "type": "string"
        }
      ],
      "stateMutability": "view",
      "type": "function",
      "constant": true
    }
  ],
  "bytecode": "0x60806040523480156200001157600080fd5b5060405162004c8238038062004c82833981810160405260408110156200003757600080fd5b81019080805160405193929190846401000000008211156200005857600080fd5b838201915060208201858111156200006f57600080fd5b82518660018202830111640100000000821117156200008d57600080fd5b8083526020830192505050908051906020019080838360005b83811015620000c3578082015181840152602081019050620000a6565b50505050905090810190601f168015620000f15780820380516001836020036101000a031916815260200191505b50604052602001805160405193929190846401000000008211156200011557600080fd5b838201915060208201858111156200012c57600080fd5b82518660018202830111640100000000821117156200014a57600080fd5b8083526020830192505050908051906020019080838360005b838110156200018057808201518184015260208101905062000163565b50505050905090810190601f168015620001ae5780820380516001836020036101000a031916815260200191505b50604052505050606082905060008151141562000217576040517f08c379a000000000000000000000000000000000000000000000000000000000815260040180806020018281038252603281526020018062004c506032913960400191505060405180910390fd5b606082905060008151141562000279576040517f08c379a000000000000000000000000000000000000000000000000000000000815260040180806020018281038252603081526020018062004c206030913960400191505060405180910390fd5b336000806101000a81548173ffffffffffffffffffffffffffffffffffffffff021916908373ffffffffffffffffffffffffffffffffffffffff1602179055508360019080519060200190620002d1929190620002f5565b508260029080519060200190620002ea929190620002f5565b5050505050620003ab565b828054600181600116156101000203166002900490600052602060002090601f0160209004810192826200032d576000855562000379565b82601f106200034857805160ff191683800117855562000379565b8280016001018555821562000379579182015b82811115620003785782518255916020019190600101906200035b565b5b5090506200038891906200038c565b5090565b5b80821115620003a75760008160009055506001016200038d565b5090565b61486580620003bb6000396000f3fe608060405234801561001057600080fd5b50600436106101e55760003560e01c806352dea7031161010f578063bc7b35b2116100a2578063ef69e4b911610071578063ef69e4b9146112d1578063f32697161461131d578063f851a440146113a0578063fd9dc95c146113d4576101e5565b8063bc7b35b214610e6a578063c5c204e314610eed578063d8f0d1c214611039578063e0e2e8f214611108576101e5565b80638b969585116100de5780638b96958514610cc85780639ef5117e14610d0a5780639f611b0014610df2578063aacca74e14610e4c576101e5565b806352dea70314610aad5780635376688314610aef5780635b94ea1014610c0957806377c0d41a14610c86576101e5565b80632e03f8381161018757806338bfab431161015657806338bfab431461083457806340deb0701461088c57806347d5c1f41461093357806348a4218a14610a8f576101e5565b80632e03f8381461055a57806333c87b03146105b25780633463574f14610697578063369061d8146107d2576101e5565b80630e2386f9116101c35780630e2386f91461043f5780631945d2551461045d5780631c760e0e146104bf5780632519accb1461053c576101e5565b8063027c8487146101ea5780630c57c4fa146102185780630d38bdfd146102f3575b600080fd5b6102166004803603602081101561020057600080fd5b81019080803590602001909291905050506115e7565b005b6102f16004803603604081101561022e57600080fd5b81019080803573ffffffffffffffffffffffffffffffffffffffff1690602001909291908035906020019064010000000081111561026b57600080fd5b82018360208201111561027d57600080fd5b8035906020019184600183028401116401000000008311171561029f57600080fd5b91908080601f016020809104026020016040519081016040528093929190818152602001838380828437600081840152601f19601f8201169050808301925050505050505091929192905050506119b3565b005b61031f6004803603602081101561030957600080fd5b8101908080359060200190929190505050611e8f565b60405180888152602001806020018773ffffffffffffffffffffffffffffffffffffffff16815260200180602001868152602001858152602001848152602001838103835289818151815260200191508051906020019080838360005b8381101561039757808201518184015260208101905061037c565b50505050905090810190601f1680156103c45780820380516001836020036101000a031916815260200191505b50838103825287818151815260200191508051906020019080838360005b838110156103fd5780820151818401526020810190506103e2565b50505050905090810190601f16801561042a5780820380516001836020036101000a031916815260200191505b50995050505050505050505060405180910390f35b610447612031565b6040518082815260200191505060405180910390f35b6104936004803603604081101561047357600080fd5b81019080803590602001909291908035906020019092919050505061203e565b604051808273ffffffffffffffffffffffffffffffffffffffff16815260200191505060405180910390f35b6104eb600480360360208110156104d557600080fd5b810190808035906020019092919050505061208c565b604051808781526020018681526020018573ffffffffffffffffffffffffffffffffffffffff1681526020018481526020018381526020018215158152602001965050505050505060405180910390f35b6105446120f5565b6040518082815260200191505060405180910390f35b6105866004803603602081101561057057600080fd5b8101908080359060200190929190505050612102565b604051808273ffffffffffffffffffffffffffffffffffffffff16815260200191505060405180910390f35b610695600480360360608110156105c857600080fd5b81019080803590602001906401000000008111156105e557600080fd5b8201836020820111156105f757600080fd5b8035906020019184600183028401116401000000008311171561061957600080fd5b91908080601f016020809104026020016040519081016040528093929190818152602001838380828437600081840152601f19601f820116905080830192505050505050509192919290803573ffffffffffffffffffffffffffffffffffffffff16906020019092919080359060200190929190505050612141565b005b610750600480360360208110156106ad57600080fd5b81019080803590602001906401000000008111156106ca57600080fd5b8201836020820111156106dc57600080fd5b803590602001918460018302840111640100000000831117156106fe57600080fd5b91908080601f016020809104026020016040519081016040528093929190818152602001838380828437600081840152601f19601f820116905080830192505050505050509192919290505050612431565b6040518080602001838152602001828103825284818151815260200191508051906020019080838360005b8381101561079657808201518184015260208101905061077b565b50505050905090810190601f1680156107c35780820380516001836020036101000a031916815260200191505b50935050505060405180910390f35b610808600480360360408110156107e857600080fd5b810190808035906020019092919080359060200190929190505050612503565b604051808273ffffffffffffffffffffffffffffffffffffffff16815260200191505060405180910390f35b6108606004803603602081101561084a57600080fd5b8101908080359060200190929190505050612551565b604051808273ffffffffffffffffffffffffffffffffffffffff16815260200191505060405180910390f35b6108b8600480360360208110156108a257600080fd5b8101908080359060200190929190505050612590565b6040518080602001828103825283818151815260200191508051906020019080838360005b838110156108f85780820151818401526020810190506108dd565b50505050905090810190601f1680156109255780820380516001836020036101000a031916815260200191505b509250505060405180910390f35b610a8d6004803603606081101561094957600080fd5b81019080803590602001909291908035906020019064010000000081111561097057600080fd5b82018360208201111561098257600080fd5b803590602001918460018302840111640100000000831117156109a457600080fd5b91908080601f016020809104026020016040519081016040528093929190818152602001838380828437600081840152601f19601f82011690508083019250505050505050919291929080359060200190640100000000811115610a0757600080fd5b820183602082011115610a1957600080fd5b80359060200191846001830284011164010000000083111715610a3b57600080fd5b91908080601f016020809104026020016040519081016040528093929190818152602001838380828437600081840152601f19601f82011690508083019250505050505050919291929050505061264c565b005b610a97612aaa565b6040518082815260200191505060405180910390f35b610ad960048036036020811015610ac357600080fd5b8101908080359060200190929190505050612ab7565b6040518082815260200191505060405180910390f35b610af7612ad7565b60405180806020018673ffffffffffffffffffffffffffffffffffffffff16815260200185815260200184815260200180602001838103835288818151815260200191508051906020019080838360005b83811015610b63578082015181840152602081019050610b48565b50505050905090810190601f168015610b905780820380516001836020036101000a031916815260200191505b50838103825284818151815260200191508051906020019080838360005b83811015610bc9578082015181840152602081019050610bae565b50505050905090810190601f168015610bf65780820380516001836020036101000a031916815260200191505b5097505050505050505060405180910390f35b610c3560048036036020811015610c1f57600080fd5b8101908080359060200190929190505050613150565b604051808781526020018681526020018573ffffffffffffffffffffffffffffffffffffffff1681526020018481526020018381526020018215158152602001965050505050505060405180910390f35b610cb260048036036020811015610c9c57600080fd5b81019080803590602001909291905050506131c9565b6040518082815260200191505060405180910390f35b610cf460048036036020811015610cde57600080fd5b81019080803590602001909291905050506131e9565b6040518082815260200191505060405180910390f35b610d4c60048036036020811015610d2057600080fd5b81019080803573ffffffffffffffffffffffffffffffffffffffff169060200190929190505050613209565b60405180806020018573ffffffffffffffffffffffffffffffffffffffff168152602001848152602001838152602001828103825286818151815260200191508051906020019080838360005b83811015610db4578082015181840152602081019050610d99565b50505050905090810190601f168015610de15780820380516001836020036101000a031916815260200191505b509550505050505060405180910390f35b610e3460048036036020811015610e0857600080fd5b81019080803573ffffffffffffffffffffffffffffffffffffffff1690602001909291905050506132f1565b60405180821515815260200191505060405180910390f35b610e546133e6565b6040518082815260200191505060405180910390f35b610e726133f3565b6040518080602001828103825283818151815260200191508051906020019080838360005b83811015610eb2578082015181840152602081019050610e97565b50505050905090810190601f168015610edf5780820380516001836020036101000a031916815260200191505b509250505060405180910390f35b610f1960048036036020811015610f0357600080fd5b8101908080359060200190929190505050613491565b60405180888152602001806020018773ffffffffffffffffffffffffffffffffffffffff16815260200180602001868152602001858152602001848152602001838103835289818151815260200191508051906020019080838360005b83811015610f91578082015181840152602081019050610f76565b50505050905090810190601f168015610fbe5780820380516001836020036101000a031916815260200191505b50838103825287818151815260200191508051906020019080838360005b83811015610ff7578082015181840152602081019050610fdc565b50505050905090810190601f1680156110245780820380516001836020036101000a031916815260200191505b50995050505050505050505060405180910390f35b6110f26004803603602081101561104f57600080fd5b810190808035906020019064010000000081111561106c57600080fd5b82018360208201111561107e57600080fd5b803590602001918460018302840111640100000000831117156110a057600080fd5b91908080601f016020809104026020016040519081016040528093929190818152602001838380828437600081840152601f19601f820116905080830192505050505050509192919290505050613623565b6040518082815260200191505060405180910390f35b61114a6004803603602081101561111e57600080fd5b81019080803573ffffffffffffffffffffffffffffffffffffffff1690602001909291905050506138cc565b604051808873ffffffffffffffffffffffffffffffffffffffff1681526020018781526020018681526020018060200180602001806020018515158152602001848103845288818151815260200191508051906020019080838360005b838110156111c25780820151818401526020810190506111a7565b50505050905090810190601f1680156111ef5780820380516001836020036101000a031916815260200191505b50848103835287818151815260200191508051906020019080838360005b8381101561122857808201518184015260208101905061120d565b50505050905090810190601f1680156112555780820380516001836020036101000a031916815260200191505b50848103825286818151815260200191508051906020019080838360005b8381101561128e578082015181840152602081019050611273565b50505050905090810190601f1680156112bb5780820380516001836020036101000a031916815260200191505b509a505050505050505050505060405180910390f35b611307600480360360408110156112e757600080fd5b810190808035906020019092919080359060200190929190505050613b03565b6040518082815260200191505060405180910390f35b611325613b34565b6040518080602001828103825283818151815260200191508051906020019080838360005b8381101561136557808201518184015260208101905061134a565b50505050905090810190601f1680156113925780820380516001836020036101000a031916815260200191505b509250505060405180910390f35b6113a8613bd2565b604051808273ffffffffffffffffffffffffffffffffffffffff16815260200191505060405180910390f35b6115e5600480360360a08110156113ea57600080fd5b81019080803573ffffffffffffffffffffffffffffffffffffffff169060200190929190803590602001909291908035906020019064010000000081111561143157600080fd5b82018360208201111561144357600080fd5b8035906020019184600183028401116401000000008311171561146557600080fd5b91908080601f016020809104026020016040519081016040528093929190818152602001838380828437600081840152601f19601f820116905080830192505050505050509192919290803590602001906401000000008111156114c857600080fd5b8201836020820111156114da57600080fd5b803590602001918460018302840111640100000000831117156114fc57600080fd5b91908080601f016020809104026020016040519081016040528093929190818152602001838380828437600081840152601f19601f8201169050808301925050505050505091929192908035906020019064010000000081111561155f57600080fd5b82018360208201111561157157600080fd5b8035906020019184600183028401116401000000008311171561159357600080fd5b91908080601f016020809104026020016040519081016040528093929190818152602001838380828437600081840152601f19601f820116905080830192505050505050509192919290505050613bf6565b005b60008054906101000a900473ffffffffffffffffffffffffffffffffffffffff1673ffffffffffffffffffffffffffffffffffffffff163373ffffffffffffffffffffffffffffffffffffffff16146116a8576040517f08c379a000000000000000000000000000000000000000000000000000000000815260040180806020018281038252601f8152602001807f536f6c6f207065726d697469646f20616c2061646d696e6973747261646f720081525060200191505060405180910390fd5b60008060008060008214611707576040517f08c379a000000000000000000000000000000000000000000000000000000000815260040180806020018281038252602781526020018061476a6027913960400191505060405180910390fd5b60008314611760576040517f08c379a000000000000000000000000000000000000000000000000000000000815260040180806020018281038252602a815260200180614806602a913960400191505060405180910390fd5b60006006805490509050611772614570565b6040518060c001604052808881526020018381526020018773ffffffffffffffffffffffffffffffffffffffff168152602001868152602001858152602001841515815250905080600a6000848152602001908152602001600020600082015181600001556020820151816001015560408201518160020160006101000a81548173ffffffffffffffffffffffffffffffffffffffff021916908373ffffffffffffffffffffffffffffffffffffffff160217905550606082015181600301556080820151816004015560a08201518160050160006101000a81548160ff0219169083151502179055509050506006819080600181540180825580915050600190039060005260206000209060060201600090919091909150600082015181600001556020820151816001015560408201518160020160006101000a81548173ffffffffffffffffffffffffffffffffffffffff021916908373ffffffffffffffffffffffffffffffffffffffff160217905550606082015181600301556080820151816004015560a08201518160050160006101000a81548160ff0219169083151502179055505050600c60008881526020019081526020016000208290806001815401808255809150506001900390600052602060002001600090919091909150556007878154811061196357fe5b906000526020600020906007020160040160008154809291906001019190505550600b60008881526020019081526020016000206004016000815480929190600101919050555050505050505050565b600115156119c082614293565b151514611a35576040517f08c379a00000000000000000000000000000000000000000000000000000000081526004018080602001828103825260148152602001807f456c207061727469646f206e6f2065786973746500000000000000000000000081525060200191505060405180910390fd5b60011515611a42836143b2565b151514611ab7576040517f08c379a00000000000000000000000000000000000000000000000000000000081526004018080602001828103825260148152602001807f456c20766f74616e7465206e6f2065786973746500000000000000000000000081525060200191505060405180910390fd5b60001515600860008473ffffffffffffffffffffffffffffffffffffffff1673ffffffffffffffffffffffffffffffffffffffff16815260200190815260200160002060060160009054906101000a900460ff16151514611b80576040517f08c379a00000000000000000000000000000000000000000000000000000000081526004018080602001828103825260178152602001807f456c20766f74616e746520796120686120766f7461646f00000000000000000081525060200191505060405180910390fd5b3373ffffffffffffffffffffffffffffffffffffffff168273ffffffffffffffffffffffffffffffffffffffff1614611c04576040517f08c379a00000000000000000000000000000000000000000000000000000000081526004018080602001828103825260268152602001806147e06026913960400191505060405180910390fd5b6009816040518082805190602001908083835b60208310611c3a5780518252602082019150602081019050602083039250611c17565b6001836020036101000a0380198251168184511680821785525050505050509050019150509081526020016040518091039020600101600081548092919060010191905055506001600860008473ffffffffffffffffffffffffffffffffffffffff1673ffffffffffffffffffffffffffffffffffffffff16815260200190815260200160002060060160006101000a81548160ff0219169083151502179055506006600860008473ffffffffffffffffffffffffffffffffffffffff1673ffffffffffffffffffffffffffffffffffffffff1681526020019081526020016000206002015481548110611d2a57fe5b906000526020600020906006020160040160008154809291906001019190505550600a6000600860008573ffffffffffffffffffffffffffffffffffffffff1673ffffffffffffffffffffffffffffffffffffffff168152602001908152602001600020600201548152602001908152602001600020600401600081548092919060010191905055506007600860008473ffffffffffffffffffffffffffffffffffffffff1673ffffffffffffffffffffffffffffffffffffffff1681526020019081526020016000206001015481548110611e0257fe5b906000526020600020906007020160060160008154809291906001019190505550600b6000600860008573ffffffffffffffffffffffffffffffffffffffff1673ffffffffffffffffffffffffffffffffffffffff168152602001908152602001600020600101548152602001908152602001600020600601600081548092919060010191905055505050565b60078181548110611e9f57600080fd5b9060005260206000209060070201600091509050806000015490806001018054600181600116156101000203166002900480601f016020809104026020016040519081016040528092919081815260200182805460018160011615610100020316600290048015611f515780601f10611f2657610100808354040283529160200191611f51565b820191906000526020600020905b815481529060010190602001808311611f3457829003601f168201915b5050505050908060020160009054906101000a900473ffffffffffffffffffffffffffffffffffffffff1690806003018054600181600116156101000203166002900480601f0160208091040260200160405190810160405280929190818152602001828054600181600116156101000203166002900480156120155780601f10611fea57610100808354040283529160200191612015565b820191906000526020600020905b815481529060010190602001808311611ff857829003601f168201915b5050505050908060040154908060050154908060060154905087565b6000600380549050905090565b600e602052816000526040600020818154811061205a57600080fd5b906000526020600020016000915091509054906101000a900473ffffffffffffffffffffffffffffffffffffffff1681565b600a6020528060005260406000206000915090508060000154908060010154908060020160009054906101000a900473ffffffffffffffffffffffffffffffffffffffff16908060030154908060040154908060050160009054906101000a900460ff16905086565b6000600680549050905090565b6003818154811061211257600080fd5b906000526020600020016000915054906101000a900473ffffffffffffffffffffffffffffffffffffffff1681565b60008054906101000a900473ffffffffffffffffffffffffffffffffffffffff1673ffffffffffffffffffffffffffffffffffffffff163373ffffffffffffffffffffffffffffffffffffffff1614612202576040517f08c379a000000000000000000000000000000000000000000000000000000000815260040180806020018281038252601f8152602001807f536f6c6f207065726d697469646f20616c2061646d696e6973747261646f720081525060200191505060405180910390fd5b81600a600083815260200190815260200160002060020160006101000a81548173ffffffffffffffffffffffffffffffffffffffff021916908373ffffffffffffffffffffffffffffffffffffffff160217905550816006828154811061226557fe5b906000526020600020906006020160020160006101000a81548173ffffffffffffffffffffffffffffffffffffffff021916908373ffffffffffffffffffffffffffffffffffffffff1602179055506005829080600181540180825580915050600190039060005260206000200160009091909190916101000a81548173ffffffffffffffffffffffffffffffffffffffff021916908373ffffffffffffffffffffffffffffffffffffffff16021790555060006006828154811061232657fe5b906000526020600020906006020160000154905060405180608001604052808581526020018473ffffffffffffffffffffffffffffffffffffffff16815260200183815260200182815250600f60008573ffffffffffffffffffffffffffffffffffffffff1673ffffffffffffffffffffffffffffffffffffffff16815260200190815260200160002060008201518160000190805190602001906123cc9291906145be565b5060208201518160010160006101000a81548173ffffffffffffffffffffffffffffffffffffffff021916908373ffffffffffffffffffffffffffffffffffffffff160217905550604082015181600201556060820151816003015590505050505050565b600981805160208101820180518482526020830160208501208183528095505050505050600091509050806000018054600181600116156101000203166002900480601f0160208091040260200160405190810160405280929190818152602001828054600181600116156101000203166002900480156124f35780601f106124c8576101008083540402835291602001916124f3565b820191906000526020600020905b8154815290600101906020018083116124d657829003601f168201915b5050505050908060010154905082565b600d602052816000526040600020818154811061251f57600080fd5b906000526020600020016000915091509054906101000a900473ffffffffffffffffffffffffffffffffffffffff1681565b6005818154811061256157600080fd5b906000526020600020016000915054906101000a900473ffffffffffffffffffffffffffffffffffffffff1681565b600481815481106125a057600080fd5b906000526020600020016000915090508054600181600116156101000203166002900480601f0160208091040260200160405190810160405280929190818152602001828054600181600116156101000203166002900480156126445780601f1061261957610100808354040283529160200191612644565b820191906000526020600020905b81548152906001019060200180831161262757829003601f168201915b505050505081565b60008054906101000a900473ffffffffffffffffffffffffffffffffffffffff1673ffffffffffffffffffffffffffffffffffffffff163373ffffffffffffffffffffffffffffffffffffffff161461270d576040517f08c379a000000000000000000000000000000000000000000000000000000000815260040180806020018281038252601f8152602001807f536f6c6f207065726d697469646f20616c2061646d696e6973747261646f720081525060200191505060405180910390fd5b60008060009054906101000a900473ffffffffffffffffffffffffffffffffffffffff169050600080600060608690506000815114156127b5576040517f08c379a000000000000000000000000000000000000000000000000000000000815260040180806020018281038252601c8152602001807f456c206e6f6d627265206e6f2070756564652073657220766163696f0000000081525060200191505060405180910390fd5b6060869050600081511415612832576040517f08c379a000000000000000000000000000000000000000000000000000000000815260040180806020018281038252601c8152602001807f456c206e6f6d627265206e6f2070756564652073657220766163696f0000000081525060200191505060405180910390fd5b6000151561283f8a6144a7565b1515146128b4576040517f08c379a00000000000000000000000000000000000000000000000000000000081526004018080602001828103825260148152602001807f456c20636f6c6567696f2079612065786973746500000000000000000000000081525060200191505060405180910390fd5b6128bc61464c565b6040518060e001604052808b81526020018a81526020018873ffffffffffffffffffffffffffffffffffffffff16815260200189815260200187815260200186815260200185815250905080600b60008c81526020019081526020016000206000820151816000015560208201518160010190805190602001906129419291906145be565b5060408201518160020160006101000a81548173ffffffffffffffffffffffffffffffffffffffff021916908373ffffffffffffffffffffffffffffffffffffffff16021790555060608201518160030190805190602001906129a59291906145be565b506080820151816004015560a0820151816005015560c082015181600601559050506007819080600181540180825580915050600190039060005260206000209060070201600090919091909150600082015181600001556020820151816001019080519060200190612a199291906145be565b5060408201518160020160006101000a81548173ffffffffffffffffffffffffffffffffffffffff021916908373ffffffffffffffffffffffffffffffffffffffff1602179055506060820151816003019080519060200190612a7d9291906145be565b506080820151816004015560a0820151816005015560c08201518160060155505050505050505050505050565b6000600780549050905090565b6000600d6000838152602001908152602001600020805490509050919050565b606060008060006060612ae861469f565b600860003373ffffffffffffffffffffffffffffffffffffffff1673ffffffffffffffffffffffffffffffffffffffff1681526020019081526020016000206040518060e00160405290816000820160009054906101000a900473ffffffffffffffffffffffffffffffffffffffff1673ffffffffffffffffffffffffffffffffffffffff1673ffffffffffffffffffffffffffffffffffffffff1681526020016001820154815260200160028201548152602001600382018054600181600116156101000203166002900480601f016020809104026020016040519081016040528092919081815260200182805460018160011615610100020316600290048015612c355780601f10612c0a57610100808354040283529160200191612c35565b820191906000526020600020905b815481529060010190602001808311612c1857829003601f168201915b50505050508152602001600482018054600181600116156101000203166002900480601f016020809104026020016040519081016040528092919081815260200182805460018160011615610100020316600290048015612cd75780601f10612cac57610100808354040283529160200191612cd7565b820191906000526020600020905b815481529060010190602001808311612cba57829003601f168201915b50505050508152602001600582018054600181600116156101000203166002900480601f016020809104026020016040519081016040528092919081815260200182805460018160011615610100020316600290048015612d795780601f10612d4e57610100808354040283529160200191612d79565b820191906000526020600020905b815481529060010190602001808311612d5c57829003601f168201915b505050505081526020016006820160009054906101000a900460ff1615151515815250509050612da76146f4565b600f60003373ffffffffffffffffffffffffffffffffffffffff1673ffffffffffffffffffffffffffffffffffffffff168152602001908152602001600020604051806080016040529081600082018054600181600116156101000203166002900480601f016020809104026020016040519081016040528092919081815260200182805460018160011615610100020316600290048015612e8a5780601f10612e5f57610100808354040283529160200191612e8a565b820191906000526020600020905b815481529060010190602001808311612e6d57829003601f168201915b505050505081526020016001820160009054906101000a900473ffffffffffffffffffffffffffffffffffffffff1673ffffffffffffffffffffffffffffffffffffffff1673ffffffffffffffffffffffffffffffffffffffff16815260200160028201548152602001600382015481525050905060011515612f0c336143b2565b15151415612f6d57816060015196508160000151955081602001519450816040015193506040518060400160405280600781526020017f566f74616e7465000000000000000000000000000000000000000000000000008152509250613147565b612f76336132f1565b15612fd457806000015196508060200151955080606001519450806040015193506040518060400160405280600a81526020017f507265736964656e7465000000000000000000000000000000000000000000008152509250613146565b60008054906101000a900473ffffffffffffffffffffffffffffffffffffffff1673ffffffffffffffffffffffffffffffffffffffff163373ffffffffffffffffffffffffffffffffffffffff1614156130c8576040518060400160405280600581526020017f61646d696e000000000000000000000000000000000000000000000000000000815250965060008054906101000a900473ffffffffffffffffffffffffffffffffffffffff16955060009450600093506040518060400160405280600d81526020017f41646d696e6973747261646f72000000000000000000000000000000000000008152509250613145565b6040518060400160405280601581526020017f5573756172696f206e6f207265676973747261646f000000000000000000000081525096506000955060009450600093506040518060400160405280601581526020017f5573756172696f206e6f207265676973747261646f000000000000000000000081525092505b5b5b50509091929394565b6006818154811061316057600080fd5b90600052602060002090600602016000915090508060000154908060010154908060020160009054906101000a900473ffffffffffffffffffffffffffffffffffffffff16908060030154908060040154908060050160009054906101000a900460ff16905086565b6000600d6000838152602001908152602001600020805490509050919050565b6000600c6000838152602001908152602001600020805490509050919050565b600f602052806000526040600020600091509050806000018054600181600116156101000203166002900480601f0160208091040260200160405190810160405280929190818152602001828054600181600116156101000203166002900480156132b55780601f1061328a576101008083540402835291602001916132b5565b820191906000526020600020905b81548152906001019060200180831161329857829003601f168201915b5050505050908060010160009054906101000a900473ffffffffffffffffffffffffffffffffffffffff16908060020154908060030154905084565b60006060600f60008473ffffffffffffffffffffffffffffffffffffffff1673ffffffffffffffffffffffffffffffffffffffff1681526020019081526020016000206000018054600181600116156101000203166002900480601f0160208091040260200160405190810160405280929190818152602001828054600181600116156101000203166002900480156133cb5780601f106133a0576101008083540402835291602001916133cb565b820191906000526020600020905b8154815290600101906020018083116133ae57829003601f168201915b50505050509050606081905060008151141592505050919050565b6000600480549050905090565b60018054600181600116156101000203166002900480601f0160208091040260200160405190810160405280929190818152602001828054600181600116156101000203166002900480156134895780601f1061345e57610100808354040283529160200191613489565b820191906000526020600020905b81548152906001019060200180831161346c57829003601f168201915b505050505081565b600b602052806000526040600020600091509050806000015490806001018054600181600116156101000203166002900480601f0160208091040260200160405190810160405280929190818152602001828054600181600116156101000203166002900480156135435780601f1061351857610100808354040283529160200191613543565b820191906000526020600020905b81548152906001019060200180831161352657829003601f168201915b5050505050908060020160009054906101000a900473ffffffffffffffffffffffffffffffffffffffff1690806003018054600181600116156101000203166002900480601f0160208091040260200160405190810160405280929190818152602001828054600181600116156101000203166002900480156136075780601f106135dc57610100808354040283529160200191613607565b820191906000526020600020905b8154815290600101906020018083116135ea57829003601f168201915b5050505050908060040154908060050154908060060154905087565b60008060009054906101000a900473ffffffffffffffffffffffffffffffffffffffff1673ffffffffffffffffffffffffffffffffffffffff163373ffffffffffffffffffffffffffffffffffffffff16146136e7576040517f08c379a000000000000000000000000000000000000000000000000000000000815260040180806020018281038252601f8152602001807f536f6c6f207065726d697469646f20616c2061646d696e6973747261646f720081525060200191505060405180910390fd5b6060829050600081511415613747576040517f08c379a000000000000000000000000000000000000000000000000000000000815260040180806020018281038252602a8152602001806147b6602a913960400191505060405180910390fd5b600080151561375585614293565b1515146137ca576040517f08c379a00000000000000000000000000000000000000000000000000000000081526004018080602001828103825260148152602001807f456c207061727469646f2079612065786973746500000000000000000000000081525060200191505060405180910390fd5b6137d2614732565b6040518060400160405280868152602001838152509050806009866040518082805190602001908083835b6020831061382057805182526020820191506020810190506020830392506137fd565b6001836020036101000a0380198251168184511680821785525050505050509050019150509081526020016040518091039020600082015181600001908051906020019061386f9291906145be565b50602082015181600101559050506004859080600181540180825580915050600190039060005260206000200160009091909190915090805190602001906138b89291906145be565b506001600480549050039350505050919050565b60086020528060005260406000206000915090508060000160009054906101000a900473ffffffffffffffffffffffffffffffffffffffff1690806001015490806002015490806003018054600181600116156101000203166002900480601f0160208091040260200160405190810160405280929190818152602001828054600181600116156101000203166002900480156139aa5780601f1061397f576101008083540402835291602001916139aa565b820191906000526020600020905b81548152906001019060200180831161398d57829003601f168201915b505050505090806004018054600181600116156101000203166002900480601f016020809104026020016040519081016040528092919081815260200182805460018160011615610100020316600290048015613a485780601f10613a1d57610100808354040283529160200191613a48565b820191906000526020600020905b815481529060010190602001808311613a2b57829003601f168201915b505050505090806005018054600181600116156101000203166002900480601f016020809104026020016040519081016040528092919081815260200182805460018160011615610100020316600290048015613ae65780601f10613abb57610100808354040283529160200191613ae6565b820191906000526020600020905b815481529060010190602001808311613ac957829003601f168201915b5050505050908060060160009054906101000a900460ff16905087565b600c6020528160005260406000208181548110613b1f57600080fd5b90600052602060002001600091509150505481565b60028054600181600116156101000203166002900480601f016020809104026020016040519081016040528092919081815260200182805460018160011615610100020316600290048015613bca5780601f10613b9f57610100808354040283529160200191613bca565b820191906000526020600020905b815481529060010190602001808311613bad57829003601f168201915b505050505081565b60008054906101000a900473ffffffffffffffffffffffffffffffffffffffff1681565b60008054906101000a900473ffffffffffffffffffffffffffffffffffffffff1673ffffffffffffffffffffffffffffffffffffffff163373ffffffffffffffffffffffffffffffffffffffff1614613cb7576040517f08c379a000000000000000000000000000000000000000000000000000000000815260040180806020018281038252601f8152602001807f536f6c6f207065726d697469646f20616c2061646d696e6973747261646f720081525060200191505060405180910390fd5b6060839050600081511415613d34576040517f08c379a000000000000000000000000000000000000000000000000000000000815260040180806020018281038252601c8152602001807f456c206e6f6d627265206e6f2070756564652073657220766163696f0000000081525060200191505060405180910390fd5b6060839050600081511415613db1576040517f08c379a000000000000000000000000000000000000000000000000000000000815260040180806020018281038252601b8152602001807f4c612063616c6c65206e6f2070756564652073657220766163696f000000000081525060200191505060405180910390fd5b6060859050600081511415613e2e576040517f08c379a00000000000000000000000000000000000000000000000000000000081526004018080602001828103825260198152602001807f456c20444e49206e6f2070756564652073657220766163696f0000000000000081525060200191505060405180910390fd5b6000801515613e3c8a6143b2565b151514613eb1576040517f08c379a00000000000000000000000000000000000000000000000000000000081526004018080602001828103825260148152602001807f456c20766f74616e74652079612065786973746500000000000000000000000081525060200191505060405180910390fd5b6000151581151514613f0e576040517f08c379a00000000000000000000000000000000000000000000000000000000081526004018080602001828103825260258152602001806147916025913960400191505060405180910390fd5b6000600a60008a8152602001908152602001600020600001549050613f3161469f565b6040518060e001604052808c73ffffffffffffffffffffffffffffffffffffffff1681526020018381526020018b81526020018a8152602001898152602001888152602001841515815250905080600860008d73ffffffffffffffffffffffffffffffffffffffff1673ffffffffffffffffffffffffffffffffffffffff16815260200190815260200160002060008201518160000160006101000a81548173ffffffffffffffffffffffffffffffffffffffff021916908373ffffffffffffffffffffffffffffffffffffffff160217905550602082015181600101556040820151816002015560608201518160030190805190602001906140359291906145be565b5060808201518160040190805190602001906140529291906145be565b5060a082015181600501908051906020019061406f9291906145be565b5060c08201518160060160006101000a81548160ff02191690831515021790555090505060038b9080600181540180825580915050600190039060005260206000200160009091909190916101000a81548173ffffffffffffffffffffffffffffffffffffffff021916908373ffffffffffffffffffffffffffffffffffffffff160217905550600d60008b81526020019081526020016000208b9080600181540180825580915050600190039060005260206000200160009091909190916101000a81548173ffffffffffffffffffffffffffffffffffffffff021916908373ffffffffffffffffffffffffffffffffffffffff160217905550600e60008381526020019081526020016000208b9080600181540180825580915050600190039060005260206000200160009091909190916101000a81548173ffffffffffffffffffffffffffffffffffffffff021916908373ffffffffffffffffffffffffffffffffffffffff16021790555060068a815481106141eb57fe5b906000526020600020906006020160030160008154809291906001019190505550600a60008b8152602001908152602001600020600301600081548092919060010191905055506007828154811061423f57fe5b906000526020600020906007020160050160008154809291906001019190505550600b6000838152602001908152602001600020600501600081548092919060010191905055505050505050505050505050565b600060606009836040518082805190602001908083835b602083106142cd57805182526020820191506020810190506020830392506142aa565b6001836020036101000a03801982511681845116808217855250505050505090500191505090815260200160405180910390206000018054600181600116156101000203166002900480601f0160208091040260200160405190810160405280929190818152602001828054600181600116156101000203166002900480156143975780601f1061436c57610100808354040283529160200191614397565b820191906000526020600020905b81548152906001019060200180831161437a57829003601f168201915b50505050509050606081905060008151141592505050919050565b60006060600860008473ffffffffffffffffffffffffffffffffffffffff1673ffffffffffffffffffffffffffffffffffffffff1681526020019081526020016000206003018054600181600116156101000203166002900480601f01602080910402602001604051908101604052809291908181526020018280546001816001161561010002031660029004801561448c5780601f106144615761010080835404028352916020019161448c565b820191906000526020600020905b81548152906001019060200180831161446f57829003601f168201915b50505050509050606081905060008151141592505050919050565b60006060600b60008481526020019081526020016000206001018054600181600116156101000203166002900480601f0160208091040260200160405190810160405280929190818152602001828054600181600116156101000203166002900480156145555780601f1061452a57610100808354040283529160200191614555565b820191906000526020600020905b81548152906001019060200180831161453857829003601f168201915b50505050509050606081905060008151141592505050919050565b6040518060c001604052806000815260200160008152602001600073ffffffffffffffffffffffffffffffffffffffff16815260200160008152602001600081526020016000151581525090565b828054600181600116156101000203166002900490600052602060002090601f0160209004810192826145f4576000855561463b565b82601f1061460d57805160ff191683800117855561463b565b8280016001018555821561463b579182015b8281111561463a57825182559160200191906001019061461f565b5b509050614648919061474c565b5090565b6040518060e001604052806000815260200160608152602001600073ffffffffffffffffffffffffffffffffffffffff168152602001606081526020016000815260200160008152602001600081525090565b6040518060e00160405280600073ffffffffffffffffffffffffffffffffffffffff16815260200160008152602001600081526020016060815260200160608152602001606081526020016000151581525090565b604051806080016040528060608152602001600073ffffffffffffffffffffffffffffffffffffffff16815260200160008152602001600081525090565b604051806040016040528060608152602001600081525090565b5b8082111561476557600081600090555060010161474d565b509056fe456c206e756d65726f20646520766f746f7320696e696369616c65732064656265207365722030456c207573756172696f206e7565766f206e6f206465626520686162657220766f7461646f456c206e6f6d6272652064656c207061727469646f206e6f20707565646520657374617220766163696f4c6120646972656363696f6e20696e74726f647563696461206e6f206573206c612074757961456c206e756d65726f20646520766f74616e74657320696e696369616c65732064656265207365722030a26469706673582212208425dec6229b91c6eba7425491962e0ae2da58d17c2a9790d1b2d0478398864e64736f6c63430007040033456c207965617220646520657374617320656c656363696f6e6573206e6f20707565646520657374617220766163696f456c206e6f6d62726520646520657374617320656c656363696f6e6573206e6f20707565646520657374617220766163696f",
  "immutableReferences": {},
  "source": "// SPDX-License-Identifier: UNLICENSED\r\npragma solidity ^0.7.4;\r\n\r\ncontract Elecciones {\r\n    \r\n    address public admin;\r\n    \r\n    string public nombre;\r\n    \r\n    string public year;\r\n    \r\n    \r\n    struct DatosVotante{\r\n        address direccion;\r\n        uint idColegio;\r\n        uint numeroMesa;\r\n        string nombre;\r\n        string calle;\r\n        string dni;\r\n        bool votado;\r\n    }\r\n\r\n    struct DatosPresidente{\r\n        string nombre;\r\n        address direccion;\r\n        uint numeroMesa;\r\n        uint idColegio;\r\n    }\r\n    \r\n    struct Partido{\r\n        string nombre;\r\n        uint votos;\r\n    }\r\n    \r\n    \r\n    //Como crear array dentro de struct\r\n  struct ColegioElectoral{\r\n      uint id;\r\n      string nombre;\r\n      address adminColegio;\r\n      string direccion;\r\n      uint numeroMesas;\r\n      uint numeroVotantes;\r\n      uint numeroVotos;\r\n  }\r\n    \r\n        \r\n  struct Mesa{\r\n      uint idColegio;\r\n      uint numeroMesa;\r\n      address presidente;\r\n      uint numeroVotantes;\r\n      uint numeroVotos;\r\n      bool actaFirmada;\r\n  }\r\n    \r\n    \r\n  \r\n    //Arrays con el total de votantes, partidos, presidentes ...\r\n    address[] public votantes;\r\n    string[] public partidos;\r\n    address[] public presidentes;\r\n    Mesa[] public mesas;\r\n    ColegioElectoral[] public colegios;\r\n        \r\n    mapping( address => DatosVotante) public datosVotante;\r\n    mapping( string => Partido) public datosPartidos;\r\n    mapping( uint => Mesa) public datosMesa;\r\n    mapping( uint => ColegioElectoral) public colegioElectoral;\r\n    //array que dado el indice de colegio, devuelve un array con los numeros de mesa de ese colegio.\r\n    mapping( uint => uint[]) public mesaColegio;\r\n    //array que dado un numero de mesa, te devuelve un array de direcciones de sus votantes.\r\n    mapping( uint => address[]) public votanteMesa;\r\n    //array que dado un numero de colegio, te devuelve un array de direcciones de sus votantes.\r\n    mapping( uint => address[]) public votanteColegio;\r\n    mapping( address => DatosPresidente) public datosPresidente;\r\nconstructor(string memory _nombre, string memory _year){\r\n    \r\n    bytes memory bn = bytes(_nombre);\r\n    require(bn.length != 0, \"El nombre de estas elecciones no puede estar vacio\");\r\n    \r\n    bytes memory ba = bytes(_year);\r\n    require(ba.length !=0, \"El year de estas elecciones no puede estar vacio\");\r\n    \r\n    admin= msg.sender;\r\n    nombre= _nombre;\r\n    year= _year;\r\n    \r\n}\r\n\r\nmodifier onlyAdmin() {\r\n    require(msg.sender == admin ,\"Solo permitido al administrador\");\r\n    \r\n    _;\r\n}\r\n\r\nfunction creaPartido(string memory _nombrePartido) onlyAdmin public returns(uint){\r\n    bytes memory bn = bytes(_nombrePartido);\r\n    require(bn.length != 0, \"El nombre del partido no puede estar vacio\");\r\n    uint _votosIniciales = 0;\r\n    \r\n    require(partidoExiste(_nombrePartido) == false,\"El partido ya existe\");\r\n    \r\n    Partido memory datos= Partido(_nombrePartido,_votosIniciales);\r\n    datosPartidos[_nombrePartido]=datos;\r\n    partidos.push(_nombrePartido);\r\n    //partidos.push(Partido(_nombre,_votosIniciales));\r\n    return partidos.length-1;\r\n}\r\n\r\nfunction partidosLength() public view returns(uint) {\r\n        return partidos.length;\r\n    }\r\n    \r\nfunction partidoExiste(string memory _nombrePartido) private view returns(bool){\r\n         string memory _bnombre = datosPartidos[_nombrePartido].nombre;\r\n         \r\n         bytes memory b = bytes(_bnombre);\r\n         \r\n         return b.length != 0 ;\r\n     }\r\n\r\nfunction creaVotante(address _direccion,uint _numeroMesa, string memory _nombre, string memory _calle,string memory _dni) onlyAdmin public {\r\n        \r\n        \r\n        \r\n        bytes memory bn = bytes(_nombre);\r\n        require(bn.length != 0, \"El nombre no puede ser vacio\");\r\n        \r\n        bytes memory bc = bytes(_calle);\r\n        require(bc.length != 0, \"La calle no puede ser vacio\");\r\n        \r\n        bytes memory bdni = bytes(_nombre);\r\n        require(bdni.length != 0, \"El DNI no puede ser vacio\");\r\n        \r\n        bool _votado = false;\r\n        \r\n        require(votanteExiste(_direccion) == false,\"El votante ya existe\");\r\n        require(_votado == false, \"El usuario nuevo no debe haber votado\");\r\n        \r\n        uint _idColegio = datosMesa[_numeroMesa].idColegio;\r\n       \r\n        //creamos el nuevo votante con sus parametros iniciales\r\n        DatosVotante memory datos = DatosVotante(_direccion,_idColegio,_numeroMesa,_nombre, _calle,_dni,_votado);\r\n        datosVotante[_direccion]=(datos);\r\n        \r\n        //metemos el votante en el array global con todos los votantes, y luego en el arrya que asigna numero de mesa a votantes\r\n        votantes.push(_direccion);\r\n        votanteMesa[_numeroMesa].push(_direccion);\r\n        votanteColegio[_idColegio].push(_direccion);\r\n        \r\n        mesas[_numeroMesa].numeroVotantes ++;\r\n        datosMesa[_numeroMesa].numeroVotantes ++;\r\n        colegios[_idColegio].numeroVotantes ++;\r\n        colegioElectoral[_idColegio].numeroVotantes ++;\r\n        \r\n        \r\n        \r\n    }\r\n    \r\n    function votanteExiste(address _direccion) private view returns(bool){\r\n         string memory _bnombre = datosVotante[_direccion].nombre;\r\n         \r\n         bytes memory b = bytes(_bnombre);\r\n         \r\n         return b.length != 0 ;\r\n     }\r\n\r\n\r\n    function votantesLength() public view returns(uint) {\r\n        return votantes.length;\r\n    }\r\n    \r\n    function votanteMesaLength(uint _numeroMesa) public view returns(uint) {\r\n        return votanteMesa[_numeroMesa].length;\r\n    }\r\n\r\n    function votanteColegioLength(uint _idColegio) public view returns(uint) {\r\n        return votanteMesa[_idColegio].length;\r\n    }\r\n    \r\n    \r\n    function votaPartido(address _direccionVotante, string memory _partido) public{\r\n        \r\n        require(partidoExiste(_partido) == true,\"El partido no existe\");\r\n        require(votanteExiste(_direccionVotante) == true,\"El votante no existe\");\r\n        require(datosVotante[_direccionVotante].votado == false, \"El votante ya ha votado\");\r\n        require(_direccionVotante == msg.sender,\"La direccion introducida no es la tuya\");\r\n        datosPartidos[_partido].votos ++;\r\n        datosVotante[_direccionVotante].votado = true;\r\n        \r\n        //actualizar el numero de votos dentro de los colegios y las mesas correspondientes a ese votante;\r\n        mesas[datosVotante[_direccionVotante].numeroMesa].numeroVotos ++;\r\n        datosMesa[datosVotante[_direccionVotante].numeroMesa].numeroVotos ++;\r\n        colegios[datosVotante[_direccionVotante].idColegio].numeroVotos ++;\r\n        colegioElectoral[datosVotante[_direccionVotante].idColegio].numeroVotos ++;\r\n        \r\n    }\r\n\r\n\r\n\r\n/* \r\nFaltan comprobaciones de atributos , modificadores y si la mesa est creada\r\ncrear presidente aqu??? como crear address vaca\r\n*/\r\n    function creaMesa(uint _idColegio) onlyAdmin public{\r\n        \r\n        // bytes memory bc = bytes(_colegio);\r\n        // require(bc.length != 0, \"El colegio no puede ser vacio\");\r\n        \r\n        \r\n       // Array temporal, copia de las mesas que hay en el colegio dado en el parametro\r\n        \r\n        \r\n        \r\n        \r\n        address _presidente = 0x0000000000000000000000000000000000000000;\r\n        uint _numeroVotantes = 0;\r\n        uint _numeroVotos = 0;\r\n        bool _actaFirmada = false;\r\n        \r\n        require(_numeroVotos == 0, \"El numero de votos iniciales debe ser 0\");\r\n        require(_numeroVotantes == 0, \"El numero de votantes iniciales debe ser 0\");\r\n        \r\n        //Cogemos el length del numero de mesas de ese colegio, sera el numero de la nueva mesa\r\n        uint _numeroMesa = mesas.length;\r\n        \r\n        Mesa memory mesa = Mesa(_idColegio,_numeroMesa,_presidente,_numeroVotantes,_numeroVotos,_actaFirmada);\r\n        \r\n        datosMesa[_numeroMesa] = mesa;\r\n        \r\n        mesas.push(mesa);\r\n        \r\n        /*\r\n        Metemos la nueva mesa en el array temporal\r\n        despues metemos el array temporal con la nueva mesa en el colegio deseado\r\n        */\r\n        \r\n        mesaColegio[_idColegio].push(_numeroMesa);\r\n        colegios[_idColegio].numeroMesas++;\r\n        colegioElectoral[_idColegio].numeroMesas++;\r\n        \r\n    }\r\n    \r\n    function mesasLength() public view returns(uint) {\r\n        return mesas.length;\r\n    }\r\n    \r\n    \r\n    function creaColegio(uint id, string memory _nombre,string memory _direccion) onlyAdmin public{\r\n        \r\n        address _admin = admin;\r\n        uint numeroMesas = 0;\r\n        uint numeroVotantes = 0;\r\n        uint numeroVotos = 0;\r\n        \r\n        bytes memory bn = bytes(_nombre);\r\n        require(bn.length != 0, \"El nombre no puede ser vacio\");\r\n        \r\n        bytes memory bd = bytes(_direccion);\r\n        require(bd.length != 0, \"El nombre no puede ser vacio\");\r\n        \r\n        require(colegioExiste(id) == false,\"El colegio ya existe\");\r\n        \r\n        ColegioElectoral memory colegio = ColegioElectoral(id,_nombre,_admin,_direccion,numeroMesas,numeroVotantes,numeroVotos);\r\n        colegioElectoral[id]= colegio;\r\n        colegios.push(colegio);\r\n        \r\n        \r\n        \r\n    }\r\n    \r\n    function colegiosLength() public view returns(uint) {\r\n        return colegios.length;\r\n    }\r\n    \r\n    \r\n    /*\r\n    comprobar si existe el colegio, introducimos el id, comprobamos si en ese id hay un nombre, si tiene algun byte, entonces devuelve true, es decir, hay colegio\r\n    */\r\n    \r\n     function colegioExiste(uint id) private view returns(bool){\r\n         string memory _bnombre = colegioElectoral[id].nombre;\r\n         \r\n         bytes memory b = bytes(_bnombre);\r\n         \r\n         return b.length != 0 ;\r\n     }\r\n    \r\n    \r\n    function mesaColegioLength(uint _idColegio) public view returns(uint) {\r\n        return mesaColegio[_idColegio].length;\r\n    }\r\n    \r\n    \r\n    \r\n    /*\r\n    \r\n    - meter presidente en colegioMesa\r\n    -Que pasa si creo el mismo presidente en otra mesa??\r\n    \r\n    */\r\n    function asignaPresidenteMesa(string memory _nombre,address _direccionPresidente,uint  _numeroMesa) onlyAdmin public{\r\n        \r\n        \r\n        \r\n        datosMesa[_numeroMesa].presidente = _direccionPresidente;\r\n        mesas[_numeroMesa].presidente =_direccionPresidente;\r\n        presidentes.push(_direccionPresidente);\r\n        uint _idColegio = mesas[_numeroMesa].idColegio;\r\n        datosPresidente[_direccionPresidente] = DatosPresidente(_nombre,_direccionPresidente,_numeroMesa,_idColegio);\r\n    }\r\n\r\n    function presidenteExiste(address _direccion) public view returns(bool){\r\n         string memory _bnombre = datosPresidente[_direccion].nombre;\r\n         \r\n         bytes memory b = bytes(_bnombre);\r\n         \r\n         return b.length != 0 ;\r\n     }\r\n    \r\n    function quienSoy()  public view returns (string memory _nombre, address _direccion,uint _idColegio, uint _numeroMesa,string memory _rol) {\r\n        DatosVotante memory datosV = datosVotante[msg.sender];\r\n        DatosPresidente memory datosP = datosPresidente[msg.sender];\r\n        if(votanteExiste(msg.sender) == true){\r\n            _nombre = datosV.nombre;\r\n            _direccion = datosV.direccion;\r\n            _idColegio = datosV.idColegio;\r\n            _numeroMesa= datosV.numeroMesa;\r\n            _rol = \"Votante\";\r\n        }else if(presidenteExiste(msg.sender)){\r\n            _nombre = datosP.nombre;\r\n            _direccion = datosP.direccion;\r\n            _idColegio = datosP.idColegio;\r\n            _numeroMesa= datosP.numeroMesa;\r\n            _rol = \"Presidente\";\r\n        }else if(msg.sender == admin){\r\n        _nombre=\"admin\";\r\n        _direccion=admin;\r\n        _idColegio=0;\r\n        _numeroMesa=0;\r\n        _rol=\"Administrador\";\r\n        }else{\r\n        _nombre=\"Usuario no registrado\";\r\n        _direccion=0x0000000000000000000000000000000000000000;\r\n        _idColegio=0;\r\n        _numeroMesa=0;\r\n        _rol=\"Usuario no registrado\";    \r\n        }\r\n    }\r\n    \r\n    \r\n    function uint2str(uint _i) internal pure returns (string memory _uintAsString) {\r\n        if (_i == 0) {\r\n            return \"0\";\r\n        }\r\n            uint j = _i;\r\n            uint len;\r\n                while (j != 0) {\r\n                    len++;\r\n                    j /= 10;\r\n                }\r\n            bytes memory bstr = new bytes(len);\r\n            uint k = len - 1;\r\n                while (_i != 0) {\r\n                    bstr[k--] = byte(uint8(48 + _i % 10));\r\n                    _i /= 10;\r\n                }\r\n        return string(bstr);\r\n    }\r\n\r\n}",
  "sourcePath": "C:/Users/jaime/tfg/EleccionesDemo/contracts/Elecciones.sol",
  "compiler": {
    "name": "solc",
    "version": "0.7.4+commit.3f05b770.Emscripten.clang"
  },
  "schemaVersion": "3.3.3",
  "updatedAt": "2021-05-23T10:56:16.308Z",
  "networkType": "ethereum",
  "devdoc": {
    "kind": "dev",
    "methods": {},
    "version": 1
  },
  "userdoc": {
    "kind": "user",
    "methods": {},
    "version": 1
  }
}