{
  "contractName": "Elecciones",
  "abi": [
    {
      "inputs": [
        {
          "internalType": "string",
          "name": "_nombre",
          "type": "string"
        },
        {
          "internalType": "string",
          "name": "_year",
          "type": "string"
        }
      ],
      "stateMutability": "nonpayable",
      "type": "constructor"
    },
    {
      "inputs": [],
      "name": "admin",
      "outputs": [
        {
          "internalType": "address",
          "name": "",
          "type": "address"
        }
      ],
      "stateMutability": "view",
      "type": "function",
      "constant": true
    },
    {
      "inputs": [
        {
          "internalType": "uint256",
          "name": "",
          "type": "uint256"
        }
      ],
      "name": "colegioElectoral",
      "outputs": [
        {
          "internalType": "uint256",
          "name": "id",
          "type": "uint256"
        },
        {
          "internalType": "string",
          "name": "nombre",
          "type": "string"
        },
        {
          "internalType": "address",
          "name": "adminColegio",
          "type": "address"
        },
        {
          "internalType": "string",
          "name": "direccion",
          "type": "string"
        },
        {
          "internalType": "uint256",
          "name": "numeroMesas",
          "type": "uint256"
        },
        {
          "internalType": "uint256",
          "name": "numeroVotantes",
          "type": "uint256"
        },
        {
          "internalType": "uint256",
          "name": "numeroVotos",
          "type": "uint256"
        }
      ],
      "stateMutability": "view",
      "type": "function",
      "constant": true
    },
    {
      "inputs": [
        {
          "internalType": "uint256",
          "name": "",
          "type": "uint256"
        }
      ],
      "name": "colegios",
      "outputs": [
        {
          "internalType": "uint256",
          "name": "id",
          "type": "uint256"
        },
        {
          "internalType": "string",
          "name": "nombre",
          "type": "string"
        },
        {
          "internalType": "address",
          "name": "adminColegio",
          "type": "address"
        },
        {
          "internalType": "string",
          "name": "direccion",
          "type": "string"
        },
        {
          "internalType": "uint256",
          "name": "numeroMesas",
          "type": "uint256"
        },
        {
          "internalType": "uint256",
          "name": "numeroVotantes",
          "type": "uint256"
        },
        {
          "internalType": "uint256",
          "name": "numeroVotos",
          "type": "uint256"
        }
      ],
      "stateMutability": "view",
      "type": "function",
      "constant": true
    },
    {
      "inputs": [
        {
          "internalType": "uint256",
          "name": "",
          "type": "uint256"
        }
      ],
      "name": "datosMesa",
      "outputs": [
        {
          "internalType": "uint256",
          "name": "idColegio",
          "type": "uint256"
        },
        {
          "internalType": "uint256",
          "name": "numeroMesa",
          "type": "uint256"
        },
        {
          "internalType": "address",
          "name": "presidente",
          "type": "address"
        },
        {
          "internalType": "uint256",
          "name": "numeroVotantes",
          "type": "uint256"
        },
        {
          "internalType": "uint256",
          "name": "numeroVotos",
          "type": "uint256"
        },
        {
          "internalType": "bool",
          "name": "actaFirmada",
          "type": "bool"
        }
      ],
      "stateMutability": "view",
      "type": "function",
      "constant": true
    },
    {
      "inputs": [
        {
          "internalType": "string",
          "name": "",
          "type": "string"
        }
      ],
      "name": "datosPartidos",
      "outputs": [
        {
          "internalType": "string",
          "name": "nombre",
          "type": "string"
        },
        {
          "internalType": "uint256",
          "name": "votos",
          "type": "uint256"
        }
      ],
      "stateMutability": "view",
      "type": "function",
      "constant": true
    },
    {
      "inputs": [
        {
          "internalType": "address",
          "name": "",
          "type": "address"
        }
      ],
      "name": "datosPresidente",
      "outputs": [
        {
          "internalType": "string",
          "name": "nombre",
          "type": "string"
        },
        {
          "internalType": "address",
          "name": "direccion",
          "type": "address"
        },
        {
          "internalType": "uint256",
          "name": "numeroMesa",
          "type": "uint256"
        },
        {
          "internalType": "uint256",
          "name": "idColegio",
          "type": "uint256"
        }
      ],
      "stateMutability": "view",
      "type": "function",
      "constant": true
    },
    {
      "inputs": [
        {
          "internalType": "address",
          "name": "",
          "type": "address"
        }
      ],
      "name": "datosVotante",
      "outputs": [
        {
          "internalType": "address",
          "name": "direccion",
          "type": "address"
        },
        {
          "internalType": "uint256",
          "name": "idColegio",
          "type": "uint256"
        },
        {
          "internalType": "uint256",
          "name": "numeroMesa",
          "type": "uint256"
        },
        {
          "internalType": "string",
          "name": "nombre",
          "type": "string"
        },
        {
          "internalType": "string",
          "name": "calle",
          "type": "string"
        },
        {
          "internalType": "string",
          "name": "dni",
          "type": "string"
        },
        {
          "internalType": "bool",
          "name": "votado",
          "type": "bool"
        }
      ],
      "stateMutability": "view",
      "type": "function",
      "constant": true
    },
    {
      "inputs": [
        {
          "internalType": "uint256",
          "name": "",
          "type": "uint256"
        },
        {
          "internalType": "uint256",
          "name": "",
          "type": "uint256"
        }
      ],
      "name": "mesaColegio",
      "outputs": [
        {
          "internalType": "uint256",
          "name": "",
          "type": "uint256"
        }
      ],
      "stateMutability": "view",
      "type": "function",
      "constant": true
    },
    {
      "inputs": [
        {
          "internalType": "uint256",
          "name": "",
          "type": "uint256"
        }
      ],
      "name": "mesas",
      "outputs": [
        {
          "internalType": "uint256",
          "name": "idColegio",
          "type": "uint256"
        },
        {
          "internalType": "uint256",
          "name": "numeroMesa",
          "type": "uint256"
        },
        {
          "internalType": "address",
          "name": "presidente",
          "type": "address"
        },
        {
          "internalType": "uint256",
          "name": "numeroVotantes",
          "type": "uint256"
        },
        {
          "internalType": "uint256",
          "name": "numeroVotos",
          "type": "uint256"
        },
        {
          "internalType": "bool",
          "name": "actaFirmada",
          "type": "bool"
        }
      ],
      "stateMutability": "view",
      "type": "function",
      "constant": true
    },
    {
      "inputs": [],
      "name": "nombre",
      "outputs": [
        {
          "internalType": "string",
          "name": "",
          "type": "string"
        }
      ],
      "stateMutability": "view",
      "type": "function",
      "constant": true
    },
    {
      "inputs": [
        {
          "internalType": "uint256",
          "name": "",
          "type": "uint256"
        }
      ],
      "name": "partidos",
      "outputs": [
        {
          "internalType": "string",
          "name": "",
          "type": "string"
        }
      ],
      "stateMutability": "view",
      "type": "function",
      "constant": true
    },
    {
      "inputs": [
        {
          "internalType": "uint256",
          "name": "",
          "type": "uint256"
        }
      ],
      "name": "presidentes",
      "outputs": [
        {
          "internalType": "address",
          "name": "",
          "type": "address"
        }
      ],
      "stateMutability": "view",
      "type": "function",
      "constant": true
    },
    {
      "inputs": [
        {
          "internalType": "uint256",
          "name": "",
          "type": "uint256"
        },
        {
          "internalType": "uint256",
          "name": "",
          "type": "uint256"
        }
      ],
      "name": "votanteMesa",
      "outputs": [
        {
          "internalType": "address",
          "name": "",
          "type": "address"
        }
      ],
      "stateMutability": "view",
      "type": "function",
      "constant": true
    },
    {
      "inputs": [
        {
          "internalType": "uint256",
          "name": "",
          "type": "uint256"
        }
      ],
      "name": "votantes",
      "outputs": [
        {
          "internalType": "address",
          "name": "",
          "type": "address"
        }
      ],
      "stateMutability": "view",
      "type": "function",
      "constant": true
    },
    {
      "inputs": [],
      "name": "year",
      "outputs": [
        {
          "internalType": "string",
          "name": "",
          "type": "string"
        }
      ],
      "stateMutability": "view",
      "type": "function",
      "constant": true
    },
    {
      "inputs": [
        {
          "internalType": "string",
          "name": "_nombrePartido",
          "type": "string"
        }
      ],
      "name": "creaPartido",
      "outputs": [
        {
          "internalType": "uint256",
          "name": "",
          "type": "uint256"
        }
      ],
      "stateMutability": "nonpayable",
      "type": "function"
    },
    {
      "inputs": [],
      "name": "partidosLength",
      "outputs": [
        {
          "internalType": "uint256",
          "name": "",
          "type": "uint256"
        }
      ],
      "stateMutability": "view",
      "type": "function",
      "constant": true
    },
    {
      "inputs": [
        {
          "internalType": "address",
          "name": "_direccion",
          "type": "address"
        },
        {
          "internalType": "uint256",
          "name": "_numeroMesa",
          "type": "uint256"
        },
        {
          "internalType": "string",
          "name": "_nombre",
          "type": "string"
        },
        {
          "internalType": "string",
          "name": "_calle",
          "type": "string"
        },
        {
          "internalType": "string",
          "name": "_dni",
          "type": "string"
        }
      ],
      "name": "creaVotante",
      "outputs": [],
      "stateMutability": "nonpayable",
      "type": "function"
    },
    {
      "inputs": [],
      "name": "votantesLength",
      "outputs": [
        {
          "internalType": "uint256",
          "name": "",
          "type": "uint256"
        }
      ],
      "stateMutability": "view",
      "type": "function",
      "constant": true
    },
    {
      "inputs": [
        {
          "internalType": "address",
          "name": "_direccionVotante",
          "type": "address"
        },
        {
          "internalType": "string",
          "name": "_partido",
          "type": "string"
        }
      ],
      "name": "votaPartido",
      "outputs": [],
      "stateMutability": "nonpayable",
      "type": "function"
    },
    {
      "inputs": [
        {
          "internalType": "uint256",
          "name": "_idColegio",
          "type": "uint256"
        }
      ],
      "name": "creaMesa",
      "outputs": [],
      "stateMutability": "nonpayable",
      "type": "function"
    },
    {
      "inputs": [],
      "name": "mesasLength",
      "outputs": [
        {
          "internalType": "uint256",
          "name": "",
          "type": "uint256"
        }
      ],
      "stateMutability": "view",
      "type": "function",
      "constant": true
    },
    {
      "inputs": [
        {
          "internalType": "uint256",
          "name": "id",
          "type": "uint256"
        },
        {
          "internalType": "string",
          "name": "_nombre",
          "type": "string"
        },
        {
          "internalType": "string",
          "name": "_direccion",
          "type": "string"
        }
      ],
      "name": "creaColegio",
      "outputs": [],
      "stateMutability": "nonpayable",
      "type": "function"
    },
    {
      "inputs": [
        {
          "internalType": "string",
          "name": "_nombre",
          "type": "string"
        },
        {
          "internalType": "address",
          "name": "_direccionPresidente",
          "type": "address"
        },
        {
          "internalType": "uint256",
          "name": "_numeroMesa",
          "type": "uint256"
        }
      ],
      "name": "asignaPresidenteMesa",
      "outputs": [],
      "stateMutability": "nonpayable",
      "type": "function"
    },
    {
      "inputs": [
        {
          "internalType": "address",
          "name": "_direccion",
          "type": "address"
        }
      ],
      "name": "presidenteExiste",
      "outputs": [
        {
          "internalType": "bool",
          "name": "",
          "type": "bool"
        }
      ],
      "stateMutability": "view",
      "type": "function",
      "constant": true
    },
    {
      "inputs": [],
      "name": "quienSoy",
      "outputs": [
        {
          "internalType": "string",
          "name": "_nombre",
          "type": "string"
        },
        {
          "internalType": "address",
          "name": "_direccion",
          "type": "address"
        },
        {
          "internalType": "uint256",
          "name": "_idColegio",
          "type": "uint256"
        },
        {
          "internalType": "uint256",
          "name": "_numeroMesa",
          "type": "uint256"
        },
        {
          "internalType": "string",
          "name": "_rol",
          "type": "string"
        }
      ],
      "stateMutability": "view",
      "type": "function",
      "constant": true
    }
  ],
  "bytecode": "0x60806040523480156200001157600080fd5b506040516200490c3803806200490c833981810160405260408110156200003757600080fd5b81019080805160405193929190846401000000008211156200005857600080fd5b838201915060208201858111156200006f57600080fd5b82518660018202830111640100000000821117156200008d57600080fd5b8083526020830192505050908051906020019080838360005b83811015620000c3578082015181840152602081019050620000a6565b50505050905090810190601f168015620000f15780820380516001836020036101000a031916815260200191505b50604052602001805160405193929190846401000000008211156200011557600080fd5b838201915060208201858111156200012c57600080fd5b82518660018202830111640100000000821117156200014a57600080fd5b8083526020830192505050908051906020019080838360005b838110156200018057808201518184015260208101905062000163565b50505050905090810190601f168015620001ae5780820380516001836020036101000a031916815260200191505b50604052505050606082905060008151141562000217576040517f08c379a0000000000000000000000000000000000000000000000000000000008152600401808060200182810382526032815260200180620048da6032913960400191505060405180910390fd5b606082905060008151141562000279576040517f08c379a0000000000000000000000000000000000000000000000000000000008152600401808060200182810382526030815260200180620048aa6030913960400191505060405180910390fd5b336000806101000a81548173ffffffffffffffffffffffffffffffffffffffff021916908373ffffffffffffffffffffffffffffffffffffffff1602179055508360019080519060200190620002d1929190620002f5565b508260029080519060200190620002ea929190620002f5565b5050505050620003ab565b828054600181600116156101000203166002900490600052602060002090601f0160209004810192826200032d576000855562000379565b82601f106200034857805160ff191683800117855562000379565b8280016001018555821562000379579182015b82811115620003785782518255916020019190600101906200035b565b5b5090506200038891906200038c565b5090565b5b80821115620003a75760008160009055506001016200038d565b5090565b6144ef80620003bb6000396000f3fe608060405234801561001057600080fd5b506004361061018e5760003560e01c806353766883116100de578063c5c204e311610097578063ef69e4b911610071578063ef69e4b914611134578063f326971614611180578063f851a44014611203578063fd9dc95c146112375761018e565b8063c5c204e314610d50578063d8f0d1c214610e9c578063e0e2e8f214610f6b5761018e565b806353766883146109d65780635b94ea1014610af05780639ef5117e14610b6d5780639f611b0014610c55578063aacca74e14610caf578063bc7b35b214610ccd5761018e565b80632e03f8381161014b578063369061d811610125578063369061d81461071957806338bfab431461077b57806340deb070146107d357806347d5c1f41461087a5761018e565b80632e03f838146104a157806333c87b03146104f95780633463574f146105de5761018e565b8063027c8487146101935780630c57c4fa146101c15780630d38bdfd1461029c5780630e2386f9146103e85780631c760e0e146104065780632519accb14610483575b600080fd5b6101bf600480360360208110156101a957600080fd5b810190808035906020019092919050505061144a565b005b61029a600480360360408110156101d757600080fd5b81019080803573ffffffffffffffffffffffffffffffffffffffff1690602001909291908035906020019064010000000081111561021457600080fd5b82018360208201111561022657600080fd5b8035906020019184600183028401116401000000008311171561024857600080fd5b91908080601f016020809104026020016040519081016040528093929190818152602001838380828437600081840152601f19601f820116905080830192505050505050509192919290505050611816565b005b6102c8600480360360208110156102b257600080fd5b8101908080359060200190929190505050611c6e565b60405180888152602001806020018773ffffffffffffffffffffffffffffffffffffffff16815260200180602001868152602001858152602001848152602001838103835289818151815260200191508051906020019080838360005b83811015610340578082015181840152602081019050610325565b50505050905090810190601f16801561036d5780820380516001836020036101000a031916815260200191505b50838103825287818151815260200191508051906020019080838360005b838110156103a657808201518184015260208101905061038b565b50505050905090810190601f1680156103d35780820380516001836020036101000a031916815260200191505b50995050505050505050505060405180910390f35b6103f0611e10565b6040518082815260200191505060405180910390f35b6104326004803603602081101561041c57600080fd5b8101908080359060200190929190505050611e1d565b604051808781526020018681526020018573ffffffffffffffffffffffffffffffffffffffff1681526020018481526020018381526020018215158152602001965050505050505060405180910390f35b61048b611e86565b6040518082815260200191505060405180910390f35b6104cd600480360360208110156104b757600080fd5b8101908080359060200190929190505050611e93565b604051808273ffffffffffffffffffffffffffffffffffffffff16815260200191505060405180910390f35b6105dc6004803603606081101561050f57600080fd5b810190808035906020019064010000000081111561052c57600080fd5b82018360208201111561053e57600080fd5b8035906020019184600183028401116401000000008311171561056057600080fd5b91908080601f016020809104026020016040519081016040528093929190818152602001838380828437600081840152601f19601f820116905080830192505050505050509192919290803573ffffffffffffffffffffffffffffffffffffffff16906020019092919080359060200190929190505050611ed2565b005b610697600480360360208110156105f457600080fd5b810190808035906020019064010000000081111561061157600080fd5b82018360208201111561062357600080fd5b8035906020019184600183028401116401000000008311171561064557600080fd5b91908080601f016020809104026020016040519081016040528093929190818152602001838380828437600081840152601f19601f8201169050808301925050505050505091929192905050506121c2565b6040518080602001838152602001828103825284818151815260200191508051906020019080838360005b838110156106dd5780820151818401526020810190506106c2565b50505050905090810190601f16801561070a5780820380516001836020036101000a031916815260200191505b50935050505060405180910390f35b61074f6004803603604081101561072f57600080fd5b810190808035906020019092919080359060200190929190505050612294565b604051808273ffffffffffffffffffffffffffffffffffffffff16815260200191505060405180910390f35b6107a76004803603602081101561079157600080fd5b81019080803590602001909291905050506122e2565b604051808273ffffffffffffffffffffffffffffffffffffffff16815260200191505060405180910390f35b6107ff600480360360208110156107e957600080fd5b8101908080359060200190929190505050612321565b6040518080602001828103825283818151815260200191508051906020019080838360005b8381101561083f578082015181840152602081019050610824565b50505050905090810190601f16801561086c5780820380516001836020036101000a031916815260200191505b509250505060405180910390f35b6109d46004803603606081101561089057600080fd5b8101908080359060200190929190803590602001906401000000008111156108b757600080fd5b8201836020820111156108c957600080fd5b803590602001918460018302840111640100000000831117156108eb57600080fd5b91908080601f016020809104026020016040519081016040528093929190818152602001838380828437600081840152601f19601f8201169050808301925050505050505091929192908035906020019064010000000081111561094e57600080fd5b82018360208201111561096057600080fd5b8035906020019184600183028401116401000000008311171561098257600080fd5b91908080601f016020809104026020016040519081016040528093929190818152602001838380828437600081840152601f19601f8201169050808301925050505050505091929192905050506123dd565b005b6109de61283b565b60405180806020018673ffffffffffffffffffffffffffffffffffffffff16815260200185815260200184815260200180602001838103835288818151815260200191508051906020019080838360005b83811015610a4a578082015181840152602081019050610a2f565b50505050905090810190601f168015610a775780820380516001836020036101000a031916815260200191505b50838103825284818151815260200191508051906020019080838360005b83811015610ab0578082015181840152602081019050610a95565b50505050905090810190601f168015610add5780820380516001836020036101000a031916815260200191505b5097505050505050505060405180910390f35b610b1c60048036036020811015610b0657600080fd5b8101908080359060200190929190505050612eb4565b604051808781526020018681526020018573ffffffffffffffffffffffffffffffffffffffff1681526020018481526020018381526020018215158152602001965050505050505060405180910390f35b610baf60048036036020811015610b8357600080fd5b81019080803573ffffffffffffffffffffffffffffffffffffffff169060200190929190505050612f2d565b60405180806020018573ffffffffffffffffffffffffffffffffffffffff168152602001848152602001838152602001828103825286818151815260200191508051906020019080838360005b83811015610c17578082015181840152602081019050610bfc565b50505050905090810190601f168015610c445780820380516001836020036101000a031916815260200191505b509550505050505060405180910390f35b610c9760048036036020811015610c6b57600080fd5b81019080803573ffffffffffffffffffffffffffffffffffffffff169060200190929190505050613015565b60405180821515815260200191505060405180910390f35b610cb761310a565b6040518082815260200191505060405180910390f35b610cd5613117565b6040518080602001828103825283818151815260200191508051906020019080838360005b83811015610d15578082015181840152602081019050610cfa565b50505050905090810190601f168015610d425780820380516001836020036101000a031916815260200191505b509250505060405180910390f35b610d7c60048036036020811015610d6657600080fd5b81019080803590602001909291905050506131b5565b60405180888152602001806020018773ffffffffffffffffffffffffffffffffffffffff16815260200180602001868152602001858152602001848152602001838103835289818151815260200191508051906020019080838360005b83811015610df4578082015181840152602081019050610dd9565b50505050905090810190601f168015610e215780820380516001836020036101000a031916815260200191505b50838103825287818151815260200191508051906020019080838360005b83811015610e5a578082015181840152602081019050610e3f565b50505050905090810190601f168015610e875780820380516001836020036101000a031916815260200191505b50995050505050505050505060405180910390f35b610f5560048036036020811015610eb257600080fd5b8101908080359060200190640100000000811115610ecf57600080fd5b820183602082011115610ee157600080fd5b80359060200191846001830284011164010000000083111715610f0357600080fd5b91908080601f016020809104026020016040519081016040528093929190818152602001838380828437600081840152601f19601f820116905080830192505050505050509192919290505050613347565b6040518082815260200191505060405180910390f35b610fad60048036036020811015610f8157600080fd5b81019080803573ffffffffffffffffffffffffffffffffffffffff1690602001909291905050506135f0565b604051808873ffffffffffffffffffffffffffffffffffffffff1681526020018781526020018681526020018060200180602001806020018515158152602001848103845288818151815260200191508051906020019080838360005b8381101561102557808201518184015260208101905061100a565b50505050905090810190601f1680156110525780820380516001836020036101000a031916815260200191505b50848103835287818151815260200191508051906020019080838360005b8381101561108b578082015181840152602081019050611070565b50505050905090810190601f1680156110b85780820380516001836020036101000a031916815260200191505b50848103825286818151815260200191508051906020019080838360005b838110156110f15780820151818401526020810190506110d6565b50505050905090810190601f16801561111e5780820380516001836020036101000a031916815260200191505b509a505050505050505050505060405180910390f35b61116a6004803603604081101561114a57600080fd5b810190808035906020019092919080359060200190929190505050613827565b6040518082815260200191505060405180910390f35b611188613858565b6040518080602001828103825283818151815260200191508051906020019080838360005b838110156111c85780820151818401526020810190506111ad565b50505050905090810190601f1680156111f55780820380516001836020036101000a031916815260200191505b509250505060405180910390f35b61120b6138f6565b604051808273ffffffffffffffffffffffffffffffffffffffff16815260200191505060405180910390f35b611448600480360360a081101561124d57600080fd5b81019080803573ffffffffffffffffffffffffffffffffffffffff169060200190929190803590602001909291908035906020019064010000000081111561129457600080fd5b8201836020820111156112a657600080fd5b803590602001918460018302840111640100000000831117156112c857600080fd5b91908080601f016020809104026020016040519081016040528093929190818152602001838380828437600081840152601f19601f8201169050808301925050505050505091929192908035906020019064010000000081111561132b57600080fd5b82018360208201111561133d57600080fd5b8035906020019184600183028401116401000000008311171561135f57600080fd5b91908080601f016020809104026020016040519081016040528093929190818152602001838380828437600081840152601f19601f820116905080830192505050505050509192919290803590602001906401000000008111156113c257600080fd5b8201836020820111156113d457600080fd5b803590602001918460018302840111640100000000831117156113f657600080fd5b91908080601f016020809104026020016040519081016040528093929190818152602001838380828437600081840152601f19601f82011690508083019250505050505050919291929050505061391a565b005b60008054906101000a900473ffffffffffffffffffffffffffffffffffffffff1673ffffffffffffffffffffffffffffffffffffffff163373ffffffffffffffffffffffffffffffffffffffff161461150b576040517f08c379a000000000000000000000000000000000000000000000000000000000815260040180806020018281038252601f8152602001807f536f6c6f207065726d697469646f20616c2061646d696e6973747261646f720081525060200191505060405180910390fd5b6000806000806000821461156a576040517f08c379a000000000000000000000000000000000000000000000000000000000815260040180806020018281038252602781526020018061441a6027913960400191505060405180910390fd5b600083146115c3576040517f08c379a000000000000000000000000000000000000000000000000000000000815260040180806020018281038252602a815260200180614490602a913960400191505060405180910390fd5b600060068054905090506115d5614220565b6040518060c001604052808881526020018381526020018773ffffffffffffffffffffffffffffffffffffffff168152602001868152602001858152602001841515815250905080600a6000848152602001908152602001600020600082015181600001556020820151816001015560408201518160020160006101000a81548173ffffffffffffffffffffffffffffffffffffffff021916908373ffffffffffffffffffffffffffffffffffffffff160217905550606082015181600301556080820151816004015560a08201518160050160006101000a81548160ff0219169083151502179055509050506006819080600181540180825580915050600190039060005260206000209060060201600090919091909150600082015181600001556020820151816001015560408201518160020160006101000a81548173ffffffffffffffffffffffffffffffffffffffff021916908373ffffffffffffffffffffffffffffffffffffffff160217905550606082015181600301556080820151816004015560a08201518160050160006101000a81548160ff0219169083151502179055505050600c6000888152602001908152602001600020829080600181540180825580915050600190039060005260206000200160009091909190915055600787815481106117c657fe5b906000526020600020906007020160040160008154809291906001019190505550600b60008881526020019081526020016000206004016000815480929190600101919050555050505050505050565b6001151561182382613f43565b151514611898576040517f08c379a00000000000000000000000000000000000000000000000000000000081526004018080602001828103825260148152602001807f456c207061727469646f206e6f2065786973746500000000000000000000000081525060200191505060405180910390fd5b600115156118a583614062565b15151461191a576040517f08c379a00000000000000000000000000000000000000000000000000000000081526004018080602001828103825260148152602001807f456c20766f74616e7465206e6f2065786973746500000000000000000000000081525060200191505060405180910390fd5b60001515600860008473ffffffffffffffffffffffffffffffffffffffff1673ffffffffffffffffffffffffffffffffffffffff16815260200190815260200160002060060160009054906101000a900460ff161515146119e3576040517f08c379a00000000000000000000000000000000000000000000000000000000081526004018080602001828103825260178152602001807f456c20766f74616e746520796120686120766f7461646f00000000000000000081525060200191505060405180910390fd5b6009816040518082805190602001908083835b60208310611a1957805182526020820191506020810190506020830392506119f6565b6001836020036101000a0380198251168184511680821785525050505050509050019150509081526020016040518091039020600101600081548092919060010191905055506001600860008473ffffffffffffffffffffffffffffffffffffffff1673ffffffffffffffffffffffffffffffffffffffff16815260200190815260200160002060060160006101000a81548160ff0219169083151502179055506006600860008473ffffffffffffffffffffffffffffffffffffffff1673ffffffffffffffffffffffffffffffffffffffff1681526020019081526020016000206002015481548110611b0957fe5b906000526020600020906006020160040160008154809291906001019190505550600a6000600860008573ffffffffffffffffffffffffffffffffffffffff1673ffffffffffffffffffffffffffffffffffffffff168152602001908152602001600020600201548152602001908152602001600020600401600081548092919060010191905055506007600860008473ffffffffffffffffffffffffffffffffffffffff1673ffffffffffffffffffffffffffffffffffffffff1681526020019081526020016000206001015481548110611be157fe5b906000526020600020906007020160060160008154809291906001019190505550600b6000600860008573ffffffffffffffffffffffffffffffffffffffff1673ffffffffffffffffffffffffffffffffffffffff168152602001908152602001600020600101548152602001908152602001600020600601600081548092919060010191905055505050565b60078181548110611c7e57600080fd5b9060005260206000209060070201600091509050806000015490806001018054600181600116156101000203166002900480601f016020809104026020016040519081016040528092919081815260200182805460018160011615610100020316600290048015611d305780601f10611d0557610100808354040283529160200191611d30565b820191906000526020600020905b815481529060010190602001808311611d1357829003601f168201915b5050505050908060020160009054906101000a900473ffffffffffffffffffffffffffffffffffffffff1690806003018054600181600116156101000203166002900480601f016020809104026020016040519081016040528092919081815260200182805460018160011615610100020316600290048015611df45780601f10611dc957610100808354040283529160200191611df4565b820191906000526020600020905b815481529060010190602001808311611dd757829003601f168201915b5050505050908060040154908060050154908060060154905087565b6000600380549050905090565b600a6020528060005260406000206000915090508060000154908060010154908060020160009054906101000a900473ffffffffffffffffffffffffffffffffffffffff16908060030154908060040154908060050160009054906101000a900460ff16905086565b6000600680549050905090565b60038181548110611ea357600080fd5b906000526020600020016000915054906101000a900473ffffffffffffffffffffffffffffffffffffffff1681565b60008054906101000a900473ffffffffffffffffffffffffffffffffffffffff1673ffffffffffffffffffffffffffffffffffffffff163373ffffffffffffffffffffffffffffffffffffffff1614611f93576040517f08c379a000000000000000000000000000000000000000000000000000000000815260040180806020018281038252601f8152602001807f536f6c6f207065726d697469646f20616c2061646d696e6973747261646f720081525060200191505060405180910390fd5b81600a600083815260200190815260200160002060020160006101000a81548173ffffffffffffffffffffffffffffffffffffffff021916908373ffffffffffffffffffffffffffffffffffffffff1602179055508160068281548110611ff657fe5b906000526020600020906006020160020160006101000a81548173ffffffffffffffffffffffffffffffffffffffff021916908373ffffffffffffffffffffffffffffffffffffffff1602179055506005829080600181540180825580915050600190039060005260206000200160009091909190916101000a81548173ffffffffffffffffffffffffffffffffffffffff021916908373ffffffffffffffffffffffffffffffffffffffff1602179055506000600682815481106120b757fe5b906000526020600020906006020160000154905060405180608001604052808581526020018473ffffffffffffffffffffffffffffffffffffffff16815260200183815260200182815250600e60008573ffffffffffffffffffffffffffffffffffffffff1673ffffffffffffffffffffffffffffffffffffffff168152602001908152602001600020600082015181600001908051906020019061215d92919061426e565b5060208201518160010160006101000a81548173ffffffffffffffffffffffffffffffffffffffff021916908373ffffffffffffffffffffffffffffffffffffffff160217905550604082015181600201556060820151816003015590505050505050565b600981805160208101820180518482526020830160208501208183528095505050505050600091509050806000018054600181600116156101000203166002900480601f0160208091040260200160405190810160405280929190818152602001828054600181600116156101000203166002900480156122845780601f1061225957610100808354040283529160200191612284565b820191906000526020600020905b81548152906001019060200180831161226757829003601f168201915b5050505050908060010154905082565b600d60205281600052604060002081815481106122b057600080fd5b906000526020600020016000915091509054906101000a900473ffffffffffffffffffffffffffffffffffffffff1681565b600581815481106122f257600080fd5b906000526020600020016000915054906101000a900473ffffffffffffffffffffffffffffffffffffffff1681565b6004818154811061233157600080fd5b906000526020600020016000915090508054600181600116156101000203166002900480601f0160208091040260200160405190810160405280929190818152602001828054600181600116156101000203166002900480156123d55780601f106123aa576101008083540402835291602001916123d5565b820191906000526020600020905b8154815290600101906020018083116123b857829003601f168201915b505050505081565b60008054906101000a900473ffffffffffffffffffffffffffffffffffffffff1673ffffffffffffffffffffffffffffffffffffffff163373ffffffffffffffffffffffffffffffffffffffff161461249e576040517f08c379a000000000000000000000000000000000000000000000000000000000815260040180806020018281038252601f8152602001807f536f6c6f207065726d697469646f20616c2061646d696e6973747261646f720081525060200191505060405180910390fd5b60008060009054906101000a900473ffffffffffffffffffffffffffffffffffffffff16905060008060006060869050600081511415612546576040517f08c379a000000000000000000000000000000000000000000000000000000000815260040180806020018281038252601c8152602001807f456c206e6f6d627265206e6f2070756564652073657220766163696f0000000081525060200191505060405180910390fd5b60608690506000815114156125c3576040517f08c379a000000000000000000000000000000000000000000000000000000000815260040180806020018281038252601c8152602001807f456c206e6f6d627265206e6f2070756564652073657220766163696f0000000081525060200191505060405180910390fd5b600015156125d08a614157565b151514612645576040517f08c379a00000000000000000000000000000000000000000000000000000000081526004018080602001828103825260148152602001807f456c20636f6c6567696f2079612065786973746500000000000000000000000081525060200191505060405180910390fd5b61264d6142fc565b6040518060e001604052808b81526020018a81526020018873ffffffffffffffffffffffffffffffffffffffff16815260200189815260200187815260200186815260200185815250905080600b60008c81526020019081526020016000206000820151816000015560208201518160010190805190602001906126d292919061426e565b5060408201518160020160006101000a81548173ffffffffffffffffffffffffffffffffffffffff021916908373ffffffffffffffffffffffffffffffffffffffff160217905550606082015181600301908051906020019061273692919061426e565b506080820151816004015560a0820151816005015560c0820151816006015590505060078190806001815401808255809150506001900390600052602060002090600702016000909190919091506000820151816000015560208201518160010190805190602001906127aa92919061426e565b5060408201518160020160006101000a81548173ffffffffffffffffffffffffffffffffffffffff021916908373ffffffffffffffffffffffffffffffffffffffff160217905550606082015181600301908051906020019061280e92919061426e565b506080820151816004015560a0820151816005015560c08201518160060155505050505050505050505050565b60606000806000606061284c61434f565b600860003373ffffffffffffffffffffffffffffffffffffffff1673ffffffffffffffffffffffffffffffffffffffff1681526020019081526020016000206040518060e00160405290816000820160009054906101000a900473ffffffffffffffffffffffffffffffffffffffff1673ffffffffffffffffffffffffffffffffffffffff1673ffffffffffffffffffffffffffffffffffffffff1681526020016001820154815260200160028201548152602001600382018054600181600116156101000203166002900480601f0160208091040260200160405190810160405280929190818152602001828054600181600116156101000203166002900480156129995780601f1061296e57610100808354040283529160200191612999565b820191906000526020600020905b81548152906001019060200180831161297c57829003601f168201915b50505050508152602001600482018054600181600116156101000203166002900480601f016020809104026020016040519081016040528092919081815260200182805460018160011615610100020316600290048015612a3b5780601f10612a1057610100808354040283529160200191612a3b565b820191906000526020600020905b815481529060010190602001808311612a1e57829003601f168201915b50505050508152602001600582018054600181600116156101000203166002900480601f016020809104026020016040519081016040528092919081815260200182805460018160011615610100020316600290048015612add5780601f10612ab257610100808354040283529160200191612add565b820191906000526020600020905b815481529060010190602001808311612ac057829003601f168201915b505050505081526020016006820160009054906101000a900460ff1615151515815250509050612b0b6143a4565b600e60003373ffffffffffffffffffffffffffffffffffffffff1673ffffffffffffffffffffffffffffffffffffffff168152602001908152602001600020604051806080016040529081600082018054600181600116156101000203166002900480601f016020809104026020016040519081016040528092919081815260200182805460018160011615610100020316600290048015612bee5780601f10612bc357610100808354040283529160200191612bee565b820191906000526020600020905b815481529060010190602001808311612bd157829003601f168201915b505050505081526020016001820160009054906101000a900473ffffffffffffffffffffffffffffffffffffffff1673ffffffffffffffffffffffffffffffffffffffff1673ffffffffffffffffffffffffffffffffffffffff16815260200160028201548152602001600382015481525050905060011515612c7033614062565b15151415612cd157816060015196508160000151955081602001519450816040015193506040518060400160405280600781526020017f566f74616e7465000000000000000000000000000000000000000000000000008152509250612eab565b612cda33613015565b15612d3857806000015196508060200151955080606001519450806040015193506040518060400160405280600a81526020017f507265736964656e7465000000000000000000000000000000000000000000008152509250612eaa565b60008054906101000a900473ffffffffffffffffffffffffffffffffffffffff1673ffffffffffffffffffffffffffffffffffffffff163373ffffffffffffffffffffffffffffffffffffffff161415612e2c576040518060400160405280600581526020017f61646d696e000000000000000000000000000000000000000000000000000000815250965060008054906101000a900473ffffffffffffffffffffffffffffffffffffffff16955060009450600093506040518060400160405280600d81526020017f41646d696e6973747261646f72000000000000000000000000000000000000008152509250612ea9565b6040518060400160405280601581526020017f5573756172696f206e6f207265676973747261646f000000000000000000000081525096506000955060009450600093506040518060400160405280601581526020017f5573756172696f206e6f207265676973747261646f000000000000000000000081525092505b5b5b50509091929394565b60068181548110612ec457600080fd5b90600052602060002090600602016000915090508060000154908060010154908060020160009054906101000a900473ffffffffffffffffffffffffffffffffffffffff16908060030154908060040154908060050160009054906101000a900460ff16905086565b600e602052806000526040600020600091509050806000018054600181600116156101000203166002900480601f016020809104026020016040519081016040528092919081815260200182805460018160011615610100020316600290048015612fd95780601f10612fae57610100808354040283529160200191612fd9565b820191906000526020600020905b815481529060010190602001808311612fbc57829003601f168201915b5050505050908060010160009054906101000a900473ffffffffffffffffffffffffffffffffffffffff16908060020154908060030154905084565b60006060600e60008473ffffffffffffffffffffffffffffffffffffffff1673ffffffffffffffffffffffffffffffffffffffff1681526020019081526020016000206000018054600181600116156101000203166002900480601f0160208091040260200160405190810160405280929190818152602001828054600181600116156101000203166002900480156130ef5780601f106130c4576101008083540402835291602001916130ef565b820191906000526020600020905b8154815290600101906020018083116130d257829003601f168201915b50505050509050606081905060008151141592505050919050565b6000600480549050905090565b60018054600181600116156101000203166002900480601f0160208091040260200160405190810160405280929190818152602001828054600181600116156101000203166002900480156131ad5780601f10613182576101008083540402835291602001916131ad565b820191906000526020600020905b81548152906001019060200180831161319057829003601f168201915b505050505081565b600b602052806000526040600020600091509050806000015490806001018054600181600116156101000203166002900480601f0160208091040260200160405190810160405280929190818152602001828054600181600116156101000203166002900480156132675780601f1061323c57610100808354040283529160200191613267565b820191906000526020600020905b81548152906001019060200180831161324a57829003601f168201915b5050505050908060020160009054906101000a900473ffffffffffffffffffffffffffffffffffffffff1690806003018054600181600116156101000203166002900480601f01602080910402602001604051908101604052809291908181526020018280546001816001161561010002031660029004801561332b5780601f106133005761010080835404028352916020019161332b565b820191906000526020600020905b81548152906001019060200180831161330e57829003601f168201915b5050505050908060040154908060050154908060060154905087565b60008060009054906101000a900473ffffffffffffffffffffffffffffffffffffffff1673ffffffffffffffffffffffffffffffffffffffff163373ffffffffffffffffffffffffffffffffffffffff161461340b576040517f08c379a000000000000000000000000000000000000000000000000000000000815260040180806020018281038252601f8152602001807f536f6c6f207065726d697469646f20616c2061646d696e6973747261646f720081525060200191505060405180910390fd5b606082905060008151141561346b576040517f08c379a000000000000000000000000000000000000000000000000000000000815260040180806020018281038252602a815260200180614466602a913960400191505060405180910390fd5b600080151561347985613f43565b1515146134ee576040517f08c379a00000000000000000000000000000000000000000000000000000000081526004018080602001828103825260148152602001807f456c207061727469646f2079612065786973746500000000000000000000000081525060200191505060405180910390fd5b6134f66143e2565b6040518060400160405280868152602001838152509050806009866040518082805190602001908083835b602083106135445780518252602082019150602081019050602083039250613521565b6001836020036101000a0380198251168184511680821785525050505050509050019150509081526020016040518091039020600082015181600001908051906020019061359392919061426e565b50602082015181600101559050506004859080600181540180825580915050600190039060005260206000200160009091909190915090805190602001906135dc92919061426e565b506001600480549050039350505050919050565b60086020528060005260406000206000915090508060000160009054906101000a900473ffffffffffffffffffffffffffffffffffffffff1690806001015490806002015490806003018054600181600116156101000203166002900480601f0160208091040260200160405190810160405280929190818152602001828054600181600116156101000203166002900480156136ce5780601f106136a3576101008083540402835291602001916136ce565b820191906000526020600020905b8154815290600101906020018083116136b157829003601f168201915b505050505090806004018054600181600116156101000203166002900480601f01602080910402602001604051908101604052809291908181526020018280546001816001161561010002031660029004801561376c5780601f106137415761010080835404028352916020019161376c565b820191906000526020600020905b81548152906001019060200180831161374f57829003601f168201915b505050505090806005018054600181600116156101000203166002900480601f01602080910402602001604051908101604052809291908181526020018280546001816001161561010002031660029004801561380a5780601f106137df5761010080835404028352916020019161380a565b820191906000526020600020905b8154815290600101906020018083116137ed57829003601f168201915b5050505050908060060160009054906101000a900460ff16905087565b600c602052816000526040600020818154811061384357600080fd5b90600052602060002001600091509150505481565b60028054600181600116156101000203166002900480601f0160208091040260200160405190810160405280929190818152602001828054600181600116156101000203166002900480156138ee5780601f106138c3576101008083540402835291602001916138ee565b820191906000526020600020905b8154815290600101906020018083116138d157829003601f168201915b505050505081565b60008054906101000a900473ffffffffffffffffffffffffffffffffffffffff1681565b60008054906101000a900473ffffffffffffffffffffffffffffffffffffffff1673ffffffffffffffffffffffffffffffffffffffff163373ffffffffffffffffffffffffffffffffffffffff16146139db576040517f08c379a000000000000000000000000000000000000000000000000000000000815260040180806020018281038252601f8152602001807f536f6c6f207065726d697469646f20616c2061646d696e6973747261646f720081525060200191505060405180910390fd5b6060839050600081511415613a58576040517f08c379a000000000000000000000000000000000000000000000000000000000815260040180806020018281038252601c8152602001807f456c206e6f6d627265206e6f2070756564652073657220766163696f0000000081525060200191505060405180910390fd5b6060839050600081511415613ad5576040517f08c379a000000000000000000000000000000000000000000000000000000000815260040180806020018281038252601b8152602001807f4c612063616c6c65206e6f2070756564652073657220766163696f000000000081525060200191505060405180910390fd5b6060859050600081511415613b52576040517f08c379a00000000000000000000000000000000000000000000000000000000081526004018080602001828103825260198152602001807f456c20444e49206e6f2070756564652073657220766163696f0000000000000081525060200191505060405180910390fd5b6000801515613b608a614062565b151514613bd5576040517f08c379a00000000000000000000000000000000000000000000000000000000081526004018080602001828103825260148152602001807f456c20766f74616e74652079612065786973746500000000000000000000000081525060200191505060405180910390fd5b6000151581151514613c32576040517f08c379a00000000000000000000000000000000000000000000000000000000081526004018080602001828103825260258152602001806144416025913960400191505060405180910390fd5b6000600a60008a8152602001908152602001600020600001549050613c5561434f565b6040518060e001604052808c73ffffffffffffffffffffffffffffffffffffffff1681526020018381526020018b81526020018a8152602001898152602001888152602001841515815250905080600860008d73ffffffffffffffffffffffffffffffffffffffff1673ffffffffffffffffffffffffffffffffffffffff16815260200190815260200160002060008201518160000160006101000a81548173ffffffffffffffffffffffffffffffffffffffff021916908373ffffffffffffffffffffffffffffffffffffffff16021790555060208201518160010155604082015181600201556060820151816003019080519060200190613d5992919061426e565b506080820151816004019080519060200190613d7692919061426e565b5060a0820151816005019080519060200190613d9392919061426e565b5060c08201518160060160006101000a81548160ff02191690831515021790555090505060038b9080600181540180825580915050600190039060005260206000200160009091909190916101000a81548173ffffffffffffffffffffffffffffffffffffffff021916908373ffffffffffffffffffffffffffffffffffffffff160217905550600d60008b81526020019081526020016000208b9080600181540180825580915050600190039060005260206000200160009091909190916101000a81548173ffffffffffffffffffffffffffffffffffffffff021916908373ffffffffffffffffffffffffffffffffffffffff16021790555060068a81548110613e9b57fe5b906000526020600020906006020160030160008154809291906001019190505550600a60008b81526020019081526020016000206003016000815480929190600101919050555060078281548110613eef57fe5b906000526020600020906007020160050160008154809291906001019190505550600b6000838152602001908152602001600020600501600081548092919060010191905055505050505050505050505050565b600060606009836040518082805190602001908083835b60208310613f7d5780518252602082019150602081019050602083039250613f5a565b6001836020036101000a03801982511681845116808217855250505050505090500191505090815260200160405180910390206000018054600181600116156101000203166002900480601f0160208091040260200160405190810160405280929190818152602001828054600181600116156101000203166002900480156140475780601f1061401c57610100808354040283529160200191614047565b820191906000526020600020905b81548152906001019060200180831161402a57829003601f168201915b50505050509050606081905060008151141592505050919050565b60006060600860008473ffffffffffffffffffffffffffffffffffffffff1673ffffffffffffffffffffffffffffffffffffffff1681526020019081526020016000206003018054600181600116156101000203166002900480601f01602080910402602001604051908101604052809291908181526020018280546001816001161561010002031660029004801561413c5780601f106141115761010080835404028352916020019161413c565b820191906000526020600020905b81548152906001019060200180831161411f57829003601f168201915b50505050509050606081905060008151141592505050919050565b60006060600b60008481526020019081526020016000206001018054600181600116156101000203166002900480601f0160208091040260200160405190810160405280929190818152602001828054600181600116156101000203166002900480156142055780601f106141da57610100808354040283529160200191614205565b820191906000526020600020905b8154815290600101906020018083116141e857829003601f168201915b50505050509050606081905060008151141592505050919050565b6040518060c001604052806000815260200160008152602001600073ffffffffffffffffffffffffffffffffffffffff16815260200160008152602001600081526020016000151581525090565b828054600181600116156101000203166002900490600052602060002090601f0160209004810192826142a457600085556142eb565b82601f106142bd57805160ff19168380011785556142eb565b828001600101855582156142eb579182015b828111156142ea5782518255916020019190600101906142cf565b5b5090506142f891906143fc565b5090565b6040518060e001604052806000815260200160608152602001600073ffffffffffffffffffffffffffffffffffffffff168152602001606081526020016000815260200160008152602001600081525090565b6040518060e00160405280600073ffffffffffffffffffffffffffffffffffffffff16815260200160008152602001600081526020016060815260200160608152602001606081526020016000151581525090565b604051806080016040528060608152602001600073ffffffffffffffffffffffffffffffffffffffff16815260200160008152602001600081525090565b604051806040016040528060608152602001600081525090565b5b808211156144155760008160009055506001016143fd565b509056fe456c206e756d65726f20646520766f746f7320696e696369616c65732064656265207365722030456c207573756172696f206e7565766f206e6f206465626520686162657220766f7461646f456c206e6f6d6272652064656c207061727469646f206e6f20707565646520657374617220766163696f456c206e756d65726f20646520766f74616e74657320696e696369616c65732064656265207365722030a2646970667358221220c7e0c99f4ba1eabcbf29ef06ff7299aeab24fbfc5bfc56e70ab5d9673e9f86d864736f6c63430007040033456c207965617220646520657374617320656c656363696f6e6573206e6f20707565646520657374617220766163696f456c206e6f6d62726520646520657374617320656c656363696f6e6573206e6f20707565646520657374617220766163696f",
  "immutableReferences": {},
  "source": "// SPDX-License-Identifier: UNLICENSED\r\npragma solidity ^0.7.4;\r\n\r\ncontract Elecciones {\r\n    \r\n    address public admin;\r\n    \r\n    string public nombre;\r\n    \r\n    string public year;\r\n    \r\n    \r\n    //Pensar si meter idColegio e idMesa aqu\r\n    struct DatosVotante{\r\n        address direccion;\r\n        uint idColegio;\r\n        uint numeroMesa;\r\n        string nombre;\r\n        string calle;\r\n        string dni;\r\n        bool votado;\r\n    }\r\n\r\n    struct DatosPresidente{\r\n        string nombre;\r\n        address direccion;\r\n        uint numeroMesa;\r\n        uint idColegio;\r\n    }\r\n    \r\n    struct Partido{\r\n        string nombre;\r\n        uint votos;\r\n    }\r\n    \r\n    \r\n    //Como crear array dentro de struct\r\n  struct ColegioElectoral{\r\n      uint id;\r\n      string nombre;\r\n      address adminColegio;\r\n      string direccion;\r\n      uint numeroMesas;\r\n      uint numeroVotantes;\r\n      uint numeroVotos;\r\n  }\r\n    \r\n        \r\n  struct Mesa{\r\n      uint idColegio;\r\n      uint numeroMesa;\r\n      address presidente;\r\n      uint numeroVotantes;\r\n      uint numeroVotos;\r\n      bool actaFirmada;\r\n  }\r\n    \r\n    \r\n  \r\n    //Arrays con el total de votantes, partidos, presidentes ...\r\n    address[] public votantes;\r\n    string[] public partidos;\r\n    address[] public presidentes;\r\n    Mesa[] public mesas;\r\n    ColegioElectoral[] public colegios;\r\n        \r\n    mapping( address => DatosVotante) public datosVotante;\r\n    mapping( string => Partido) public datosPartidos;\r\n    mapping( uint => Mesa) public datosMesa;\r\n    mapping( uint => ColegioElectoral) public colegioElectoral;\r\n    //array que dado el indice de colegio, devuelve un array con los numeros de mesa de ese colegio.\r\n    mapping( uint => uint[]) public mesaColegio;\r\n    //array que dado un numero de mesa, te devuelve un array de direcciones de sus votantes.\r\n    mapping( uint => address[]) public votanteMesa;\r\n    mapping( address => DatosPresidente) public datosPresidente;\r\nconstructor(string memory _nombre, string memory _year){\r\n    \r\n    bytes memory bn = bytes(_nombre);\r\n    require(bn.length != 0, \"El nombre de estas elecciones no puede estar vacio\");\r\n    \r\n    bytes memory ba = bytes(_year);\r\n    require(ba.length !=0, \"El year de estas elecciones no puede estar vacio\");\r\n    \r\n    admin= msg.sender;\r\n    nombre= _nombre;\r\n    year= _year;\r\n    \r\n}\r\n\r\nmodifier onlyAdmin() {\r\n    require(msg.sender == admin ,\"Solo permitido al administrador\");\r\n    \r\n    _;\r\n}\r\n\r\nfunction creaPartido(string memory _nombrePartido) onlyAdmin public returns(uint){\r\n    bytes memory bn = bytes(_nombrePartido);\r\n    require(bn.length != 0, \"El nombre del partido no puede estar vacio\");\r\n    uint _votosIniciales = 0;\r\n    \r\n    require(partidoExiste(_nombrePartido) == false,\"El partido ya existe\");\r\n    \r\n    Partido memory datos= Partido(_nombrePartido,_votosIniciales);\r\n    datosPartidos[_nombrePartido]=datos;\r\n    partidos.push(_nombrePartido);\r\n    //partidos.push(Partido(_nombre,_votosIniciales));\r\n    return partidos.length-1;\r\n}\r\n\r\nfunction partidosLength() public view returns(uint) {\r\n        return partidos.length;\r\n    }\r\n    \r\nfunction partidoExiste(string memory _nombrePartido) private view returns(bool){\r\n         string memory _bnombre = datosPartidos[_nombrePartido].nombre;\r\n         \r\n         bytes memory b = bytes(_bnombre);\r\n         \r\n         return b.length != 0 ;\r\n     }\r\n\r\nfunction creaVotante(address _direccion,uint _numeroMesa, string memory _nombre, string memory _calle,string memory _dni) onlyAdmin public {\r\n        \r\n        \r\n        \r\n        bytes memory bn = bytes(_nombre);\r\n        require(bn.length != 0, \"El nombre no puede ser vacio\");\r\n        \r\n        bytes memory bc = bytes(_calle);\r\n        require(bc.length != 0, \"La calle no puede ser vacio\");\r\n        \r\n        bytes memory bdni = bytes(_nombre);\r\n        require(bdni.length != 0, \"El DNI no puede ser vacio\");\r\n        \r\n        bool _votado = false;\r\n        \r\n        require(votanteExiste(_direccion) == false,\"El votante ya existe\");\r\n        require(_votado == false, \"El usuario nuevo no debe haber votado\");\r\n        \r\n        uint _idColegio = datosMesa[_numeroMesa].idColegio;\r\n       \r\n        //creamos el nuevo votante con sus parametros iniciales\r\n        DatosVotante memory datos = DatosVotante(_direccion,_idColegio,_numeroMesa,_nombre, _calle,_dni,_votado);\r\n        datosVotante[_direccion]=(datos);\r\n        \r\n        //metemos el votante en el array global con todos los votantes, y luego en el arrya que asigna numero de mesa a votantes\r\n        votantes.push(_direccion);\r\n        votanteMesa[_numeroMesa].push(_direccion);\r\n        \r\n        mesas[_numeroMesa].numeroVotantes ++;\r\n        datosMesa[_numeroMesa].numeroVotantes ++;\r\n        colegios[_idColegio].numeroVotantes ++;\r\n        colegioElectoral[_idColegio].numeroVotantes ++;\r\n        \r\n        \r\n        \r\n    }\r\n    \r\n    function votanteExiste(address _direccion) private view returns(bool){\r\n         string memory _bnombre = datosVotante[_direccion].nombre;\r\n         \r\n         bytes memory b = bytes(_bnombre);\r\n         \r\n         return b.length != 0 ;\r\n     }\r\n\r\n\r\n    function votantesLength() public view returns(uint) {\r\n        return votantes.length;\r\n    }\r\n    \r\n    function votaPartido(address _direccionVotante, string memory _partido) public{\r\n        \r\n        require(partidoExiste(_partido) == true,\"El partido no existe\");\r\n        require(votanteExiste(_direccionVotante) == true,\"El votante no existe\");\r\n        require(datosVotante[_direccionVotante].votado == false, \"El votante ya ha votado\");\r\n        datosPartidos[_partido].votos ++;\r\n        datosVotante[_direccionVotante].votado = true;\r\n        \r\n        //actualizar el numero de votos dentro de los colegios y las mesas correspondientes a ese votante;\r\n        mesas[datosVotante[_direccionVotante].numeroMesa].numeroVotos ++;\r\n        datosMesa[datosVotante[_direccionVotante].numeroMesa].numeroVotos ++;\r\n        colegios[datosVotante[_direccionVotante].idColegio].numeroVotos ++;\r\n        colegioElectoral[datosVotante[_direccionVotante].idColegio].numeroVotos ++;\r\n        \r\n    }\r\n\r\n\r\n\r\n/* \r\nFaltan comprobaciones de atributos , modificadores y si la mesa est creada\r\ncrear presidente aqu??? como crear address vaca\r\n*/\r\n    function creaMesa(uint _idColegio) onlyAdmin public{\r\n        \r\n        // bytes memory bc = bytes(_colegio);\r\n        // require(bc.length != 0, \"El colegio no puede ser vacio\");\r\n        \r\n        \r\n       // Array temporal, copia de las mesas que hay en el colegio dado en el parametro\r\n        \r\n        \r\n        \r\n        \r\n        address _presidente = 0x0000000000000000000000000000000000000000;\r\n        uint _numeroVotantes = 0;\r\n        uint _numeroVotos = 0;\r\n        bool _actaFirmada = false;\r\n        \r\n        require(_numeroVotos == 0, \"El numero de votos iniciales debe ser 0\");\r\n        require(_numeroVotantes == 0, \"El numero de votantes iniciales debe ser 0\");\r\n        \r\n        //Cogemos el length del numero de mesas de ese colegio, sera el numero de la nueva mesa\r\n        uint _numeroMesa = mesas.length;\r\n        \r\n        Mesa memory mesa = Mesa(_idColegio,_numeroMesa,_presidente,_numeroVotantes,_numeroVotos,_actaFirmada);\r\n        \r\n        datosMesa[_numeroMesa] = mesa;\r\n        \r\n        mesas.push(mesa);\r\n        \r\n        /*\r\n        Metemos la nueva mesa en el array temporal\r\n        despues metemos el array temporal con la nueva mesa en el colegio deseado\r\n        */\r\n        \r\n        mesaColegio[_idColegio].push(_numeroMesa);\r\n        colegios[_idColegio].numeroMesas++;\r\n        colegioElectoral[_idColegio].numeroMesas++;\r\n        \r\n    }\r\n    \r\n    function mesasLength() public view returns(uint) {\r\n        return mesas.length;\r\n    }\r\n    \r\n    \r\n    function creaColegio(uint id, string memory _nombre,string memory _direccion) onlyAdmin public{\r\n        \r\n        address _admin = admin;\r\n        uint numeroMesas = 0;\r\n        uint numeroVotantes = 0;\r\n        uint numeroVotos = 0;\r\n        \r\n        bytes memory bn = bytes(_nombre);\r\n        require(bn.length != 0, \"El nombre no puede ser vacio\");\r\n        \r\n        bytes memory bd = bytes(_direccion);\r\n        require(bd.length != 0, \"El nombre no puede ser vacio\");\r\n        \r\n        require(colegioExiste(id) == false,\"El colegio ya existe\");\r\n        \r\n        ColegioElectoral memory colegio = ColegioElectoral(id,_nombre,_admin,_direccion,numeroMesas,numeroVotantes,numeroVotos);\r\n        colegioElectoral[id]= colegio;\r\n        colegios.push(colegio);\r\n        \r\n        \r\n        \r\n    }\r\n    \r\n    /*\r\n    comprobar si existe el colegio, introducimos el id, comprobamos si en ese id hay un nombre, si tiene algun byte, entonces devuelve true, es decir, hay colegio\r\n    */\r\n    \r\n     function colegioExiste(uint id) private view returns(bool){\r\n         string memory _bnombre = colegioElectoral[id].nombre;\r\n         \r\n         bytes memory b = bytes(_bnombre);\r\n         \r\n         return b.length != 0 ;\r\n     }\r\n    \r\n    \r\n    \r\n    \r\n    \r\n    /*\r\n    \r\n    - meter presidente en colegioMesa\r\n    -Que pasa si creo el mismo presidente en otra mesa??\r\n    \r\n    */\r\n    function asignaPresidenteMesa(string memory _nombre,address _direccionPresidente,uint  _numeroMesa) onlyAdmin public{\r\n        \r\n        \r\n        \r\n        datosMesa[_numeroMesa].presidente = _direccionPresidente;\r\n        mesas[_numeroMesa].presidente =_direccionPresidente;\r\n        presidentes.push(_direccionPresidente);\r\n        uint _idColegio = mesas[_numeroMesa].idColegio;\r\n        datosPresidente[_direccionPresidente] = DatosPresidente(_nombre,_direccionPresidente,_numeroMesa,_idColegio);\r\n    }\r\n\r\n    function presidenteExiste(address _direccion) public view returns(bool){\r\n         string memory _bnombre = datosPresidente[_direccion].nombre;\r\n         \r\n         bytes memory b = bytes(_bnombre);\r\n         \r\n         return b.length != 0 ;\r\n     }\r\n    \r\n    function quienSoy()  public view returns (string memory _nombre, address _direccion,uint _idColegio, uint _numeroMesa,string memory _rol) {\r\n        DatosVotante memory datosV = datosVotante[msg.sender];\r\n        DatosPresidente memory datosP = datosPresidente[msg.sender];\r\n        if(votanteExiste(msg.sender) == true){\r\n            _nombre = datosV.nombre;\r\n            _direccion = datosV.direccion;\r\n            _idColegio = datosV.idColegio;\r\n            _numeroMesa= datosV.numeroMesa;\r\n            _rol = \"Votante\";\r\n        }else if(presidenteExiste(msg.sender)){\r\n            _nombre = datosP.nombre;\r\n            _direccion = datosP.direccion;\r\n            _idColegio = datosP.idColegio;\r\n            _numeroMesa= datosP.numeroMesa;\r\n            _rol = \"Presidente\";\r\n        }else if(msg.sender == admin){\r\n        _nombre=\"admin\";\r\n        _direccion=admin;\r\n        _idColegio=0;\r\n        _numeroMesa=0;\r\n        _rol=\"Administrador\";\r\n        }else{\r\n        _nombre=\"Usuario no registrado\";\r\n        _direccion=0x0000000000000000000000000000000000000000;\r\n        _idColegio=0;\r\n        _numeroMesa=0;\r\n        _rol=\"Usuario no registrado\";    \r\n        }\r\n    }\r\n    \r\n    \r\n    function uint2str(uint _i) internal pure returns (string memory _uintAsString) {\r\n        if (_i == 0) {\r\n            return \"0\";\r\n        }\r\n            uint j = _i;\r\n            uint len;\r\n                while (j != 0) {\r\n                    len++;\r\n                    j /= 10;\r\n                }\r\n            bytes memory bstr = new bytes(len);\r\n            uint k = len - 1;\r\n                while (_i != 0) {\r\n                    bstr[k--] = byte(uint8(48 + _i % 10));\r\n                    _i /= 10;\r\n                }\r\n        return string(bstr);\r\n    }\r\n\r\n}",
  "sourcePath": "C:/Users/jaime/tfg/EleccionesDemo/contracts/Elecciones.sol",
  "compiler": {
    "name": "solc",
    "version": "0.7.4+commit.3f05b770.Emscripten.clang"
  },
  "schemaVersion": "3.3.3",
  "updatedAt": "2021-05-19T17:45:26.234Z",
  "networkType": "ethereum",
  "devdoc": {
    "kind": "dev",
    "methods": {},
    "version": 1
  },
  "userdoc": {
    "kind": "user",
    "methods": {},
    "version": 1
  }
}