{
  "contractName": "Elecciones",
  "abi": [
    {
      "inputs": [
        {
          "internalType": "string",
          "name": "_nombre",
          "type": "string"
        },
        {
          "internalType": "string",
          "name": "_year",
          "type": "string"
        }
      ],
      "stateMutability": "nonpayable",
      "type": "constructor"
    },
    {
      "inputs": [],
      "name": "admin",
      "outputs": [
        {
          "internalType": "address",
          "name": "",
          "type": "address"
        }
      ],
      "stateMutability": "view",
      "type": "function",
      "constant": true
    },
    {
      "inputs": [
        {
          "internalType": "uint256",
          "name": "",
          "type": "uint256"
        }
      ],
      "name": "colegioElectoral",
      "outputs": [
        {
          "internalType": "uint256",
          "name": "id",
          "type": "uint256"
        },
        {
          "internalType": "string",
          "name": "nombre",
          "type": "string"
        },
        {
          "internalType": "address",
          "name": "adminColegio",
          "type": "address"
        },
        {
          "internalType": "string",
          "name": "direccion",
          "type": "string"
        },
        {
          "internalType": "uint256",
          "name": "numeroMesas",
          "type": "uint256"
        },
        {
          "internalType": "uint256",
          "name": "numeroVotantes",
          "type": "uint256"
        },
        {
          "internalType": "uint256",
          "name": "numeroVotos",
          "type": "uint256"
        }
      ],
      "stateMutability": "view",
      "type": "function",
      "constant": true
    },
    {
      "inputs": [
        {
          "internalType": "uint256",
          "name": "",
          "type": "uint256"
        }
      ],
      "name": "colegios",
      "outputs": [
        {
          "internalType": "uint256",
          "name": "id",
          "type": "uint256"
        },
        {
          "internalType": "string",
          "name": "nombre",
          "type": "string"
        },
        {
          "internalType": "address",
          "name": "adminColegio",
          "type": "address"
        },
        {
          "internalType": "string",
          "name": "direccion",
          "type": "string"
        },
        {
          "internalType": "uint256",
          "name": "numeroMesas",
          "type": "uint256"
        },
        {
          "internalType": "uint256",
          "name": "numeroVotantes",
          "type": "uint256"
        },
        {
          "internalType": "uint256",
          "name": "numeroVotos",
          "type": "uint256"
        }
      ],
      "stateMutability": "view",
      "type": "function",
      "constant": true
    },
    {
      "inputs": [
        {
          "internalType": "uint256",
          "name": "",
          "type": "uint256"
        }
      ],
      "name": "datosMesa",
      "outputs": [
        {
          "internalType": "uint256",
          "name": "idColegio",
          "type": "uint256"
        },
        {
          "internalType": "uint256",
          "name": "numeroMesa",
          "type": "uint256"
        },
        {
          "internalType": "address",
          "name": "presidente",
          "type": "address"
        },
        {
          "internalType": "uint256",
          "name": "numeroVotantes",
          "type": "uint256"
        },
        {
          "internalType": "uint256",
          "name": "numeroVotos",
          "type": "uint256"
        },
        {
          "internalType": "bool",
          "name": "actaFirmada",
          "type": "bool"
        }
      ],
      "stateMutability": "view",
      "type": "function",
      "constant": true
    },
    {
      "inputs": [
        {
          "internalType": "string",
          "name": "",
          "type": "string"
        }
      ],
      "name": "datosPartidos",
      "outputs": [
        {
          "internalType": "string",
          "name": "nombre",
          "type": "string"
        },
        {
          "internalType": "uint256",
          "name": "votos",
          "type": "uint256"
        }
      ],
      "stateMutability": "view",
      "type": "function",
      "constant": true
    },
    {
      "inputs": [
        {
          "internalType": "address",
          "name": "",
          "type": "address"
        }
      ],
      "name": "datosVotante",
      "outputs": [
        {
          "internalType": "address",
          "name": "direccion",
          "type": "address"
        },
        {
          "internalType": "uint256",
          "name": "idColegio",
          "type": "uint256"
        },
        {
          "internalType": "uint256",
          "name": "numeroMesa",
          "type": "uint256"
        },
        {
          "internalType": "string",
          "name": "nombre",
          "type": "string"
        },
        {
          "internalType": "string",
          "name": "calle",
          "type": "string"
        },
        {
          "internalType": "string",
          "name": "dni",
          "type": "string"
        },
        {
          "internalType": "bool",
          "name": "votado",
          "type": "bool"
        }
      ],
      "stateMutability": "view",
      "type": "function",
      "constant": true
    },
    {
      "inputs": [
        {
          "internalType": "uint256",
          "name": "",
          "type": "uint256"
        },
        {
          "internalType": "uint256",
          "name": "",
          "type": "uint256"
        }
      ],
      "name": "mesaColegio",
      "outputs": [
        {
          "internalType": "uint256",
          "name": "",
          "type": "uint256"
        }
      ],
      "stateMutability": "view",
      "type": "function",
      "constant": true
    },
    {
      "inputs": [
        {
          "internalType": "uint256",
          "name": "",
          "type": "uint256"
        }
      ],
      "name": "mesas",
      "outputs": [
        {
          "internalType": "uint256",
          "name": "idColegio",
          "type": "uint256"
        },
        {
          "internalType": "uint256",
          "name": "numeroMesa",
          "type": "uint256"
        },
        {
          "internalType": "address",
          "name": "presidente",
          "type": "address"
        },
        {
          "internalType": "uint256",
          "name": "numeroVotantes",
          "type": "uint256"
        },
        {
          "internalType": "uint256",
          "name": "numeroVotos",
          "type": "uint256"
        },
        {
          "internalType": "bool",
          "name": "actaFirmada",
          "type": "bool"
        }
      ],
      "stateMutability": "view",
      "type": "function",
      "constant": true
    },
    {
      "inputs": [],
      "name": "nombre",
      "outputs": [
        {
          "internalType": "string",
          "name": "",
          "type": "string"
        }
      ],
      "stateMutability": "view",
      "type": "function",
      "constant": true
    },
    {
      "inputs": [
        {
          "internalType": "uint256",
          "name": "",
          "type": "uint256"
        }
      ],
      "name": "partidos",
      "outputs": [
        {
          "internalType": "string",
          "name": "",
          "type": "string"
        }
      ],
      "stateMutability": "view",
      "type": "function",
      "constant": true
    },
    {
      "inputs": [
        {
          "internalType": "uint256",
          "name": "",
          "type": "uint256"
        }
      ],
      "name": "presidentes",
      "outputs": [
        {
          "internalType": "address",
          "name": "",
          "type": "address"
        }
      ],
      "stateMutability": "view",
      "type": "function",
      "constant": true
    },
    {
      "inputs": [
        {
          "internalType": "uint256",
          "name": "",
          "type": "uint256"
        },
        {
          "internalType": "uint256",
          "name": "",
          "type": "uint256"
        }
      ],
      "name": "votanteMesa",
      "outputs": [
        {
          "internalType": "address",
          "name": "",
          "type": "address"
        }
      ],
      "stateMutability": "view",
      "type": "function",
      "constant": true
    },
    {
      "inputs": [
        {
          "internalType": "uint256",
          "name": "",
          "type": "uint256"
        }
      ],
      "name": "votantes",
      "outputs": [
        {
          "internalType": "address",
          "name": "",
          "type": "address"
        }
      ],
      "stateMutability": "view",
      "type": "function",
      "constant": true
    },
    {
      "inputs": [],
      "name": "year",
      "outputs": [
        {
          "internalType": "string",
          "name": "",
          "type": "string"
        }
      ],
      "stateMutability": "view",
      "type": "function",
      "constant": true
    },
    {
      "inputs": [
        {
          "internalType": "string",
          "name": "_nombrePartido",
          "type": "string"
        }
      ],
      "name": "creaPartido",
      "outputs": [
        {
          "internalType": "uint256",
          "name": "",
          "type": "uint256"
        }
      ],
      "stateMutability": "nonpayable",
      "type": "function"
    },
    {
      "inputs": [],
      "name": "partidosLength",
      "outputs": [
        {
          "internalType": "uint256",
          "name": "",
          "type": "uint256"
        }
      ],
      "stateMutability": "view",
      "type": "function",
      "constant": true
    },
    {
      "inputs": [
        {
          "internalType": "address",
          "name": "_direccion",
          "type": "address"
        },
        {
          "internalType": "uint256",
          "name": "_numeroMesa",
          "type": "uint256"
        },
        {
          "internalType": "string",
          "name": "_nombre",
          "type": "string"
        },
        {
          "internalType": "string",
          "name": "_calle",
          "type": "string"
        },
        {
          "internalType": "string",
          "name": "_dni",
          "type": "string"
        }
      ],
      "name": "creaVotante",
      "outputs": [],
      "stateMutability": "nonpayable",
      "type": "function"
    },
    {
      "inputs": [],
      "name": "votantesLength",
      "outputs": [
        {
          "internalType": "uint256",
          "name": "",
          "type": "uint256"
        }
      ],
      "stateMutability": "view",
      "type": "function",
      "constant": true
    },
    {
      "inputs": [
        {
          "internalType": "address",
          "name": "_direccionVotante",
          "type": "address"
        },
        {
          "internalType": "string",
          "name": "_partido",
          "type": "string"
        }
      ],
      "name": "votaPartido",
      "outputs": [],
      "stateMutability": "nonpayable",
      "type": "function"
    },
    {
      "inputs": [
        {
          "internalType": "uint256",
          "name": "_idColegio",
          "type": "uint256"
        }
      ],
      "name": "creaMesa",
      "outputs": [],
      "stateMutability": "nonpayable",
      "type": "function"
    },
    {
      "inputs": [],
      "name": "mesasLength",
      "outputs": [
        {
          "internalType": "uint256",
          "name": "",
          "type": "uint256"
        }
      ],
      "stateMutability": "view",
      "type": "function",
      "constant": true
    },
    {
      "inputs": [
        {
          "internalType": "uint256",
          "name": "id",
          "type": "uint256"
        },
        {
          "internalType": "string",
          "name": "_nombre",
          "type": "string"
        },
        {
          "internalType": "string",
          "name": "_direccion",
          "type": "string"
        }
      ],
      "name": "creaColegio",
      "outputs": [],
      "stateMutability": "nonpayable",
      "type": "function"
    },
    {
      "inputs": [
        {
          "internalType": "address",
          "name": "_direccionPresidente",
          "type": "address"
        },
        {
          "internalType": "uint256",
          "name": "_numeroMesa",
          "type": "uint256"
        }
      ],
      "name": "asignaPresidenteMesa",
      "outputs": [],
      "stateMutability": "nonpayable",
      "type": "function"
    }
  ],
  "bytecode": "0x60806040523480156200001157600080fd5b5060405162003c2e38038062003c2e833981810160405260408110156200003757600080fd5b81019080805160405193929190846401000000008211156200005857600080fd5b838201915060208201858111156200006f57600080fd5b82518660018202830111640100000000821117156200008d57600080fd5b8083526020830192505050908051906020019080838360005b83811015620000c3578082015181840152602081019050620000a6565b50505050905090810190601f168015620000f15780820380516001836020036101000a031916815260200191505b50604052602001805160405193929190846401000000008211156200011557600080fd5b838201915060208201858111156200012c57600080fd5b82518660018202830111640100000000821117156200014a57600080fd5b8083526020830192505050908051906020019080838360005b838110156200018057808201518184015260208101905062000163565b50505050905090810190601f168015620001ae5780820380516001836020036101000a031916815260200191505b50604052505050606082905060008151141562000217576040517f08c379a000000000000000000000000000000000000000000000000000000000815260040180806020018281038252603281526020018062003bfc6032913960400191505060405180910390fd5b606082905060008151141562000279576040517f08c379a000000000000000000000000000000000000000000000000000000000815260040180806020018281038252603081526020018062003bcc6030913960400191505060405180910390fd5b336000806101000a81548173ffffffffffffffffffffffffffffffffffffffff021916908373ffffffffffffffffffffffffffffffffffffffff1602179055508360019080519060200190620002d1929190620002f5565b508260029080519060200190620002ea929190620002f5565b5050505050620003ab565b828054600181600116156101000203166002900490600052602060002090601f0160209004810192826200032d576000855562000379565b82601f106200034857805160ff191683800117855562000379565b8280016001018555821562000379579182015b82811115620003785782518255916020019190600101906200035b565b5b5090506200038891906200038c565b5090565b5b80821115620003a75760008160009055506001016200038d565b5090565b61381180620003bb6000396000f3fe608060405234801561001057600080fd5b506004361061014d5760003560e01c806347d5c1f4116100c3578063d8f0d1c21161007c578063d8f0d1c214610b68578063e0e2e8f214610c37578063ef69e4b914610e00578063f326971614610e4c578063f851a44014610ecf578063fd9dc95c14610f035761014d565b806347d5c1f4146107545780635b94ea10146108b0578063aacca74e1461092d578063bc7b35b21461094b578063c5c204e3146109ce578063d88e70e414610b1a5761014d565b80632519accb116101155780632519accb146104425780632e03f838146104605780633463574f146104b8578063369061d8146105f357806338bfab431461065557806340deb070146106ad5761014d565b8063027c8487146101525780630c57c4fa146101805780630d38bdfd1461025b5780630e2386f9146103a75780631c760e0e146103c5575b600080fd5b61017e6004803603602081101561016857600080fd5b8101908080359060200190929190505050611116565b005b6102596004803603604081101561019657600080fd5b81019080803573ffffffffffffffffffffffffffffffffffffffff169060200190929190803590602001906401000000008111156101d357600080fd5b8201836020820111156101e557600080fd5b8035906020019184600183028401116401000000008311171561020757600080fd5b91908080601f016020809104026020016040519081016040528093929190818152602001838380828437600081840152601f19601f8201169050808301925050505050505091929192905050506114e2565b005b6102876004803603602081101561027157600080fd5b810190808035906020019092919050505061193a565b60405180888152602001806020018773ffffffffffffffffffffffffffffffffffffffff16815260200180602001868152602001858152602001848152602001838103835289818151815260200191508051906020019080838360005b838110156102ff5780820151818401526020810190506102e4565b50505050905090810190601f16801561032c5780820380516001836020036101000a031916815260200191505b50838103825287818151815260200191508051906020019080838360005b8381101561036557808201518184015260208101905061034a565b50505050905090810190601f1680156103925780820380516001836020036101000a031916815260200191505b50995050505050505050505060405180910390f35b6103af611adc565b6040518082815260200191505060405180910390f35b6103f1600480360360208110156103db57600080fd5b8101908080359060200190929190505050611ae9565b604051808781526020018681526020018573ffffffffffffffffffffffffffffffffffffffff1681526020018481526020018381526020018215158152602001965050505050505060405180910390f35b61044a611b52565b6040518082815260200191505060405180910390f35b61048c6004803603602081101561047657600080fd5b8101908080359060200190929190505050611b5f565b604051808273ffffffffffffffffffffffffffffffffffffffff16815260200191505060405180910390f35b610571600480360360208110156104ce57600080fd5b81019080803590602001906401000000008111156104eb57600080fd5b8201836020820111156104fd57600080fd5b8035906020019184600183028401116401000000008311171561051f57600080fd5b91908080601f016020809104026020016040519081016040528093929190818152602001838380828437600081840152601f19601f820116905080830192505050505050509192919290505050611b9e565b6040518080602001838152602001828103825284818151815260200191508051906020019080838360005b838110156105b757808201518184015260208101905061059c565b50505050905090810190601f1680156105e45780820380516001836020036101000a031916815260200191505b50935050505060405180910390f35b6106296004803603604081101561060957600080fd5b810190808035906020019092919080359060200190929190505050611c70565b604051808273ffffffffffffffffffffffffffffffffffffffff16815260200191505060405180910390f35b6106816004803603602081101561066b57600080fd5b8101908080359060200190929190505050611cbe565b604051808273ffffffffffffffffffffffffffffffffffffffff16815260200191505060405180910390f35b6106d9600480360360208110156106c357600080fd5b8101908080359060200190929190505050611cfd565b6040518080602001828103825283818151815260200191508051906020019080838360005b838110156107195780820151818401526020810190506106fe565b50505050905090810190601f1680156107465780820380516001836020036101000a031916815260200191505b509250505060405180910390f35b6108ae6004803603606081101561076a57600080fd5b81019080803590602001909291908035906020019064010000000081111561079157600080fd5b8201836020820111156107a357600080fd5b803590602001918460018302840111640100000000831117156107c557600080fd5b91908080601f016020809104026020016040519081016040528093929190818152602001838380828437600081840152601f19601f8201169050808301925050505050505091929192908035906020019064010000000081111561082857600080fd5b82018360208201111561083a57600080fd5b8035906020019184600183028401116401000000008311171561085c57600080fd5b91908080601f016020809104026020016040519081016040528093929190818152602001838380828437600081840152601f19601f820116905080830192505050505050509192919290505050611db9565b005b6108dc600480360360208110156108c657600080fd5b8101908080359060200190929190505050612217565b604051808781526020018681526020018573ffffffffffffffffffffffffffffffffffffffff1681526020018481526020018381526020018215158152602001965050505050505060405180910390f35b610935612290565b6040518082815260200191505060405180910390f35b61095361229d565b6040518080602001828103825283818151815260200191508051906020019080838360005b83811015610993578082015181840152602081019050610978565b50505050905090810190601f1680156109c05780820380516001836020036101000a031916815260200191505b509250505060405180910390f35b6109fa600480360360208110156109e457600080fd5b810190808035906020019092919050505061233b565b60405180888152602001806020018773ffffffffffffffffffffffffffffffffffffffff16815260200180602001868152602001858152602001848152602001838103835289818151815260200191508051906020019080838360005b83811015610a72578082015181840152602081019050610a57565b50505050905090810190601f168015610a9f5780820380516001836020036101000a031916815260200191505b50838103825287818151815260200191508051906020019080838360005b83811015610ad8578082015181840152602081019050610abd565b50505050905090810190601f168015610b055780820380516001836020036101000a031916815260200191505b50995050505050505050505060405180910390f35b610b6660048036036040811015610b3057600080fd5b81019080803573ffffffffffffffffffffffffffffffffffffffff169060200190929190803590602001909291905050506124cd565b005b610c2160048036036020811015610b7e57600080fd5b8101908080359060200190640100000000811115610b9b57600080fd5b820183602082011115610bad57600080fd5b80359060200191846001830284011164010000000083111715610bcf57600080fd5b91908080601f016020809104026020016040519081016040528093929190818152602001838380828437600081840152601f19601f8201169050808301925050505050505091929192905050506126a7565b6040518082815260200191505060405180910390f35b610c7960048036036020811015610c4d57600080fd5b81019080803573ffffffffffffffffffffffffffffffffffffffff169060200190929190505050612950565b604051808873ffffffffffffffffffffffffffffffffffffffff1681526020018781526020018681526020018060200180602001806020018515158152602001848103845288818151815260200191508051906020019080838360005b83811015610cf1578082015181840152602081019050610cd6565b50505050905090810190601f168015610d1e5780820380516001836020036101000a031916815260200191505b50848103835287818151815260200191508051906020019080838360005b83811015610d57578082015181840152602081019050610d3c565b50505050905090810190601f168015610d845780820380516001836020036101000a031916815260200191505b50848103825286818151815260200191508051906020019080838360005b83811015610dbd578082015181840152602081019050610da2565b50505050905090810190601f168015610dea5780820380516001836020036101000a031916815260200191505b509a505050505050505050505060405180910390f35b610e3660048036036040811015610e1657600080fd5b810190808035906020019092919080359060200190929190505050612b87565b6040518082815260200191505060405180910390f35b610e54612bb8565b6040518080602001828103825283818151815260200191508051906020019080838360005b83811015610e94578082015181840152602081019050610e79565b50505050905090810190601f168015610ec15780820380516001836020036101000a031916815260200191505b509250505060405180910390f35b610ed7612c56565b604051808273ffffffffffffffffffffffffffffffffffffffff16815260200191505060405180910390f35b611114600480360360a0811015610f1957600080fd5b81019080803573ffffffffffffffffffffffffffffffffffffffff1690602001909291908035906020019092919080359060200190640100000000811115610f6057600080fd5b820183602082011115610f7257600080fd5b80359060200191846001830284011164010000000083111715610f9457600080fd5b91908080601f016020809104026020016040519081016040528093929190818152602001838380828437600081840152601f19601f82011690508083019250505050505050919291929080359060200190640100000000811115610ff757600080fd5b82018360208201111561100957600080fd5b8035906020019184600183028401116401000000008311171561102b57600080fd5b91908080601f016020809104026020016040519081016040528093929190818152602001838380828437600081840152601f19601f8201169050808301925050505050505091929192908035906020019064010000000081111561108e57600080fd5b8201836020820111156110a057600080fd5b803590602001918460018302840111640100000000831117156110c257600080fd5b91908080601f016020809104026020016040519081016040528093929190818152602001838380828437600081840152601f19601f820116905080830192505050505050509192919290505050612c7a565b005b60008054906101000a900473ffffffffffffffffffffffffffffffffffffffff1673ffffffffffffffffffffffffffffffffffffffff163373ffffffffffffffffffffffffffffffffffffffff16146111d7576040517f08c379a000000000000000000000000000000000000000000000000000000000815260040180806020018281038252601f8152602001807f536f6c6f207065726d697469646f20616c2061646d696e6973747261646f720081525060200191505060405180910390fd5b60008060008060008214611236576040517f08c379a000000000000000000000000000000000000000000000000000000000815260040180806020018281038252602781526020018061373c6027913960400191505060405180910390fd5b6000831461128f576040517f08c379a000000000000000000000000000000000000000000000000000000000815260040180806020018281038252602a8152602001806137b2602a913960400191505060405180910390fd5b600060068054905090506112a1613580565b6040518060c001604052808881526020018381526020018773ffffffffffffffffffffffffffffffffffffffff168152602001868152602001858152602001841515815250905080600a6000848152602001908152602001600020600082015181600001556020820151816001015560408201518160020160006101000a81548173ffffffffffffffffffffffffffffffffffffffff021916908373ffffffffffffffffffffffffffffffffffffffff160217905550606082015181600301556080820151816004015560a08201518160050160006101000a81548160ff0219169083151502179055509050506006819080600181540180825580915050600190039060005260206000209060060201600090919091909150600082015181600001556020820151816001015560408201518160020160006101000a81548173ffffffffffffffffffffffffffffffffffffffff021916908373ffffffffffffffffffffffffffffffffffffffff160217905550606082015181600301556080820151816004015560a08201518160050160006101000a81548160ff0219169083151502179055505050600c60008881526020019081526020016000208290806001815401808255809150506001900390600052602060002001600090919091909150556007878154811061149257fe5b906000526020600020906007020160040160008154809291906001019190505550600b60008881526020019081526020016000206004016000815480929190600101919050555050505050505050565b600115156114ef826132a3565b151514611564576040517f08c379a00000000000000000000000000000000000000000000000000000000081526004018080602001828103825260148152602001807f456c207061727469646f206e6f2065786973746500000000000000000000000081525060200191505060405180910390fd5b60011515611571836133c2565b1515146115e6576040517f08c379a00000000000000000000000000000000000000000000000000000000081526004018080602001828103825260148152602001807f456c20766f74616e7465206e6f2065786973746500000000000000000000000081525060200191505060405180910390fd5b60001515600860008473ffffffffffffffffffffffffffffffffffffffff1673ffffffffffffffffffffffffffffffffffffffff16815260200190815260200160002060060160009054906101000a900460ff161515146116af576040517f08c379a00000000000000000000000000000000000000000000000000000000081526004018080602001828103825260178152602001807f456c20766f74616e746520796120686120766f7461646f00000000000000000081525060200191505060405180910390fd5b6009816040518082805190602001908083835b602083106116e557805182526020820191506020810190506020830392506116c2565b6001836020036101000a0380198251168184511680821785525050505050509050019150509081526020016040518091039020600101600081548092919060010191905055506001600860008473ffffffffffffffffffffffffffffffffffffffff1673ffffffffffffffffffffffffffffffffffffffff16815260200190815260200160002060060160006101000a81548160ff0219169083151502179055506006600860008473ffffffffffffffffffffffffffffffffffffffff1673ffffffffffffffffffffffffffffffffffffffff16815260200190815260200160002060020154815481106117d557fe5b906000526020600020906006020160040160008154809291906001019190505550600a6000600860008573ffffffffffffffffffffffffffffffffffffffff1673ffffffffffffffffffffffffffffffffffffffff168152602001908152602001600020600201548152602001908152602001600020600401600081548092919060010191905055506007600860008473ffffffffffffffffffffffffffffffffffffffff1673ffffffffffffffffffffffffffffffffffffffff16815260200190815260200160002060010154815481106118ad57fe5b906000526020600020906007020160060160008154809291906001019190505550600b6000600860008573ffffffffffffffffffffffffffffffffffffffff1673ffffffffffffffffffffffffffffffffffffffff168152602001908152602001600020600101548152602001908152602001600020600601600081548092919060010191905055505050565b6007818154811061194a57600080fd5b9060005260206000209060070201600091509050806000015490806001018054600181600116156101000203166002900480601f0160208091040260200160405190810160405280929190818152602001828054600181600116156101000203166002900480156119fc5780601f106119d1576101008083540402835291602001916119fc565b820191906000526020600020905b8154815290600101906020018083116119df57829003601f168201915b5050505050908060020160009054906101000a900473ffffffffffffffffffffffffffffffffffffffff1690806003018054600181600116156101000203166002900480601f016020809104026020016040519081016040528092919081815260200182805460018160011615610100020316600290048015611ac05780601f10611a9557610100808354040283529160200191611ac0565b820191906000526020600020905b815481529060010190602001808311611aa357829003601f168201915b5050505050908060040154908060050154908060060154905087565b6000600380549050905090565b600a6020528060005260406000206000915090508060000154908060010154908060020160009054906101000a900473ffffffffffffffffffffffffffffffffffffffff16908060030154908060040154908060050160009054906101000a900460ff16905086565b6000600680549050905090565b60038181548110611b6f57600080fd5b906000526020600020016000915054906101000a900473ffffffffffffffffffffffffffffffffffffffff1681565b600981805160208101820180518482526020830160208501208183528095505050505050600091509050806000018054600181600116156101000203166002900480601f016020809104026020016040519081016040528092919081815260200182805460018160011615610100020316600290048015611c605780601f10611c3557610100808354040283529160200191611c60565b820191906000526020600020905b815481529060010190602001808311611c4357829003601f168201915b5050505050908060010154905082565b600d6020528160005260406000208181548110611c8c57600080fd5b906000526020600020016000915091509054906101000a900473ffffffffffffffffffffffffffffffffffffffff1681565b60058181548110611cce57600080fd5b906000526020600020016000915054906101000a900473ffffffffffffffffffffffffffffffffffffffff1681565b60048181548110611d0d57600080fd5b906000526020600020016000915090508054600181600116156101000203166002900480601f016020809104026020016040519081016040528092919081815260200182805460018160011615610100020316600290048015611db15780601f10611d8657610100808354040283529160200191611db1565b820191906000526020600020905b815481529060010190602001808311611d9457829003601f168201915b505050505081565b60008054906101000a900473ffffffffffffffffffffffffffffffffffffffff1673ffffffffffffffffffffffffffffffffffffffff163373ffffffffffffffffffffffffffffffffffffffff1614611e7a576040517f08c379a000000000000000000000000000000000000000000000000000000000815260040180806020018281038252601f8152602001807f536f6c6f207065726d697469646f20616c2061646d696e6973747261646f720081525060200191505060405180910390fd5b60008060009054906101000a900473ffffffffffffffffffffffffffffffffffffffff16905060008060006060869050600081511415611f22576040517f08c379a000000000000000000000000000000000000000000000000000000000815260040180806020018281038252601c8152602001807f456c206e6f6d627265206e6f2070756564652073657220766163696f0000000081525060200191505060405180910390fd5b6060869050600081511415611f9f576040517f08c379a000000000000000000000000000000000000000000000000000000000815260040180806020018281038252601c8152602001807f456c206e6f6d627265206e6f2070756564652073657220766163696f0000000081525060200191505060405180910390fd5b60001515611fac8a6134b7565b151514612021576040517f08c379a00000000000000000000000000000000000000000000000000000000081526004018080602001828103825260148152602001807f456c20636f6c6567696f2079612065786973746500000000000000000000000081525060200191505060405180910390fd5b6120296135ce565b6040518060e001604052808b81526020018a81526020018873ffffffffffffffffffffffffffffffffffffffff16815260200189815260200187815260200186815260200185815250905080600b60008c81526020019081526020016000206000820151816000015560208201518160010190805190602001906120ae929190613621565b5060408201518160020160006101000a81548173ffffffffffffffffffffffffffffffffffffffff021916908373ffffffffffffffffffffffffffffffffffffffff1602179055506060820151816003019080519060200190612112929190613621565b506080820151816004015560a0820151816005015560c082015181600601559050506007819080600181540180825580915050600190039060005260206000209060070201600090919091909150600082015181600001556020820151816001019080519060200190612186929190613621565b5060408201518160020160006101000a81548173ffffffffffffffffffffffffffffffffffffffff021916908373ffffffffffffffffffffffffffffffffffffffff16021790555060608201518160030190805190602001906121ea929190613621565b506080820151816004015560a0820151816005015560c08201518160060155505050505050505050505050565b6006818154811061222757600080fd5b90600052602060002090600602016000915090508060000154908060010154908060020160009054906101000a900473ffffffffffffffffffffffffffffffffffffffff16908060030154908060040154908060050160009054906101000a900460ff16905086565b6000600480549050905090565b60018054600181600116156101000203166002900480601f0160208091040260200160405190810160405280929190818152602001828054600181600116156101000203166002900480156123335780601f1061230857610100808354040283529160200191612333565b820191906000526020600020905b81548152906001019060200180831161231657829003601f168201915b505050505081565b600b602052806000526040600020600091509050806000015490806001018054600181600116156101000203166002900480601f0160208091040260200160405190810160405280929190818152602001828054600181600116156101000203166002900480156123ed5780601f106123c2576101008083540402835291602001916123ed565b820191906000526020600020905b8154815290600101906020018083116123d057829003601f168201915b5050505050908060020160009054906101000a900473ffffffffffffffffffffffffffffffffffffffff1690806003018054600181600116156101000203166002900480601f0160208091040260200160405190810160405280929190818152602001828054600181600116156101000203166002900480156124b15780601f10612486576101008083540402835291602001916124b1565b820191906000526020600020905b81548152906001019060200180831161249457829003601f168201915b5050505050908060040154908060050154908060060154905087565b60008054906101000a900473ffffffffffffffffffffffffffffffffffffffff1673ffffffffffffffffffffffffffffffffffffffff163373ffffffffffffffffffffffffffffffffffffffff161461258e576040517f08c379a000000000000000000000000000000000000000000000000000000000815260040180806020018281038252601f8152602001807f536f6c6f207065726d697469646f20616c2061646d696e6973747261646f720081525060200191505060405180910390fd5b81600a600083815260200190815260200160002060020160006101000a81548173ffffffffffffffffffffffffffffffffffffffff021916908373ffffffffffffffffffffffffffffffffffffffff16021790555081600682815481106125f157fe5b906000526020600020906006020160020160006101000a81548173ffffffffffffffffffffffffffffffffffffffff021916908373ffffffffffffffffffffffffffffffffffffffff1602179055506005829080600181540180825580915050600190039060005260206000200160009091909190916101000a81548173ffffffffffffffffffffffffffffffffffffffff021916908373ffffffffffffffffffffffffffffffffffffffff1602179055505050565b60008060009054906101000a900473ffffffffffffffffffffffffffffffffffffffff1673ffffffffffffffffffffffffffffffffffffffff163373ffffffffffffffffffffffffffffffffffffffff161461276b576040517f08c379a000000000000000000000000000000000000000000000000000000000815260040180806020018281038252601f8152602001807f536f6c6f207065726d697469646f20616c2061646d696e6973747261646f720081525060200191505060405180910390fd5b60608290506000815114156127cb576040517f08c379a000000000000000000000000000000000000000000000000000000000815260040180806020018281038252602a815260200180613788602a913960400191505060405180910390fd5b60008015156127d9856132a3565b15151461284e576040517f08c379a00000000000000000000000000000000000000000000000000000000081526004018080602001828103825260148152602001807f456c207061727469646f2079612065786973746500000000000000000000000081525060200191505060405180910390fd5b6128566136af565b6040518060400160405280868152602001838152509050806009866040518082805190602001908083835b602083106128a45780518252602082019150602081019050602083039250612881565b6001836020036101000a038019825116818451168082178552505050505050905001915050908152602001604051809103902060008201518160000190805190602001906128f3929190613621565b506020820151816001015590505060048590806001815401808255809150506001900390600052602060002001600090919091909150908051906020019061293c929190613621565b506001600480549050039350505050919050565b60086020528060005260406000206000915090508060000160009054906101000a900473ffffffffffffffffffffffffffffffffffffffff1690806001015490806002015490806003018054600181600116156101000203166002900480601f016020809104026020016040519081016040528092919081815260200182805460018160011615610100020316600290048015612a2e5780601f10612a0357610100808354040283529160200191612a2e565b820191906000526020600020905b815481529060010190602001808311612a1157829003601f168201915b505050505090806004018054600181600116156101000203166002900480601f016020809104026020016040519081016040528092919081815260200182805460018160011615610100020316600290048015612acc5780601f10612aa157610100808354040283529160200191612acc565b820191906000526020600020905b815481529060010190602001808311612aaf57829003601f168201915b505050505090806005018054600181600116156101000203166002900480601f016020809104026020016040519081016040528092919081815260200182805460018160011615610100020316600290048015612b6a5780601f10612b3f57610100808354040283529160200191612b6a565b820191906000526020600020905b815481529060010190602001808311612b4d57829003601f168201915b5050505050908060060160009054906101000a900460ff16905087565b600c6020528160005260406000208181548110612ba357600080fd5b90600052602060002001600091509150505481565b60028054600181600116156101000203166002900480601f016020809104026020016040519081016040528092919081815260200182805460018160011615610100020316600290048015612c4e5780601f10612c2357610100808354040283529160200191612c4e565b820191906000526020600020905b815481529060010190602001808311612c3157829003601f168201915b505050505081565b60008054906101000a900473ffffffffffffffffffffffffffffffffffffffff1681565b60008054906101000a900473ffffffffffffffffffffffffffffffffffffffff1673ffffffffffffffffffffffffffffffffffffffff163373ffffffffffffffffffffffffffffffffffffffff1614612d3b576040517f08c379a000000000000000000000000000000000000000000000000000000000815260040180806020018281038252601f8152602001807f536f6c6f207065726d697469646f20616c2061646d696e6973747261646f720081525060200191505060405180910390fd5b6060839050600081511415612db8576040517f08c379a000000000000000000000000000000000000000000000000000000000815260040180806020018281038252601c8152602001807f456c206e6f6d627265206e6f2070756564652073657220766163696f0000000081525060200191505060405180910390fd5b6060839050600081511415612e35576040517f08c379a000000000000000000000000000000000000000000000000000000000815260040180806020018281038252601b8152602001807f4c612063616c6c65206e6f2070756564652073657220766163696f000000000081525060200191505060405180910390fd5b6060859050600081511415612eb2576040517f08c379a00000000000000000000000000000000000000000000000000000000081526004018080602001828103825260198152602001807f456c20444e49206e6f2070756564652073657220766163696f0000000000000081525060200191505060405180910390fd5b6000801515612ec08a6133c2565b151514612f35576040517f08c379a00000000000000000000000000000000000000000000000000000000081526004018080602001828103825260148152602001807f456c20636f6c6567696f2079612065786973746500000000000000000000000081525060200191505060405180910390fd5b6000151581151514612f92576040517f08c379a00000000000000000000000000000000000000000000000000000000081526004018080602001828103825260258152602001806137636025913960400191505060405180910390fd5b6000600a60008a8152602001908152602001600020600001549050612fb56136c9565b6040518060e001604052808c73ffffffffffffffffffffffffffffffffffffffff1681526020018381526020018b81526020018a8152602001898152602001888152602001841515815250905080600860008d73ffffffffffffffffffffffffffffffffffffffff1673ffffffffffffffffffffffffffffffffffffffff16815260200190815260200160002060008201518160000160006101000a81548173ffffffffffffffffffffffffffffffffffffffff021916908373ffffffffffffffffffffffffffffffffffffffff160217905550602082015181600101556040820151816002015560608201518160030190805190602001906130b9929190613621565b5060808201518160040190805190602001906130d6929190613621565b5060a08201518160050190805190602001906130f3929190613621565b5060c08201518160060160006101000a81548160ff02191690831515021790555090505060038b9080600181540180825580915050600190039060005260206000200160009091909190916101000a81548173ffffffffffffffffffffffffffffffffffffffff021916908373ffffffffffffffffffffffffffffffffffffffff160217905550600d60008b81526020019081526020016000208b9080600181540180825580915050600190039060005260206000200160009091909190916101000a81548173ffffffffffffffffffffffffffffffffffffffff021916908373ffffffffffffffffffffffffffffffffffffffff16021790555060068a815481106131fb57fe5b906000526020600020906006020160030160008154809291906001019190505550600a60008b8152602001908152602001600020600301600081548092919060010191905055506007828154811061324f57fe5b906000526020600020906007020160050160008154809291906001019190505550600b6000838152602001908152602001600020600501600081548092919060010191905055505050505050505050505050565b600060606009836040518082805190602001908083835b602083106132dd57805182526020820191506020810190506020830392506132ba565b6001836020036101000a03801982511681845116808217855250505050505090500191505090815260200160405180910390206000018054600181600116156101000203166002900480601f0160208091040260200160405190810160405280929190818152602001828054600181600116156101000203166002900480156133a75780601f1061337c576101008083540402835291602001916133a7565b820191906000526020600020905b81548152906001019060200180831161338a57829003601f168201915b50505050509050606081905060008151141592505050919050565b60006060600860008473ffffffffffffffffffffffffffffffffffffffff1673ffffffffffffffffffffffffffffffffffffffff1681526020019081526020016000206003018054600181600116156101000203166002900480601f01602080910402602001604051908101604052809291908181526020018280546001816001161561010002031660029004801561349c5780601f106134715761010080835404028352916020019161349c565b820191906000526020600020905b81548152906001019060200180831161347f57829003601f168201915b50505050509050606081905060008151141592505050919050565b60006060600b60008481526020019081526020016000206001018054600181600116156101000203166002900480601f0160208091040260200160405190810160405280929190818152602001828054600181600116156101000203166002900480156135655780601f1061353a57610100808354040283529160200191613565565b820191906000526020600020905b81548152906001019060200180831161354857829003601f168201915b50505050509050606081905060008151141592505050919050565b6040518060c001604052806000815260200160008152602001600073ffffffffffffffffffffffffffffffffffffffff16815260200160008152602001600081526020016000151581525090565b6040518060e001604052806000815260200160608152602001600073ffffffffffffffffffffffffffffffffffffffff168152602001606081526020016000815260200160008152602001600081525090565b828054600181600116156101000203166002900490600052602060002090601f016020900481019282613657576000855561369e565b82601f1061367057805160ff191683800117855561369e565b8280016001018555821561369e579182015b8281111561369d578251825591602001919060010190613682565b5b5090506136ab919061371e565b5090565b604051806040016040528060608152602001600081525090565b6040518060e00160405280600073ffffffffffffffffffffffffffffffffffffffff16815260200160008152602001600081526020016060815260200160608152602001606081526020016000151581525090565b5b8082111561373757600081600090555060010161371f565b509056fe456c206e756d65726f20646520766f746f7320696e696369616c65732064656265207365722030456c207573756172696f206e7565766f206e6f206465626520686162657220766f7461646f456c206e6f6d6272652064656c207061727469646f206e6f20707565646520657374617220766163696f456c206e756d65726f20646520766f74616e74657320696e696369616c65732064656265207365722030a26469706673582212207faafc4a14065806a271f81f7b1dc20abd3ad4f23f4ed6bd05ccaaca7e82a9fb64736f6c63430007040033456c207965617220646520657374617320656c656363696f6e6573206e6f20707565646520657374617220766163696f456c206e6f6d62726520646520657374617320656c656363696f6e6573206e6f20707565646520657374617220766163696f",
  "immutableReferences": {},
  "source": "// SPDX-License-Identifier: UNLICENSED\r\npragma solidity ^0.7.4;\r\n\r\ncontract Elecciones {\r\n    \r\n    address public admin;\r\n    \r\n    string public nombre;\r\n    \r\n    string public year;\r\n    \r\n    \r\n    //Pensar si meter idColegio e idMesa aqu\r\n    struct DatosVotante{\r\n        address direccion;\r\n        uint idColegio;\r\n        uint numeroMesa;\r\n        string nombre;\r\n        string calle;\r\n        string dni;\r\n        bool votado;\r\n    }\r\n    \r\n    struct Partido{\r\n        string nombre;\r\n        uint votos;\r\n    }\r\n    \r\n    \r\n    //Como crear array dentro de struct\r\n  struct ColegioElectoral{\r\n      uint id;\r\n      string nombre;\r\n      address adminColegio;\r\n      string direccion;\r\n      uint numeroMesas;\r\n      uint numeroVotantes;\r\n      uint numeroVotos;\r\n  }\r\n    \r\n        \r\n  struct Mesa{\r\n      uint idColegio;\r\n      uint numeroMesa;\r\n      address presidente;\r\n      uint numeroVotantes;\r\n      uint numeroVotos;\r\n      bool actaFirmada;\r\n  }\r\n    \r\n    \r\n  \r\n    //Arrays con el total de votantes, partidos, presidentes ...\r\n    address[] public votantes;\r\n    string[] public partidos;\r\n    address[] public presidentes;\r\n    Mesa[] public mesas;\r\n    ColegioElectoral[] public colegios;\r\n    \r\n    \r\n    \r\n    mapping( address => DatosVotante) public datosVotante;\r\n    mapping( string => Partido) public datosPartidos;\r\n    mapping( uint => Mesa) public datosMesa;\r\n    mapping( uint => ColegioElectoral) public colegioElectoral;\r\n    //array que dado el indice de colegio, devuelve un array con los numeros de mesa de ese colegio.\r\n    mapping( uint => uint[]) public mesaColegio;\r\n    //array que dado un numero de mesa, te devuelve un array de direcciones de sus votantes.\r\n    mapping( uint => address[]) public votanteMesa;\r\n\r\nconstructor(string memory _nombre, string memory _year){\r\n    \r\n    bytes memory bn = bytes(_nombre);\r\n    require(bn.length != 0, \"El nombre de estas elecciones no puede estar vacio\");\r\n    \r\n    bytes memory ba = bytes(_year);\r\n    require(ba.length !=0, \"El year de estas elecciones no puede estar vacio\");\r\n    \r\n    admin= msg.sender;\r\n    nombre= _nombre;\r\n    year= _year;\r\n    \r\n}\r\n\r\nmodifier onlyAdmin() {\r\n    require(msg.sender == admin ,\"Solo permitido al administrador\");\r\n    \r\n    _;\r\n}\r\n\r\nfunction creaPartido(string memory _nombrePartido) onlyAdmin public returns(uint){\r\n    bytes memory bn = bytes(_nombrePartido);\r\n    require(bn.length != 0, \"El nombre del partido no puede estar vacio\");\r\n    uint _votosIniciales = 0;\r\n    \r\n    require(partidoExiste(_nombrePartido) == false,\"El partido ya existe\");\r\n    \r\n    Partido memory datos= Partido(_nombrePartido,_votosIniciales);\r\n    datosPartidos[_nombrePartido]=datos;\r\n    partidos.push(_nombrePartido);\r\n    //partidos.push(Partido(_nombre,_votosIniciales));\r\n    return partidos.length-1;\r\n}\r\n\r\nfunction partidosLength() public view returns(uint) {\r\n        return partidos.length;\r\n    }\r\n    \r\nfunction partidoExiste(string memory _nombrePartido) private view returns(bool){\r\n         string memory _bnombre = datosPartidos[_nombrePartido].nombre;\r\n         \r\n         bytes memory b = bytes(_bnombre);\r\n         \r\n         return b.length != 0 ;\r\n     }\r\n\r\nfunction creaVotante(address _direccion,uint _numeroMesa, string memory _nombre, string memory _calle,string memory _dni) onlyAdmin public {\r\n        \r\n        \r\n        \r\n        bytes memory bn = bytes(_nombre);\r\n        require(bn.length != 0, \"El nombre no puede ser vacio\");\r\n        \r\n        bytes memory bc = bytes(_calle);\r\n        require(bc.length != 0, \"La calle no puede ser vacio\");\r\n        \r\n        bytes memory bdni = bytes(_nombre);\r\n        require(bdni.length != 0, \"El DNI no puede ser vacio\");\r\n        \r\n        bool _votado = false;\r\n        \r\n        require(votanteExiste(_direccion) == false,\"El colegio ya existe\");\r\n        require(_votado == false, \"El usuario nuevo no debe haber votado\");\r\n        \r\n        uint _idColegio = datosMesa[_numeroMesa].idColegio;\r\n       \r\n        //creamos el nuevo votante con sus parametros iniciales\r\n        DatosVotante memory datos = DatosVotante(_direccion,_idColegio,_numeroMesa,_nombre, _calle,_dni,_votado);\r\n        datosVotante[_direccion]=(datos);\r\n        \r\n        //metemos el votante en el array global con todos los votantes, y luego en el arrya que asigna numero de mesa a votantes\r\n        votantes.push(_direccion);\r\n        votanteMesa[_numeroMesa].push(_direccion);\r\n        \r\n        mesas[_numeroMesa].numeroVotantes ++;\r\n        datosMesa[_numeroMesa].numeroVotantes ++;\r\n        colegios[_idColegio].numeroVotantes ++;\r\n        colegioElectoral[_idColegio].numeroVotantes ++;\r\n        \r\n        \r\n        \r\n    }\r\n    \r\n    function votanteExiste(address _direccion) private view returns(bool){\r\n         string memory _bnombre = datosVotante[_direccion].nombre;\r\n         \r\n         bytes memory b = bytes(_bnombre);\r\n         \r\n         return b.length != 0 ;\r\n     }\r\n\r\n\r\n    function votantesLength() public view returns(uint) {\r\n        return votantes.length;\r\n    }\r\n    \r\n    function votaPartido(address _direccionVotante, string memory _partido) public{\r\n        \r\n        require(partidoExiste(_partido) == true,\"El partido no existe\");\r\n        require(votanteExiste(_direccionVotante) == true,\"El votante no existe\");\r\n        require(datosVotante[_direccionVotante].votado == false, \"El votante ya ha votado\");\r\n        datosPartidos[_partido].votos ++;\r\n        datosVotante[_direccionVotante].votado = true;\r\n        \r\n        //actualizar el numero de votos dentro de los colegios y las mesas correspondientes a ese votante;\r\n        mesas[datosVotante[_direccionVotante].numeroMesa].numeroVotos ++;\r\n        datosMesa[datosVotante[_direccionVotante].numeroMesa].numeroVotos ++;\r\n        colegios[datosVotante[_direccionVotante].idColegio].numeroVotos ++;\r\n        colegioElectoral[datosVotante[_direccionVotante].idColegio].numeroVotos ++;\r\n        \r\n    }\r\n\r\n\r\n\r\n/* \r\nFaltan comprobaciones de atributos , modificadores y si la mesa est creada\r\ncrear presidente aqu??? como crear address vaca\r\n*/\r\n    function creaMesa(uint _idColegio) onlyAdmin public{\r\n        \r\n        // bytes memory bc = bytes(_colegio);\r\n        // require(bc.length != 0, \"El colegio no puede ser vacio\");\r\n        \r\n        \r\n       // Array temporal, copia de las mesas que hay en el colegio dado en el parametro\r\n        \r\n        \r\n        \r\n        \r\n        address _presidente = 0x0000000000000000000000000000000000000000;\r\n        uint _numeroVotantes = 0;\r\n        uint _numeroVotos = 0;\r\n        bool _actaFirmada = false;\r\n        \r\n        require(_numeroVotos == 0, \"El numero de votos iniciales debe ser 0\");\r\n        require(_numeroVotantes == 0, \"El numero de votantes iniciales debe ser 0\");\r\n        \r\n        //Cogemos el length del numero de mesas de ese colegio, sera el numero de la nueva mesa\r\n        uint _numeroMesa = mesas.length;\r\n        \r\n        Mesa memory mesa = Mesa(_idColegio,_numeroMesa,_presidente,_numeroVotantes,_numeroVotos,_actaFirmada);\r\n        \r\n        datosMesa[_numeroMesa] = mesa;\r\n        \r\n        mesas.push(mesa);\r\n        \r\n        /*\r\n        Metemos la nueva mesa en el array temporal\r\n        despues metemos el array temporal con la nueva mesa en el colegio deseado\r\n        */\r\n        \r\n        mesaColegio[_idColegio].push(_numeroMesa);\r\n        colegios[_idColegio].numeroMesas++;\r\n        colegioElectoral[_idColegio].numeroMesas++;\r\n        \r\n    }\r\n    \r\n    function mesasLength() public view returns(uint) {\r\n        return mesas.length;\r\n    }\r\n    \r\n    \r\n    function creaColegio(uint id, string memory _nombre,string memory _direccion) onlyAdmin public{\r\n        \r\n        address _admin = admin;\r\n        uint numeroMesas = 0;\r\n        uint numeroVotantes = 0;\r\n        uint numeroVotos = 0;\r\n        \r\n        bytes memory bn = bytes(_nombre);\r\n        require(bn.length != 0, \"El nombre no puede ser vacio\");\r\n        \r\n        bytes memory bd = bytes(_direccion);\r\n        require(bd.length != 0, \"El nombre no puede ser vacio\");\r\n        \r\n        require(colegioExiste(id) == false,\"El colegio ya existe\");\r\n        \r\n        ColegioElectoral memory colegio = ColegioElectoral(id,_nombre,_admin,_direccion,numeroMesas,numeroVotantes,numeroVotos);\r\n        colegioElectoral[id]= colegio;\r\n        colegios.push(colegio);\r\n        \r\n        \r\n        \r\n    }\r\n    \r\n    /*\r\n    comprobar si existe el colegio, introducimos el id, comprobamos si en ese id hay un nombre, si tiene algun byte, entonces devuelve true, es decir, hay colegio\r\n    */\r\n    \r\n     function colegioExiste(uint id) private view returns(bool){\r\n         string memory _bnombre = colegioElectoral[id].nombre;\r\n         \r\n         bytes memory b = bytes(_bnombre);\r\n         \r\n         return b.length != 0 ;\r\n     }\r\n    \r\n    \r\n    \r\n    \r\n    \r\n    /*\r\n    \r\n    - meter presidente en colegioMesa\r\n    -Que pasa si creo el mismo presidente en otra mesa??\r\n    \r\n    */\r\n    function asignaPresidenteMesa(address _direccionPresidente,uint  _numeroMesa) onlyAdmin public{\r\n        \r\n        \r\n        \r\n        datosMesa[_numeroMesa].presidente = _direccionPresidente;\r\n        mesas[_numeroMesa].presidente =_direccionPresidente;\r\n        presidentes.push(_direccionPresidente);\r\n        \r\n    }\r\n    \r\n    \r\n    \r\n    function uint2str(uint _i) internal pure returns (string memory _uintAsString) {\r\n        if (_i == 0) {\r\n            return \"0\";\r\n        }\r\n            uint j = _i;\r\n            uint len;\r\n                while (j != 0) {\r\n                    len++;\r\n                    j /= 10;\r\n                }\r\n            bytes memory bstr = new bytes(len);\r\n            uint k = len - 1;\r\n                while (_i != 0) {\r\n                    bstr[k--] = byte(uint8(48 + _i % 10));\r\n                    _i /= 10;\r\n                }\r\n        return string(bstr);\r\n    }\r\n\r\n}",
  "sourcePath": "C:/Users/jaime/tfg/EleccionesDemo/contracts/Elecciones.sol",
  "compiler": {
    "name": "solc",
    "version": "0.7.4+commit.3f05b770.Emscripten.clang"
  },
  "schemaVersion": "3.3.3",
  "updatedAt": "2021-05-13T19:06:22.998Z",
  "networkType": "ethereum",
  "devdoc": {
    "kind": "dev",
    "methods": {},
    "version": 1
  },
  "userdoc": {
    "kind": "user",
    "methods": {},
    "version": 1
  }
}