{
  "contractName": "Elecciones",
  "abi": [
    {
      "inputs": [
        {
          "internalType": "string",
          "name": "_nombre",
          "type": "string"
        },
        {
          "internalType": "string",
          "name": "_year",
          "type": "string"
        }
      ],
      "stateMutability": "nonpayable",
      "type": "constructor"
    },
    {
      "inputs": [],
      "name": "admin",
      "outputs": [
        {
          "internalType": "address",
          "name": "",
          "type": "address"
        }
      ],
      "stateMutability": "view",
      "type": "function",
      "constant": true
    },
    {
      "inputs": [
        {
          "internalType": "uint256",
          "name": "",
          "type": "uint256"
        }
      ],
      "name": "colegioElectoral",
      "outputs": [
        {
          "internalType": "uint256",
          "name": "id",
          "type": "uint256"
        },
        {
          "internalType": "string",
          "name": "nombre",
          "type": "string"
        },
        {
          "internalType": "address",
          "name": "adminColegio",
          "type": "address"
        },
        {
          "internalType": "string",
          "name": "direccion",
          "type": "string"
        },
        {
          "internalType": "uint256",
          "name": "numeroMesas",
          "type": "uint256"
        },
        {
          "internalType": "uint256",
          "name": "numeroVotantes",
          "type": "uint256"
        },
        {
          "internalType": "uint256",
          "name": "numeroVotos",
          "type": "uint256"
        }
      ],
      "stateMutability": "view",
      "type": "function",
      "constant": true
    },
    {
      "inputs": [
        {
          "internalType": "uint256",
          "name": "",
          "type": "uint256"
        }
      ],
      "name": "colegios",
      "outputs": [
        {
          "internalType": "uint256",
          "name": "id",
          "type": "uint256"
        },
        {
          "internalType": "string",
          "name": "nombre",
          "type": "string"
        },
        {
          "internalType": "address",
          "name": "adminColegio",
          "type": "address"
        },
        {
          "internalType": "string",
          "name": "direccion",
          "type": "string"
        },
        {
          "internalType": "uint256",
          "name": "numeroMesas",
          "type": "uint256"
        },
        {
          "internalType": "uint256",
          "name": "numeroVotantes",
          "type": "uint256"
        },
        {
          "internalType": "uint256",
          "name": "numeroVotos",
          "type": "uint256"
        }
      ],
      "stateMutability": "view",
      "type": "function",
      "constant": true
    },
    {
      "inputs": [
        {
          "internalType": "uint256",
          "name": "",
          "type": "uint256"
        }
      ],
      "name": "datosMesa",
      "outputs": [
        {
          "internalType": "uint256",
          "name": "idColegio",
          "type": "uint256"
        },
        {
          "internalType": "uint256",
          "name": "numeroMesa",
          "type": "uint256"
        },
        {
          "internalType": "address",
          "name": "presidente",
          "type": "address"
        },
        {
          "internalType": "uint256",
          "name": "numeroVotantes",
          "type": "uint256"
        },
        {
          "internalType": "uint256",
          "name": "numeroVotos",
          "type": "uint256"
        },
        {
          "internalType": "bool",
          "name": "actaFirmada",
          "type": "bool"
        }
      ],
      "stateMutability": "view",
      "type": "function",
      "constant": true
    },
    {
      "inputs": [
        {
          "internalType": "string",
          "name": "",
          "type": "string"
        }
      ],
      "name": "datosPartidos",
      "outputs": [
        {
          "internalType": "string",
          "name": "nombre",
          "type": "string"
        },
        {
          "internalType": "uint256",
          "name": "votos",
          "type": "uint256"
        }
      ],
      "stateMutability": "view",
      "type": "function",
      "constant": true
    },
    {
      "inputs": [
        {
          "internalType": "address",
          "name": "",
          "type": "address"
        }
      ],
      "name": "datosPresidente",
      "outputs": [
        {
          "internalType": "string",
          "name": "nombre",
          "type": "string"
        },
        {
          "internalType": "address",
          "name": "direccion",
          "type": "address"
        },
        {
          "internalType": "uint256",
          "name": "numeroMesa",
          "type": "uint256"
        },
        {
          "internalType": "uint256",
          "name": "idColegio",
          "type": "uint256"
        }
      ],
      "stateMutability": "view",
      "type": "function",
      "constant": true
    },
    {
      "inputs": [
        {
          "internalType": "address",
          "name": "",
          "type": "address"
        }
      ],
      "name": "datosVotante",
      "outputs": [
        {
          "internalType": "address",
          "name": "direccion",
          "type": "address"
        },
        {
          "internalType": "uint256",
          "name": "idColegio",
          "type": "uint256"
        },
        {
          "internalType": "uint256",
          "name": "numeroMesa",
          "type": "uint256"
        },
        {
          "internalType": "string",
          "name": "nombre",
          "type": "string"
        },
        {
          "internalType": "string",
          "name": "calle",
          "type": "string"
        },
        {
          "internalType": "string",
          "name": "dni",
          "type": "string"
        },
        {
          "internalType": "bool",
          "name": "votado",
          "type": "bool"
        }
      ],
      "stateMutability": "view",
      "type": "function",
      "constant": true
    },
    {
      "inputs": [
        {
          "internalType": "uint256",
          "name": "",
          "type": "uint256"
        },
        {
          "internalType": "uint256",
          "name": "",
          "type": "uint256"
        }
      ],
      "name": "mesaColegio",
      "outputs": [
        {
          "internalType": "uint256",
          "name": "",
          "type": "uint256"
        }
      ],
      "stateMutability": "view",
      "type": "function",
      "constant": true
    },
    {
      "inputs": [
        {
          "internalType": "uint256",
          "name": "",
          "type": "uint256"
        }
      ],
      "name": "mesas",
      "outputs": [
        {
          "internalType": "uint256",
          "name": "idColegio",
          "type": "uint256"
        },
        {
          "internalType": "uint256",
          "name": "numeroMesa",
          "type": "uint256"
        },
        {
          "internalType": "address",
          "name": "presidente",
          "type": "address"
        },
        {
          "internalType": "uint256",
          "name": "numeroVotantes",
          "type": "uint256"
        },
        {
          "internalType": "uint256",
          "name": "numeroVotos",
          "type": "uint256"
        },
        {
          "internalType": "bool",
          "name": "actaFirmada",
          "type": "bool"
        }
      ],
      "stateMutability": "view",
      "type": "function",
      "constant": true
    },
    {
      "inputs": [],
      "name": "nombre",
      "outputs": [
        {
          "internalType": "string",
          "name": "",
          "type": "string"
        }
      ],
      "stateMutability": "view",
      "type": "function",
      "constant": true
    },
    {
      "inputs": [
        {
          "internalType": "uint256",
          "name": "",
          "type": "uint256"
        }
      ],
      "name": "partidos",
      "outputs": [
        {
          "internalType": "string",
          "name": "",
          "type": "string"
        }
      ],
      "stateMutability": "view",
      "type": "function",
      "constant": true
    },
    {
      "inputs": [
        {
          "internalType": "uint256",
          "name": "",
          "type": "uint256"
        }
      ],
      "name": "presidentes",
      "outputs": [
        {
          "internalType": "address",
          "name": "",
          "type": "address"
        }
      ],
      "stateMutability": "view",
      "type": "function",
      "constant": true
    },
    {
      "inputs": [
        {
          "internalType": "uint256",
          "name": "",
          "type": "uint256"
        },
        {
          "internalType": "uint256",
          "name": "",
          "type": "uint256"
        }
      ],
      "name": "votanteMesa",
      "outputs": [
        {
          "internalType": "address",
          "name": "",
          "type": "address"
        }
      ],
      "stateMutability": "view",
      "type": "function",
      "constant": true
    },
    {
      "inputs": [
        {
          "internalType": "uint256",
          "name": "",
          "type": "uint256"
        }
      ],
      "name": "votantes",
      "outputs": [
        {
          "internalType": "address",
          "name": "",
          "type": "address"
        }
      ],
      "stateMutability": "view",
      "type": "function",
      "constant": true
    },
    {
      "inputs": [],
      "name": "year",
      "outputs": [
        {
          "internalType": "string",
          "name": "",
          "type": "string"
        }
      ],
      "stateMutability": "view",
      "type": "function",
      "constant": true
    },
    {
      "inputs": [
        {
          "internalType": "string",
          "name": "_nombrePartido",
          "type": "string"
        }
      ],
      "name": "creaPartido",
      "outputs": [
        {
          "internalType": "uint256",
          "name": "",
          "type": "uint256"
        }
      ],
      "stateMutability": "nonpayable",
      "type": "function"
    },
    {
      "inputs": [],
      "name": "partidosLength",
      "outputs": [
        {
          "internalType": "uint256",
          "name": "",
          "type": "uint256"
        }
      ],
      "stateMutability": "view",
      "type": "function",
      "constant": true
    },
    {
      "inputs": [
        {
          "internalType": "address",
          "name": "_direccion",
          "type": "address"
        },
        {
          "internalType": "uint256",
          "name": "_numeroMesa",
          "type": "uint256"
        },
        {
          "internalType": "string",
          "name": "_nombre",
          "type": "string"
        },
        {
          "internalType": "string",
          "name": "_calle",
          "type": "string"
        },
        {
          "internalType": "string",
          "name": "_dni",
          "type": "string"
        }
      ],
      "name": "creaVotante",
      "outputs": [],
      "stateMutability": "nonpayable",
      "type": "function"
    },
    {
      "inputs": [],
      "name": "votantesLength",
      "outputs": [
        {
          "internalType": "uint256",
          "name": "",
          "type": "uint256"
        }
      ],
      "stateMutability": "view",
      "type": "function",
      "constant": true
    },
    {
      "inputs": [
        {
          "internalType": "uint256",
          "name": "_numeroMesa",
          "type": "uint256"
        }
      ],
      "name": "votanteMesaLength",
      "outputs": [
        {
          "internalType": "uint256",
          "name": "",
          "type": "uint256"
        }
      ],
      "stateMutability": "view",
      "type": "function",
      "constant": true
    },
    {
      "inputs": [
        {
          "internalType": "address",
          "name": "_direccionVotante",
          "type": "address"
        },
        {
          "internalType": "string",
          "name": "_partido",
          "type": "string"
        }
      ],
      "name": "votaPartido",
      "outputs": [],
      "stateMutability": "nonpayable",
      "type": "function"
    },
    {
      "inputs": [
        {
          "internalType": "uint256",
          "name": "_idColegio",
          "type": "uint256"
        }
      ],
      "name": "creaMesa",
      "outputs": [],
      "stateMutability": "nonpayable",
      "type": "function"
    },
    {
      "inputs": [],
      "name": "mesasLength",
      "outputs": [
        {
          "internalType": "uint256",
          "name": "",
          "type": "uint256"
        }
      ],
      "stateMutability": "view",
      "type": "function",
      "constant": true
    },
    {
      "inputs": [
        {
          "internalType": "uint256",
          "name": "id",
          "type": "uint256"
        },
        {
          "internalType": "string",
          "name": "_nombre",
          "type": "string"
        },
        {
          "internalType": "string",
          "name": "_direccion",
          "type": "string"
        }
      ],
      "name": "creaColegio",
      "outputs": [],
      "stateMutability": "nonpayable",
      "type": "function"
    },
    {
      "inputs": [
        {
          "internalType": "string",
          "name": "_nombre",
          "type": "string"
        },
        {
          "internalType": "address",
          "name": "_direccionPresidente",
          "type": "address"
        },
        {
          "internalType": "uint256",
          "name": "_numeroMesa",
          "type": "uint256"
        }
      ],
      "name": "asignaPresidenteMesa",
      "outputs": [],
      "stateMutability": "nonpayable",
      "type": "function"
    },
    {
      "inputs": [
        {
          "internalType": "address",
          "name": "_direccion",
          "type": "address"
        }
      ],
      "name": "presidenteExiste",
      "outputs": [
        {
          "internalType": "bool",
          "name": "",
          "type": "bool"
        }
      ],
      "stateMutability": "view",
      "type": "function",
      "constant": true
    },
    {
      "inputs": [],
      "name": "quienSoy",
      "outputs": [
        {
          "internalType": "string",
          "name": "_nombre",
          "type": "string"
        },
        {
          "internalType": "address",
          "name": "_direccion",
          "type": "address"
        },
        {
          "internalType": "uint256",
          "name": "_idColegio",
          "type": "uint256"
        },
        {
          "internalType": "uint256",
          "name": "_numeroMesa",
          "type": "uint256"
        },
        {
          "internalType": "string",
          "name": "_rol",
          "type": "string"
        }
      ],
      "stateMutability": "view",
      "type": "function",
      "constant": true
    }
  ],
  "bytecode": "0x60806040523480156200001157600080fd5b506040516200498938038062004989833981810160405260408110156200003757600080fd5b81019080805160405193929190846401000000008211156200005857600080fd5b838201915060208201858111156200006f57600080fd5b82518660018202830111640100000000821117156200008d57600080fd5b8083526020830192505050908051906020019080838360005b83811015620000c3578082015181840152602081019050620000a6565b50505050905090810190601f168015620000f15780820380516001836020036101000a031916815260200191505b50604052602001805160405193929190846401000000008211156200011557600080fd5b838201915060208201858111156200012c57600080fd5b82518660018202830111640100000000821117156200014a57600080fd5b8083526020830192505050908051906020019080838360005b838110156200018057808201518184015260208101905062000163565b50505050905090810190601f168015620001ae5780820380516001836020036101000a031916815260200191505b50604052505050606082905060008151141562000217576040517f08c379a0000000000000000000000000000000000000000000000000000000008152600401808060200182810382526032815260200180620049576032913960400191505060405180910390fd5b606082905060008151141562000279576040517f08c379a0000000000000000000000000000000000000000000000000000000008152600401808060200182810382526030815260200180620049276030913960400191505060405180910390fd5b336000806101000a81548173ffffffffffffffffffffffffffffffffffffffff021916908373ffffffffffffffffffffffffffffffffffffffff1602179055508360019080519060200190620002d1929190620002f5565b508260029080519060200190620002ea929190620002f5565b5050505050620003ab565b828054600181600116156101000203166002900490600052602060002090601f0160209004810192826200032d576000855562000379565b82601f106200034857805160ff191683800117855562000379565b8280016001018555821562000379579182015b82811115620003785782518255916020019190600101906200035b565b5b5090506200038891906200038c565b5090565b5b80821115620003a75760008160009055506001016200038d565b5090565b61456c80620003bb6000396000f3fe608060405234801561001057600080fd5b50600436106101a95760003560e01c806353766883116100f9578063c5c204e311610097578063ef69e4b911610071578063ef69e4b914611191578063f3269716146111dd578063f851a44014611260578063fd9dc95c14611294576101a9565b8063c5c204e314610dad578063d8f0d1c214610ef9578063e0e2e8f214610fc8576101a9565b80639ef5117e116100d35780639ef5117e14610bca5780639f611b0014610cb2578063aacca74e14610d0c578063bc7b35b214610d2a576101a9565b806353766883146109f15780635b94ea1014610b0b57806377c0d41a14610b88576101a9565b80632e03f83811610166578063369061d811610140578063369061d81461073457806338bfab431461079657806340deb070146107ee57806347d5c1f414610895576101a9565b80632e03f838146104bc57806333c87b03146105145780633463574f146105f9576101a9565b8063027c8487146101ae5780630c57c4fa146101dc5780630d38bdfd146102b75780630e2386f9146104035780631c760e0e146104215780632519accb1461049e575b600080fd5b6101da600480360360208110156101c457600080fd5b81019080803590602001909291905050506114a7565b005b6102b5600480360360408110156101f257600080fd5b81019080803573ffffffffffffffffffffffffffffffffffffffff1690602001909291908035906020019064010000000081111561022f57600080fd5b82018360208201111561024157600080fd5b8035906020019184600183028401116401000000008311171561026357600080fd5b91908080601f016020809104026020016040519081016040528093929190818152602001838380828437600081840152601f19601f820116905080830192505050505050509192919290505050611873565b005b6102e3600480360360208110156102cd57600080fd5b8101908080359060200190929190505050611ccb565b60405180888152602001806020018773ffffffffffffffffffffffffffffffffffffffff16815260200180602001868152602001858152602001848152602001838103835289818151815260200191508051906020019080838360005b8381101561035b578082015181840152602081019050610340565b50505050905090810190601f1680156103885780820380516001836020036101000a031916815260200191505b50838103825287818151815260200191508051906020019080838360005b838110156103c15780820151818401526020810190506103a6565b50505050905090810190601f1680156103ee5780820380516001836020036101000a031916815260200191505b50995050505050505050505060405180910390f35b61040b611e6d565b6040518082815260200191505060405180910390f35b61044d6004803603602081101561043757600080fd5b8101908080359060200190929190505050611e7a565b604051808781526020018681526020018573ffffffffffffffffffffffffffffffffffffffff1681526020018481526020018381526020018215158152602001965050505050505060405180910390f35b6104a6611ee3565b6040518082815260200191505060405180910390f35b6104e8600480360360208110156104d257600080fd5b8101908080359060200190929190505050611ef0565b604051808273ffffffffffffffffffffffffffffffffffffffff16815260200191505060405180910390f35b6105f76004803603606081101561052a57600080fd5b810190808035906020019064010000000081111561054757600080fd5b82018360208201111561055957600080fd5b8035906020019184600183028401116401000000008311171561057b57600080fd5b91908080601f016020809104026020016040519081016040528093929190818152602001838380828437600081840152601f19601f820116905080830192505050505050509192919290803573ffffffffffffffffffffffffffffffffffffffff16906020019092919080359060200190929190505050611f2f565b005b6106b26004803603602081101561060f57600080fd5b810190808035906020019064010000000081111561062c57600080fd5b82018360208201111561063e57600080fd5b8035906020019184600183028401116401000000008311171561066057600080fd5b91908080601f016020809104026020016040519081016040528093929190818152602001838380828437600081840152601f19601f82011690508083019250505050505050919291929050505061221f565b6040518080602001838152602001828103825284818151815260200191508051906020019080838360005b838110156106f85780820151818401526020810190506106dd565b50505050905090810190601f1680156107255780820380516001836020036101000a031916815260200191505b50935050505060405180910390f35b61076a6004803603604081101561074a57600080fd5b8101908080359060200190929190803590602001909291905050506122f1565b604051808273ffffffffffffffffffffffffffffffffffffffff16815260200191505060405180910390f35b6107c2600480360360208110156107ac57600080fd5b810190808035906020019092919050505061233f565b604051808273ffffffffffffffffffffffffffffffffffffffff16815260200191505060405180910390f35b61081a6004803603602081101561080457600080fd5b810190808035906020019092919050505061237e565b6040518080602001828103825283818151815260200191508051906020019080838360005b8381101561085a57808201518184015260208101905061083f565b50505050905090810190601f1680156108875780820380516001836020036101000a031916815260200191505b509250505060405180910390f35b6109ef600480360360608110156108ab57600080fd5b8101908080359060200190929190803590602001906401000000008111156108d257600080fd5b8201836020820111156108e457600080fd5b8035906020019184600183028401116401000000008311171561090657600080fd5b91908080601f016020809104026020016040519081016040528093929190818152602001838380828437600081840152601f19601f8201169050808301925050505050505091929192908035906020019064010000000081111561096957600080fd5b82018360208201111561097b57600080fd5b8035906020019184600183028401116401000000008311171561099d57600080fd5b91908080601f016020809104026020016040519081016040528093929190818152602001838380828437600081840152601f19601f82011690508083019250505050505050919291929050505061243a565b005b6109f9612898565b60405180806020018673ffffffffffffffffffffffffffffffffffffffff16815260200185815260200184815260200180602001838103835288818151815260200191508051906020019080838360005b83811015610a65578082015181840152602081019050610a4a565b50505050905090810190601f168015610a925780820380516001836020036101000a031916815260200191505b50838103825284818151815260200191508051906020019080838360005b83811015610acb578082015181840152602081019050610ab0565b50505050905090810190601f168015610af85780820380516001836020036101000a031916815260200191505b5097505050505050505060405180910390f35b610b3760048036036020811015610b2157600080fd5b8101908080359060200190929190505050612f11565b604051808781526020018681526020018573ffffffffffffffffffffffffffffffffffffffff1681526020018481526020018381526020018215158152602001965050505050505060405180910390f35b610bb460048036036020811015610b9e57600080fd5b8101908080359060200190929190505050612f8a565b6040518082815260200191505060405180910390f35b610c0c60048036036020811015610be057600080fd5b81019080803573ffffffffffffffffffffffffffffffffffffffff169060200190929190505050612faa565b60405180806020018573ffffffffffffffffffffffffffffffffffffffff168152602001848152602001838152602001828103825286818151815260200191508051906020019080838360005b83811015610c74578082015181840152602081019050610c59565b50505050905090810190601f168015610ca15780820380516001836020036101000a031916815260200191505b509550505050505060405180910390f35b610cf460048036036020811015610cc857600080fd5b81019080803573ffffffffffffffffffffffffffffffffffffffff169060200190929190505050613092565b60405180821515815260200191505060405180910390f35b610d14613187565b6040518082815260200191505060405180910390f35b610d32613194565b6040518080602001828103825283818151815260200191508051906020019080838360005b83811015610d72578082015181840152602081019050610d57565b50505050905090810190601f168015610d9f5780820380516001836020036101000a031916815260200191505b509250505060405180910390f35b610dd960048036036020811015610dc357600080fd5b8101908080359060200190929190505050613232565b60405180888152602001806020018773ffffffffffffffffffffffffffffffffffffffff16815260200180602001868152602001858152602001848152602001838103835289818151815260200191508051906020019080838360005b83811015610e51578082015181840152602081019050610e36565b50505050905090810190601f168015610e7e5780820380516001836020036101000a031916815260200191505b50838103825287818151815260200191508051906020019080838360005b83811015610eb7578082015181840152602081019050610e9c565b50505050905090810190601f168015610ee45780820380516001836020036101000a031916815260200191505b50995050505050505050505060405180910390f35b610fb260048036036020811015610f0f57600080fd5b8101908080359060200190640100000000811115610f2c57600080fd5b820183602082011115610f3e57600080fd5b80359060200191846001830284011164010000000083111715610f6057600080fd5b91908080601f016020809104026020016040519081016040528093929190818152602001838380828437600081840152601f19601f8201169050808301925050505050505091929192905050506133c4565b6040518082815260200191505060405180910390f35b61100a60048036036020811015610fde57600080fd5b81019080803573ffffffffffffffffffffffffffffffffffffffff16906020019092919050505061366d565b604051808873ffffffffffffffffffffffffffffffffffffffff1681526020018781526020018681526020018060200180602001806020018515158152602001848103845288818151815260200191508051906020019080838360005b83811015611082578082015181840152602081019050611067565b50505050905090810190601f1680156110af5780820380516001836020036101000a031916815260200191505b50848103835287818151815260200191508051906020019080838360005b838110156110e85780820151818401526020810190506110cd565b50505050905090810190601f1680156111155780820380516001836020036101000a031916815260200191505b50848103825286818151815260200191508051906020019080838360005b8381101561114e578082015181840152602081019050611133565b50505050905090810190601f16801561117b5780820380516001836020036101000a031916815260200191505b509a505050505050505050505060405180910390f35b6111c7600480360360408110156111a757600080fd5b8101908080359060200190929190803590602001909291905050506138a4565b6040518082815260200191505060405180910390f35b6111e56138d5565b6040518080602001828103825283818151815260200191508051906020019080838360005b8381101561122557808201518184015260208101905061120a565b50505050905090810190601f1680156112525780820380516001836020036101000a031916815260200191505b509250505060405180910390f35b611268613973565b604051808273ffffffffffffffffffffffffffffffffffffffff16815260200191505060405180910390f35b6114a5600480360360a08110156112aa57600080fd5b81019080803573ffffffffffffffffffffffffffffffffffffffff16906020019092919080359060200190929190803590602001906401000000008111156112f157600080fd5b82018360208201111561130357600080fd5b8035906020019184600183028401116401000000008311171561132557600080fd5b91908080601f016020809104026020016040519081016040528093929190818152602001838380828437600081840152601f19601f8201169050808301925050505050505091929192908035906020019064010000000081111561138857600080fd5b82018360208201111561139a57600080fd5b803590602001918460018302840111640100000000831117156113bc57600080fd5b91908080601f016020809104026020016040519081016040528093929190818152602001838380828437600081840152601f19601f8201169050808301925050505050505091929192908035906020019064010000000081111561141f57600080fd5b82018360208201111561143157600080fd5b8035906020019184600183028401116401000000008311171561145357600080fd5b91908080601f016020809104026020016040519081016040528093929190818152602001838380828437600081840152601f19601f820116905080830192505050505050509192919290505050613997565b005b60008054906101000a900473ffffffffffffffffffffffffffffffffffffffff1673ffffffffffffffffffffffffffffffffffffffff163373ffffffffffffffffffffffffffffffffffffffff1614611568576040517f08c379a000000000000000000000000000000000000000000000000000000000815260040180806020018281038252601f8152602001807f536f6c6f207065726d697469646f20616c2061646d696e6973747261646f720081525060200191505060405180910390fd5b600080600080600082146115c7576040517f08c379a00000000000000000000000000000000000000000000000000000000081526004018080602001828103825260278152602001806144976027913960400191505060405180910390fd5b60008314611620576040517f08c379a000000000000000000000000000000000000000000000000000000000815260040180806020018281038252602a81526020018061450d602a913960400191505060405180910390fd5b6000600680549050905061163261429d565b6040518060c001604052808881526020018381526020018773ffffffffffffffffffffffffffffffffffffffff168152602001868152602001858152602001841515815250905080600a6000848152602001908152602001600020600082015181600001556020820151816001015560408201518160020160006101000a81548173ffffffffffffffffffffffffffffffffffffffff021916908373ffffffffffffffffffffffffffffffffffffffff160217905550606082015181600301556080820151816004015560a08201518160050160006101000a81548160ff0219169083151502179055509050506006819080600181540180825580915050600190039060005260206000209060060201600090919091909150600082015181600001556020820151816001015560408201518160020160006101000a81548173ffffffffffffffffffffffffffffffffffffffff021916908373ffffffffffffffffffffffffffffffffffffffff160217905550606082015181600301556080820151816004015560a08201518160050160006101000a81548160ff0219169083151502179055505050600c60008881526020019081526020016000208290806001815401808255809150506001900390600052602060002001600090919091909150556007878154811061182357fe5b906000526020600020906007020160040160008154809291906001019190505550600b60008881526020019081526020016000206004016000815480929190600101919050555050505050505050565b6001151561188082613fc0565b1515146118f5576040517f08c379a00000000000000000000000000000000000000000000000000000000081526004018080602001828103825260148152602001807f456c207061727469646f206e6f2065786973746500000000000000000000000081525060200191505060405180910390fd5b60011515611902836140df565b151514611977576040517f08c379a00000000000000000000000000000000000000000000000000000000081526004018080602001828103825260148152602001807f456c20766f74616e7465206e6f2065786973746500000000000000000000000081525060200191505060405180910390fd5b60001515600860008473ffffffffffffffffffffffffffffffffffffffff1673ffffffffffffffffffffffffffffffffffffffff16815260200190815260200160002060060160009054906101000a900460ff16151514611a40576040517f08c379a00000000000000000000000000000000000000000000000000000000081526004018080602001828103825260178152602001807f456c20766f74616e746520796120686120766f7461646f00000000000000000081525060200191505060405180910390fd5b6009816040518082805190602001908083835b60208310611a765780518252602082019150602081019050602083039250611a53565b6001836020036101000a0380198251168184511680821785525050505050509050019150509081526020016040518091039020600101600081548092919060010191905055506001600860008473ffffffffffffffffffffffffffffffffffffffff1673ffffffffffffffffffffffffffffffffffffffff16815260200190815260200160002060060160006101000a81548160ff0219169083151502179055506006600860008473ffffffffffffffffffffffffffffffffffffffff1673ffffffffffffffffffffffffffffffffffffffff1681526020019081526020016000206002015481548110611b6657fe5b906000526020600020906006020160040160008154809291906001019190505550600a6000600860008573ffffffffffffffffffffffffffffffffffffffff1673ffffffffffffffffffffffffffffffffffffffff168152602001908152602001600020600201548152602001908152602001600020600401600081548092919060010191905055506007600860008473ffffffffffffffffffffffffffffffffffffffff1673ffffffffffffffffffffffffffffffffffffffff1681526020019081526020016000206001015481548110611c3e57fe5b906000526020600020906007020160060160008154809291906001019190505550600b6000600860008573ffffffffffffffffffffffffffffffffffffffff1673ffffffffffffffffffffffffffffffffffffffff168152602001908152602001600020600101548152602001908152602001600020600601600081548092919060010191905055505050565b60078181548110611cdb57600080fd5b9060005260206000209060070201600091509050806000015490806001018054600181600116156101000203166002900480601f016020809104026020016040519081016040528092919081815260200182805460018160011615610100020316600290048015611d8d5780601f10611d6257610100808354040283529160200191611d8d565b820191906000526020600020905b815481529060010190602001808311611d7057829003601f168201915b5050505050908060020160009054906101000a900473ffffffffffffffffffffffffffffffffffffffff1690806003018054600181600116156101000203166002900480601f016020809104026020016040519081016040528092919081815260200182805460018160011615610100020316600290048015611e515780601f10611e2657610100808354040283529160200191611e51565b820191906000526020600020905b815481529060010190602001808311611e3457829003601f168201915b5050505050908060040154908060050154908060060154905087565b6000600380549050905090565b600a6020528060005260406000206000915090508060000154908060010154908060020160009054906101000a900473ffffffffffffffffffffffffffffffffffffffff16908060030154908060040154908060050160009054906101000a900460ff16905086565b6000600680549050905090565b60038181548110611f0057600080fd5b906000526020600020016000915054906101000a900473ffffffffffffffffffffffffffffffffffffffff1681565b60008054906101000a900473ffffffffffffffffffffffffffffffffffffffff1673ffffffffffffffffffffffffffffffffffffffff163373ffffffffffffffffffffffffffffffffffffffff1614611ff0576040517f08c379a000000000000000000000000000000000000000000000000000000000815260040180806020018281038252601f8152602001807f536f6c6f207065726d697469646f20616c2061646d696e6973747261646f720081525060200191505060405180910390fd5b81600a600083815260200190815260200160002060020160006101000a81548173ffffffffffffffffffffffffffffffffffffffff021916908373ffffffffffffffffffffffffffffffffffffffff160217905550816006828154811061205357fe5b906000526020600020906006020160020160006101000a81548173ffffffffffffffffffffffffffffffffffffffff021916908373ffffffffffffffffffffffffffffffffffffffff1602179055506005829080600181540180825580915050600190039060005260206000200160009091909190916101000a81548173ffffffffffffffffffffffffffffffffffffffff021916908373ffffffffffffffffffffffffffffffffffffffff16021790555060006006828154811061211457fe5b906000526020600020906006020160000154905060405180608001604052808581526020018473ffffffffffffffffffffffffffffffffffffffff16815260200183815260200182815250600e60008573ffffffffffffffffffffffffffffffffffffffff1673ffffffffffffffffffffffffffffffffffffffff16815260200190815260200160002060008201518160000190805190602001906121ba9291906142eb565b5060208201518160010160006101000a81548173ffffffffffffffffffffffffffffffffffffffff021916908373ffffffffffffffffffffffffffffffffffffffff160217905550604082015181600201556060820151816003015590505050505050565b600981805160208101820180518482526020830160208501208183528095505050505050600091509050806000018054600181600116156101000203166002900480601f0160208091040260200160405190810160405280929190818152602001828054600181600116156101000203166002900480156122e15780601f106122b6576101008083540402835291602001916122e1565b820191906000526020600020905b8154815290600101906020018083116122c457829003601f168201915b5050505050908060010154905082565b600d602052816000526040600020818154811061230d57600080fd5b906000526020600020016000915091509054906101000a900473ffffffffffffffffffffffffffffffffffffffff1681565b6005818154811061234f57600080fd5b906000526020600020016000915054906101000a900473ffffffffffffffffffffffffffffffffffffffff1681565b6004818154811061238e57600080fd5b906000526020600020016000915090508054600181600116156101000203166002900480601f0160208091040260200160405190810160405280929190818152602001828054600181600116156101000203166002900480156124325780601f1061240757610100808354040283529160200191612432565b820191906000526020600020905b81548152906001019060200180831161241557829003601f168201915b505050505081565b60008054906101000a900473ffffffffffffffffffffffffffffffffffffffff1673ffffffffffffffffffffffffffffffffffffffff163373ffffffffffffffffffffffffffffffffffffffff16146124fb576040517f08c379a000000000000000000000000000000000000000000000000000000000815260040180806020018281038252601f8152602001807f536f6c6f207065726d697469646f20616c2061646d696e6973747261646f720081525060200191505060405180910390fd5b60008060009054906101000a900473ffffffffffffffffffffffffffffffffffffffff169050600080600060608690506000815114156125a3576040517f08c379a000000000000000000000000000000000000000000000000000000000815260040180806020018281038252601c8152602001807f456c206e6f6d627265206e6f2070756564652073657220766163696f0000000081525060200191505060405180910390fd5b6060869050600081511415612620576040517f08c379a000000000000000000000000000000000000000000000000000000000815260040180806020018281038252601c8152602001807f456c206e6f6d627265206e6f2070756564652073657220766163696f0000000081525060200191505060405180910390fd5b6000151561262d8a6141d4565b1515146126a2576040517f08c379a00000000000000000000000000000000000000000000000000000000081526004018080602001828103825260148152602001807f456c20636f6c6567696f2079612065786973746500000000000000000000000081525060200191505060405180910390fd5b6126aa614379565b6040518060e001604052808b81526020018a81526020018873ffffffffffffffffffffffffffffffffffffffff16815260200189815260200187815260200186815260200185815250905080600b60008c815260200190815260200160002060008201518160000155602082015181600101908051906020019061272f9291906142eb565b5060408201518160020160006101000a81548173ffffffffffffffffffffffffffffffffffffffff021916908373ffffffffffffffffffffffffffffffffffffffff16021790555060608201518160030190805190602001906127939291906142eb565b506080820151816004015560a0820151816005015560c0820151816006015590505060078190806001815401808255809150506001900390600052602060002090600702016000909190919091506000820151816000015560208201518160010190805190602001906128079291906142eb565b5060408201518160020160006101000a81548173ffffffffffffffffffffffffffffffffffffffff021916908373ffffffffffffffffffffffffffffffffffffffff160217905550606082015181600301908051906020019061286b9291906142eb565b506080820151816004015560a0820151816005015560c08201518160060155505050505050505050505050565b6060600080600060606128a96143cc565b600860003373ffffffffffffffffffffffffffffffffffffffff1673ffffffffffffffffffffffffffffffffffffffff1681526020019081526020016000206040518060e00160405290816000820160009054906101000a900473ffffffffffffffffffffffffffffffffffffffff1673ffffffffffffffffffffffffffffffffffffffff1673ffffffffffffffffffffffffffffffffffffffff1681526020016001820154815260200160028201548152602001600382018054600181600116156101000203166002900480601f0160208091040260200160405190810160405280929190818152602001828054600181600116156101000203166002900480156129f65780601f106129cb576101008083540402835291602001916129f6565b820191906000526020600020905b8154815290600101906020018083116129d957829003601f168201915b50505050508152602001600482018054600181600116156101000203166002900480601f016020809104026020016040519081016040528092919081815260200182805460018160011615610100020316600290048015612a985780601f10612a6d57610100808354040283529160200191612a98565b820191906000526020600020905b815481529060010190602001808311612a7b57829003601f168201915b50505050508152602001600582018054600181600116156101000203166002900480601f016020809104026020016040519081016040528092919081815260200182805460018160011615610100020316600290048015612b3a5780601f10612b0f57610100808354040283529160200191612b3a565b820191906000526020600020905b815481529060010190602001808311612b1d57829003601f168201915b505050505081526020016006820160009054906101000a900460ff1615151515815250509050612b68614421565b600e60003373ffffffffffffffffffffffffffffffffffffffff1673ffffffffffffffffffffffffffffffffffffffff168152602001908152602001600020604051806080016040529081600082018054600181600116156101000203166002900480601f016020809104026020016040519081016040528092919081815260200182805460018160011615610100020316600290048015612c4b5780601f10612c2057610100808354040283529160200191612c4b565b820191906000526020600020905b815481529060010190602001808311612c2e57829003601f168201915b505050505081526020016001820160009054906101000a900473ffffffffffffffffffffffffffffffffffffffff1673ffffffffffffffffffffffffffffffffffffffff1673ffffffffffffffffffffffffffffffffffffffff16815260200160028201548152602001600382015481525050905060011515612ccd336140df565b15151415612d2e57816060015196508160000151955081602001519450816040015193506040518060400160405280600781526020017f566f74616e7465000000000000000000000000000000000000000000000000008152509250612f08565b612d3733613092565b15612d9557806000015196508060200151955080606001519450806040015193506040518060400160405280600a81526020017f507265736964656e7465000000000000000000000000000000000000000000008152509250612f07565b60008054906101000a900473ffffffffffffffffffffffffffffffffffffffff1673ffffffffffffffffffffffffffffffffffffffff163373ffffffffffffffffffffffffffffffffffffffff161415612e89576040518060400160405280600581526020017f61646d696e000000000000000000000000000000000000000000000000000000815250965060008054906101000a900473ffffffffffffffffffffffffffffffffffffffff16955060009450600093506040518060400160405280600d81526020017f41646d696e6973747261646f72000000000000000000000000000000000000008152509250612f06565b6040518060400160405280601581526020017f5573756172696f206e6f207265676973747261646f000000000000000000000081525096506000955060009450600093506040518060400160405280601581526020017f5573756172696f206e6f207265676973747261646f000000000000000000000081525092505b5b5b50509091929394565b60068181548110612f2157600080fd5b90600052602060002090600602016000915090508060000154908060010154908060020160009054906101000a900473ffffffffffffffffffffffffffffffffffffffff16908060030154908060040154908060050160009054906101000a900460ff16905086565b6000600d6000838152602001908152602001600020805490509050919050565b600e602052806000526040600020600091509050806000018054600181600116156101000203166002900480601f0160208091040260200160405190810160405280929190818152602001828054600181600116156101000203166002900480156130565780601f1061302b57610100808354040283529160200191613056565b820191906000526020600020905b81548152906001019060200180831161303957829003601f168201915b5050505050908060010160009054906101000a900473ffffffffffffffffffffffffffffffffffffffff16908060020154908060030154905084565b60006060600e60008473ffffffffffffffffffffffffffffffffffffffff1673ffffffffffffffffffffffffffffffffffffffff1681526020019081526020016000206000018054600181600116156101000203166002900480601f01602080910402602001604051908101604052809291908181526020018280546001816001161561010002031660029004801561316c5780601f106131415761010080835404028352916020019161316c565b820191906000526020600020905b81548152906001019060200180831161314f57829003601f168201915b50505050509050606081905060008151141592505050919050565b6000600480549050905090565b60018054600181600116156101000203166002900480601f01602080910402602001604051908101604052809291908181526020018280546001816001161561010002031660029004801561322a5780601f106131ff5761010080835404028352916020019161322a565b820191906000526020600020905b81548152906001019060200180831161320d57829003601f168201915b505050505081565b600b602052806000526040600020600091509050806000015490806001018054600181600116156101000203166002900480601f0160208091040260200160405190810160405280929190818152602001828054600181600116156101000203166002900480156132e45780601f106132b9576101008083540402835291602001916132e4565b820191906000526020600020905b8154815290600101906020018083116132c757829003601f168201915b5050505050908060020160009054906101000a900473ffffffffffffffffffffffffffffffffffffffff1690806003018054600181600116156101000203166002900480601f0160208091040260200160405190810160405280929190818152602001828054600181600116156101000203166002900480156133a85780601f1061337d576101008083540402835291602001916133a8565b820191906000526020600020905b81548152906001019060200180831161338b57829003601f168201915b5050505050908060040154908060050154908060060154905087565b60008060009054906101000a900473ffffffffffffffffffffffffffffffffffffffff1673ffffffffffffffffffffffffffffffffffffffff163373ffffffffffffffffffffffffffffffffffffffff1614613488576040517f08c379a000000000000000000000000000000000000000000000000000000000815260040180806020018281038252601f8152602001807f536f6c6f207065726d697469646f20616c2061646d696e6973747261646f720081525060200191505060405180910390fd5b60608290506000815114156134e8576040517f08c379a000000000000000000000000000000000000000000000000000000000815260040180806020018281038252602a8152602001806144e3602a913960400191505060405180910390fd5b60008015156134f685613fc0565b15151461356b576040517f08c379a00000000000000000000000000000000000000000000000000000000081526004018080602001828103825260148152602001807f456c207061727469646f2079612065786973746500000000000000000000000081525060200191505060405180910390fd5b61357361445f565b6040518060400160405280868152602001838152509050806009866040518082805190602001908083835b602083106135c1578051825260208201915060208101905060208303925061359e565b6001836020036101000a038019825116818451168082178552505050505050905001915050908152602001604051809103902060008201518160000190805190602001906136109291906142eb565b50602082015181600101559050506004859080600181540180825580915050600190039060005260206000200160009091909190915090805190602001906136599291906142eb565b506001600480549050039350505050919050565b60086020528060005260406000206000915090508060000160009054906101000a900473ffffffffffffffffffffffffffffffffffffffff1690806001015490806002015490806003018054600181600116156101000203166002900480601f01602080910402602001604051908101604052809291908181526020018280546001816001161561010002031660029004801561374b5780601f106137205761010080835404028352916020019161374b565b820191906000526020600020905b81548152906001019060200180831161372e57829003601f168201915b505050505090806004018054600181600116156101000203166002900480601f0160208091040260200160405190810160405280929190818152602001828054600181600116156101000203166002900480156137e95780601f106137be576101008083540402835291602001916137e9565b820191906000526020600020905b8154815290600101906020018083116137cc57829003601f168201915b505050505090806005018054600181600116156101000203166002900480601f0160208091040260200160405190810160405280929190818152602001828054600181600116156101000203166002900480156138875780601f1061385c57610100808354040283529160200191613887565b820191906000526020600020905b81548152906001019060200180831161386a57829003601f168201915b5050505050908060060160009054906101000a900460ff16905087565b600c60205281600052604060002081815481106138c057600080fd5b90600052602060002001600091509150505481565b60028054600181600116156101000203166002900480601f01602080910402602001604051908101604052809291908181526020018280546001816001161561010002031660029004801561396b5780601f106139405761010080835404028352916020019161396b565b820191906000526020600020905b81548152906001019060200180831161394e57829003601f168201915b505050505081565b60008054906101000a900473ffffffffffffffffffffffffffffffffffffffff1681565b60008054906101000a900473ffffffffffffffffffffffffffffffffffffffff1673ffffffffffffffffffffffffffffffffffffffff163373ffffffffffffffffffffffffffffffffffffffff1614613a58576040517f08c379a000000000000000000000000000000000000000000000000000000000815260040180806020018281038252601f8152602001807f536f6c6f207065726d697469646f20616c2061646d696e6973747261646f720081525060200191505060405180910390fd5b6060839050600081511415613ad5576040517f08c379a000000000000000000000000000000000000000000000000000000000815260040180806020018281038252601c8152602001807f456c206e6f6d627265206e6f2070756564652073657220766163696f0000000081525060200191505060405180910390fd5b6060839050600081511415613b52576040517f08c379a000000000000000000000000000000000000000000000000000000000815260040180806020018281038252601b8152602001807f4c612063616c6c65206e6f2070756564652073657220766163696f000000000081525060200191505060405180910390fd5b6060859050600081511415613bcf576040517f08c379a00000000000000000000000000000000000000000000000000000000081526004018080602001828103825260198152602001807f456c20444e49206e6f2070756564652073657220766163696f0000000000000081525060200191505060405180910390fd5b6000801515613bdd8a6140df565b151514613c52576040517f08c379a00000000000000000000000000000000000000000000000000000000081526004018080602001828103825260148152602001807f456c20766f74616e74652079612065786973746500000000000000000000000081525060200191505060405180910390fd5b6000151581151514613caf576040517f08c379a00000000000000000000000000000000000000000000000000000000081526004018080602001828103825260258152602001806144be6025913960400191505060405180910390fd5b6000600a60008a8152602001908152602001600020600001549050613cd26143cc565b6040518060e001604052808c73ffffffffffffffffffffffffffffffffffffffff1681526020018381526020018b81526020018a8152602001898152602001888152602001841515815250905080600860008d73ffffffffffffffffffffffffffffffffffffffff1673ffffffffffffffffffffffffffffffffffffffff16815260200190815260200160002060008201518160000160006101000a81548173ffffffffffffffffffffffffffffffffffffffff021916908373ffffffffffffffffffffffffffffffffffffffff16021790555060208201518160010155604082015181600201556060820151816003019080519060200190613dd69291906142eb565b506080820151816004019080519060200190613df39291906142eb565b5060a0820151816005019080519060200190613e109291906142eb565b5060c08201518160060160006101000a81548160ff02191690831515021790555090505060038b9080600181540180825580915050600190039060005260206000200160009091909190916101000a81548173ffffffffffffffffffffffffffffffffffffffff021916908373ffffffffffffffffffffffffffffffffffffffff160217905550600d60008b81526020019081526020016000208b9080600181540180825580915050600190039060005260206000200160009091909190916101000a81548173ffffffffffffffffffffffffffffffffffffffff021916908373ffffffffffffffffffffffffffffffffffffffff16021790555060068a81548110613f1857fe5b906000526020600020906006020160030160008154809291906001019190505550600a60008b81526020019081526020016000206003016000815480929190600101919050555060078281548110613f6c57fe5b906000526020600020906007020160050160008154809291906001019190505550600b6000838152602001908152602001600020600501600081548092919060010191905055505050505050505050505050565b600060606009836040518082805190602001908083835b60208310613ffa5780518252602082019150602081019050602083039250613fd7565b6001836020036101000a03801982511681845116808217855250505050505090500191505090815260200160405180910390206000018054600181600116156101000203166002900480601f0160208091040260200160405190810160405280929190818152602001828054600181600116156101000203166002900480156140c45780601f10614099576101008083540402835291602001916140c4565b820191906000526020600020905b8154815290600101906020018083116140a757829003601f168201915b50505050509050606081905060008151141592505050919050565b60006060600860008473ffffffffffffffffffffffffffffffffffffffff1673ffffffffffffffffffffffffffffffffffffffff1681526020019081526020016000206003018054600181600116156101000203166002900480601f0160208091040260200160405190810160405280929190818152602001828054600181600116156101000203166002900480156141b95780601f1061418e576101008083540402835291602001916141b9565b820191906000526020600020905b81548152906001019060200180831161419c57829003601f168201915b50505050509050606081905060008151141592505050919050565b60006060600b60008481526020019081526020016000206001018054600181600116156101000203166002900480601f0160208091040260200160405190810160405280929190818152602001828054600181600116156101000203166002900480156142825780601f1061425757610100808354040283529160200191614282565b820191906000526020600020905b81548152906001019060200180831161426557829003601f168201915b50505050509050606081905060008151141592505050919050565b6040518060c001604052806000815260200160008152602001600073ffffffffffffffffffffffffffffffffffffffff16815260200160008152602001600081526020016000151581525090565b828054600181600116156101000203166002900490600052602060002090601f0160209004810192826143215760008555614368565b82601f1061433a57805160ff1916838001178555614368565b82800160010185558215614368579182015b8281111561436757825182559160200191906001019061434c565b5b5090506143759190614479565b5090565b6040518060e001604052806000815260200160608152602001600073ffffffffffffffffffffffffffffffffffffffff168152602001606081526020016000815260200160008152602001600081525090565b6040518060e00160405280600073ffffffffffffffffffffffffffffffffffffffff16815260200160008152602001600081526020016060815260200160608152602001606081526020016000151581525090565b604051806080016040528060608152602001600073ffffffffffffffffffffffffffffffffffffffff16815260200160008152602001600081525090565b604051806040016040528060608152602001600081525090565b5b8082111561449257600081600090555060010161447a565b509056fe456c206e756d65726f20646520766f746f7320696e696369616c65732064656265207365722030456c207573756172696f206e7565766f206e6f206465626520686162657220766f7461646f456c206e6f6d6272652064656c207061727469646f206e6f20707565646520657374617220766163696f456c206e756d65726f20646520766f74616e74657320696e696369616c65732064656265207365722030a2646970667358221220ca304ffb02849341767f6d463e3271a1f9c74211c8f1f20d937eeee7b32aba8364736f6c63430007040033456c207965617220646520657374617320656c656363696f6e6573206e6f20707565646520657374617220766163696f456c206e6f6d62726520646520657374617320656c656363696f6e6573206e6f20707565646520657374617220766163696f",
  "immutableReferences": {},
  "source": "// SPDX-License-Identifier: UNLICENSED\r\npragma solidity ^0.7.4;\r\n\r\ncontract Elecciones {\r\n    \r\n    address public admin;\r\n    \r\n    string public nombre;\r\n    \r\n    string public year;\r\n    \r\n    \r\n    //Pensar si meter idColegio e idMesa aqu\r\n    struct DatosVotante{\r\n        address direccion;\r\n        uint idColegio;\r\n        uint numeroMesa;\r\n        string nombre;\r\n        string calle;\r\n        string dni;\r\n        bool votado;\r\n    }\r\n\r\n    struct DatosPresidente{\r\n        string nombre;\r\n        address direccion;\r\n        uint numeroMesa;\r\n        uint idColegio;\r\n    }\r\n    \r\n    struct Partido{\r\n        string nombre;\r\n        uint votos;\r\n    }\r\n    \r\n    \r\n    //Como crear array dentro de struct\r\n  struct ColegioElectoral{\r\n      uint id;\r\n      string nombre;\r\n      address adminColegio;\r\n      string direccion;\r\n      uint numeroMesas;\r\n      uint numeroVotantes;\r\n      uint numeroVotos;\r\n  }\r\n    \r\n        \r\n  struct Mesa{\r\n      uint idColegio;\r\n      uint numeroMesa;\r\n      address presidente;\r\n      uint numeroVotantes;\r\n      uint numeroVotos;\r\n      bool actaFirmada;\r\n  }\r\n    \r\n    \r\n  \r\n    //Arrays con el total de votantes, partidos, presidentes ...\r\n    address[] public votantes;\r\n    string[] public partidos;\r\n    address[] public presidentes;\r\n    Mesa[] public mesas;\r\n    ColegioElectoral[] public colegios;\r\n        \r\n    mapping( address => DatosVotante) public datosVotante;\r\n    mapping( string => Partido) public datosPartidos;\r\n    mapping( uint => Mesa) public datosMesa;\r\n    mapping( uint => ColegioElectoral) public colegioElectoral;\r\n    //array que dado el indice de colegio, devuelve un array con los numeros de mesa de ese colegio.\r\n    mapping( uint => uint[]) public mesaColegio;\r\n    //array que dado un numero de mesa, te devuelve un array de direcciones de sus votantes.\r\n    mapping( uint => address[]) public votanteMesa;\r\n    mapping( address => DatosPresidente) public datosPresidente;\r\nconstructor(string memory _nombre, string memory _year){\r\n    \r\n    bytes memory bn = bytes(_nombre);\r\n    require(bn.length != 0, \"El nombre de estas elecciones no puede estar vacio\");\r\n    \r\n    bytes memory ba = bytes(_year);\r\n    require(ba.length !=0, \"El year de estas elecciones no puede estar vacio\");\r\n    \r\n    admin= msg.sender;\r\n    nombre= _nombre;\r\n    year= _year;\r\n    \r\n}\r\n\r\nmodifier onlyAdmin() {\r\n    require(msg.sender == admin ,\"Solo permitido al administrador\");\r\n    \r\n    _;\r\n}\r\n\r\nfunction creaPartido(string memory _nombrePartido) onlyAdmin public returns(uint){\r\n    bytes memory bn = bytes(_nombrePartido);\r\n    require(bn.length != 0, \"El nombre del partido no puede estar vacio\");\r\n    uint _votosIniciales = 0;\r\n    \r\n    require(partidoExiste(_nombrePartido) == false,\"El partido ya existe\");\r\n    \r\n    Partido memory datos= Partido(_nombrePartido,_votosIniciales);\r\n    datosPartidos[_nombrePartido]=datos;\r\n    partidos.push(_nombrePartido);\r\n    //partidos.push(Partido(_nombre,_votosIniciales));\r\n    return partidos.length-1;\r\n}\r\n\r\nfunction partidosLength() public view returns(uint) {\r\n        return partidos.length;\r\n    }\r\n    \r\nfunction partidoExiste(string memory _nombrePartido) private view returns(bool){\r\n         string memory _bnombre = datosPartidos[_nombrePartido].nombre;\r\n         \r\n         bytes memory b = bytes(_bnombre);\r\n         \r\n         return b.length != 0 ;\r\n     }\r\n\r\nfunction creaVotante(address _direccion,uint _numeroMesa, string memory _nombre, string memory _calle,string memory _dni) onlyAdmin public {\r\n        \r\n        \r\n        \r\n        bytes memory bn = bytes(_nombre);\r\n        require(bn.length != 0, \"El nombre no puede ser vacio\");\r\n        \r\n        bytes memory bc = bytes(_calle);\r\n        require(bc.length != 0, \"La calle no puede ser vacio\");\r\n        \r\n        bytes memory bdni = bytes(_nombre);\r\n        require(bdni.length != 0, \"El DNI no puede ser vacio\");\r\n        \r\n        bool _votado = false;\r\n        \r\n        require(votanteExiste(_direccion) == false,\"El votante ya existe\");\r\n        require(_votado == false, \"El usuario nuevo no debe haber votado\");\r\n        \r\n        uint _idColegio = datosMesa[_numeroMesa].idColegio;\r\n       \r\n        //creamos el nuevo votante con sus parametros iniciales\r\n        DatosVotante memory datos = DatosVotante(_direccion,_idColegio,_numeroMesa,_nombre, _calle,_dni,_votado);\r\n        datosVotante[_direccion]=(datos);\r\n        \r\n        //metemos el votante en el array global con todos los votantes, y luego en el arrya que asigna numero de mesa a votantes\r\n        votantes.push(_direccion);\r\n        votanteMesa[_numeroMesa].push(_direccion);\r\n        \r\n        mesas[_numeroMesa].numeroVotantes ++;\r\n        datosMesa[_numeroMesa].numeroVotantes ++;\r\n        colegios[_idColegio].numeroVotantes ++;\r\n        colegioElectoral[_idColegio].numeroVotantes ++;\r\n        \r\n        \r\n        \r\n    }\r\n    \r\n    function votanteExiste(address _direccion) private view returns(bool){\r\n         string memory _bnombre = datosVotante[_direccion].nombre;\r\n         \r\n         bytes memory b = bytes(_bnombre);\r\n         \r\n         return b.length != 0 ;\r\n     }\r\n\r\n\r\n    function votantesLength() public view returns(uint) {\r\n        return votantes.length;\r\n    }\r\n    \r\n    function votanteMesaLength(uint _numeroMesa) public view returns(uint) {\r\n        return votanteMesa[_numeroMesa].length;\r\n    }\r\n    \r\n    \r\n    function votaPartido(address _direccionVotante, string memory _partido) public{\r\n        \r\n        require(partidoExiste(_partido) == true,\"El partido no existe\");\r\n        require(votanteExiste(_direccionVotante) == true,\"El votante no existe\");\r\n        require(datosVotante[_direccionVotante].votado == false, \"El votante ya ha votado\");\r\n        datosPartidos[_partido].votos ++;\r\n        datosVotante[_direccionVotante].votado = true;\r\n        \r\n        //actualizar el numero de votos dentro de los colegios y las mesas correspondientes a ese votante;\r\n        mesas[datosVotante[_direccionVotante].numeroMesa].numeroVotos ++;\r\n        datosMesa[datosVotante[_direccionVotante].numeroMesa].numeroVotos ++;\r\n        colegios[datosVotante[_direccionVotante].idColegio].numeroVotos ++;\r\n        colegioElectoral[datosVotante[_direccionVotante].idColegio].numeroVotos ++;\r\n        \r\n    }\r\n\r\n\r\n\r\n/* \r\nFaltan comprobaciones de atributos , modificadores y si la mesa est creada\r\ncrear presidente aqu??? como crear address vaca\r\n*/\r\n    function creaMesa(uint _idColegio) onlyAdmin public{\r\n        \r\n        // bytes memory bc = bytes(_colegio);\r\n        // require(bc.length != 0, \"El colegio no puede ser vacio\");\r\n        \r\n        \r\n       // Array temporal, copia de las mesas que hay en el colegio dado en el parametro\r\n        \r\n        \r\n        \r\n        \r\n        address _presidente = 0x0000000000000000000000000000000000000000;\r\n        uint _numeroVotantes = 0;\r\n        uint _numeroVotos = 0;\r\n        bool _actaFirmada = false;\r\n        \r\n        require(_numeroVotos == 0, \"El numero de votos iniciales debe ser 0\");\r\n        require(_numeroVotantes == 0, \"El numero de votantes iniciales debe ser 0\");\r\n        \r\n        //Cogemos el length del numero de mesas de ese colegio, sera el numero de la nueva mesa\r\n        uint _numeroMesa = mesas.length;\r\n        \r\n        Mesa memory mesa = Mesa(_idColegio,_numeroMesa,_presidente,_numeroVotantes,_numeroVotos,_actaFirmada);\r\n        \r\n        datosMesa[_numeroMesa] = mesa;\r\n        \r\n        mesas.push(mesa);\r\n        \r\n        /*\r\n        Metemos la nueva mesa en el array temporal\r\n        despues metemos el array temporal con la nueva mesa en el colegio deseado\r\n        */\r\n        \r\n        mesaColegio[_idColegio].push(_numeroMesa);\r\n        colegios[_idColegio].numeroMesas++;\r\n        colegioElectoral[_idColegio].numeroMesas++;\r\n        \r\n    }\r\n    \r\n    function mesasLength() public view returns(uint) {\r\n        return mesas.length;\r\n    }\r\n    \r\n    \r\n    function creaColegio(uint id, string memory _nombre,string memory _direccion) onlyAdmin public{\r\n        \r\n        address _admin = admin;\r\n        uint numeroMesas = 0;\r\n        uint numeroVotantes = 0;\r\n        uint numeroVotos = 0;\r\n        \r\n        bytes memory bn = bytes(_nombre);\r\n        require(bn.length != 0, \"El nombre no puede ser vacio\");\r\n        \r\n        bytes memory bd = bytes(_direccion);\r\n        require(bd.length != 0, \"El nombre no puede ser vacio\");\r\n        \r\n        require(colegioExiste(id) == false,\"El colegio ya existe\");\r\n        \r\n        ColegioElectoral memory colegio = ColegioElectoral(id,_nombre,_admin,_direccion,numeroMesas,numeroVotantes,numeroVotos);\r\n        colegioElectoral[id]= colegio;\r\n        colegios.push(colegio);\r\n        \r\n        \r\n        \r\n    }\r\n    \r\n    /*\r\n    comprobar si existe el colegio, introducimos el id, comprobamos si en ese id hay un nombre, si tiene algun byte, entonces devuelve true, es decir, hay colegio\r\n    */\r\n    \r\n     function colegioExiste(uint id) private view returns(bool){\r\n         string memory _bnombre = colegioElectoral[id].nombre;\r\n         \r\n         bytes memory b = bytes(_bnombre);\r\n         \r\n         return b.length != 0 ;\r\n     }\r\n    \r\n    \r\n    \r\n    \r\n    \r\n    /*\r\n    \r\n    - meter presidente en colegioMesa\r\n    -Que pasa si creo el mismo presidente en otra mesa??\r\n    \r\n    */\r\n    function asignaPresidenteMesa(string memory _nombre,address _direccionPresidente,uint  _numeroMesa) onlyAdmin public{\r\n        \r\n        \r\n        \r\n        datosMesa[_numeroMesa].presidente = _direccionPresidente;\r\n        mesas[_numeroMesa].presidente =_direccionPresidente;\r\n        presidentes.push(_direccionPresidente);\r\n        uint _idColegio = mesas[_numeroMesa].idColegio;\r\n        datosPresidente[_direccionPresidente] = DatosPresidente(_nombre,_direccionPresidente,_numeroMesa,_idColegio);\r\n    }\r\n\r\n    function presidenteExiste(address _direccion) public view returns(bool){\r\n         string memory _bnombre = datosPresidente[_direccion].nombre;\r\n         \r\n         bytes memory b = bytes(_bnombre);\r\n         \r\n         return b.length != 0 ;\r\n     }\r\n    \r\n    function quienSoy()  public view returns (string memory _nombre, address _direccion,uint _idColegio, uint _numeroMesa,string memory _rol) {\r\n        DatosVotante memory datosV = datosVotante[msg.sender];\r\n        DatosPresidente memory datosP = datosPresidente[msg.sender];\r\n        if(votanteExiste(msg.sender) == true){\r\n            _nombre = datosV.nombre;\r\n            _direccion = datosV.direccion;\r\n            _idColegio = datosV.idColegio;\r\n            _numeroMesa= datosV.numeroMesa;\r\n            _rol = \"Votante\";\r\n        }else if(presidenteExiste(msg.sender)){\r\n            _nombre = datosP.nombre;\r\n            _direccion = datosP.direccion;\r\n            _idColegio = datosP.idColegio;\r\n            _numeroMesa= datosP.numeroMesa;\r\n            _rol = \"Presidente\";\r\n        }else if(msg.sender == admin){\r\n        _nombre=\"admin\";\r\n        _direccion=admin;\r\n        _idColegio=0;\r\n        _numeroMesa=0;\r\n        _rol=\"Administrador\";\r\n        }else{\r\n        _nombre=\"Usuario no registrado\";\r\n        _direccion=0x0000000000000000000000000000000000000000;\r\n        _idColegio=0;\r\n        _numeroMesa=0;\r\n        _rol=\"Usuario no registrado\";    \r\n        }\r\n    }\r\n    \r\n    \r\n    function uint2str(uint _i) internal pure returns (string memory _uintAsString) {\r\n        if (_i == 0) {\r\n            return \"0\";\r\n        }\r\n            uint j = _i;\r\n            uint len;\r\n                while (j != 0) {\r\n                    len++;\r\n                    j /= 10;\r\n                }\r\n            bytes memory bstr = new bytes(len);\r\n            uint k = len - 1;\r\n                while (_i != 0) {\r\n                    bstr[k--] = byte(uint8(48 + _i % 10));\r\n                    _i /= 10;\r\n                }\r\n        return string(bstr);\r\n    }\r\n\r\n}",
  "sourcePath": "C:/Users/jaime/tfg/EleccionesDemo/contracts/Elecciones.sol",
  "compiler": {
    "name": "solc",
    "version": "0.7.4+commit.3f05b770.Emscripten.clang"
  },
  "schemaVersion": "3.3.3",
  "updatedAt": "2021-05-19T20:51:57.115Z",
  "networkType": "ethereum",
  "devdoc": {
    "kind": "dev",
    "methods": {},
    "version": 1
  },
  "userdoc": {
    "kind": "user",
    "methods": {},
    "version": 1
  }
}