{
  "contractName": "Elecciones",
  "abi": [
    {
      "inputs": [
        {
          "internalType": "string",
          "name": "_nombre",
          "type": "string"
        },
        {
          "internalType": "string",
          "name": "_year",
          "type": "string"
        }
      ],
      "stateMutability": "nonpayable",
      "type": "constructor"
    },
    {
      "inputs": [],
      "name": "admin",
      "outputs": [
        {
          "internalType": "address",
          "name": "",
          "type": "address"
        }
      ],
      "stateMutability": "view",
      "type": "function",
      "constant": true
    },
    {
      "inputs": [
        {
          "internalType": "uint256",
          "name": "",
          "type": "uint256"
        }
      ],
      "name": "colegioElectoral",
      "outputs": [
        {
          "internalType": "string",
          "name": "nombre",
          "type": "string"
        },
        {
          "internalType": "address",
          "name": "admin",
          "type": "address"
        },
        {
          "internalType": "string",
          "name": "direccion",
          "type": "string"
        },
        {
          "internalType": "uint256",
          "name": "numeroMesas",
          "type": "uint256"
        },
        {
          "internalType": "uint256",
          "name": "numeroVotantes",
          "type": "uint256"
        },
        {
          "internalType": "uint256",
          "name": "numeroVotos",
          "type": "uint256"
        }
      ],
      "stateMutability": "view",
      "type": "function",
      "constant": true
    },
    {
      "inputs": [
        {
          "internalType": "uint256",
          "name": "",
          "type": "uint256"
        }
      ],
      "name": "datosMesa",
      "outputs": [
        {
          "internalType": "uint256",
          "name": "numero",
          "type": "uint256"
        },
        {
          "internalType": "address",
          "name": "presidente",
          "type": "address"
        },
        {
          "internalType": "string",
          "name": "colegio",
          "type": "string"
        },
        {
          "internalType": "uint256",
          "name": "numeroVotantes",
          "type": "uint256"
        },
        {
          "internalType": "uint256",
          "name": "numeroVotos",
          "type": "uint256"
        },
        {
          "internalType": "bool",
          "name": "actaFirmada",
          "type": "bool"
        }
      ],
      "stateMutability": "view",
      "type": "function",
      "constant": true
    },
    {
      "inputs": [
        {
          "internalType": "string",
          "name": "",
          "type": "string"
        }
      ],
      "name": "datosPartidos",
      "outputs": [
        {
          "internalType": "string",
          "name": "nombre",
          "type": "string"
        },
        {
          "internalType": "uint256",
          "name": "votos",
          "type": "uint256"
        }
      ],
      "stateMutability": "view",
      "type": "function",
      "constant": true
    },
    {
      "inputs": [
        {
          "internalType": "address",
          "name": "",
          "type": "address"
        }
      ],
      "name": "datosVotante",
      "outputs": [
        {
          "internalType": "string",
          "name": "direccion",
          "type": "string"
        },
        {
          "internalType": "string",
          "name": "nombre",
          "type": "string"
        },
        {
          "internalType": "string",
          "name": "calle",
          "type": "string"
        },
        {
          "internalType": "string",
          "name": "dni",
          "type": "string"
        },
        {
          "internalType": "bool",
          "name": "votado",
          "type": "bool"
        }
      ],
      "stateMutability": "view",
      "type": "function",
      "constant": true
    },
    {
      "inputs": [
        {
          "internalType": "uint256",
          "name": "",
          "type": "uint256"
        }
      ],
      "name": "mesas",
      "outputs": [
        {
          "internalType": "uint256",
          "name": "",
          "type": "uint256"
        }
      ],
      "stateMutability": "view",
      "type": "function",
      "constant": true
    },
    {
      "inputs": [],
      "name": "nombre",
      "outputs": [
        {
          "internalType": "string",
          "name": "",
          "type": "string"
        }
      ],
      "stateMutability": "view",
      "type": "function",
      "constant": true
    },
    {
      "inputs": [
        {
          "internalType": "uint256",
          "name": "",
          "type": "uint256"
        }
      ],
      "name": "partidos",
      "outputs": [
        {
          "internalType": "string",
          "name": "",
          "type": "string"
        }
      ],
      "stateMutability": "view",
      "type": "function",
      "constant": true
    },
    {
      "inputs": [
        {
          "internalType": "uint256",
          "name": "",
          "type": "uint256"
        }
      ],
      "name": "presidentes",
      "outputs": [
        {
          "internalType": "address",
          "name": "",
          "type": "address"
        }
      ],
      "stateMutability": "view",
      "type": "function",
      "constant": true
    },
    {
      "inputs": [
        {
          "internalType": "uint256",
          "name": "",
          "type": "uint256"
        }
      ],
      "name": "votantes",
      "outputs": [
        {
          "internalType": "address",
          "name": "",
          "type": "address"
        }
      ],
      "stateMutability": "view",
      "type": "function",
      "constant": true
    },
    {
      "inputs": [],
      "name": "year",
      "outputs": [
        {
          "internalType": "string",
          "name": "",
          "type": "string"
        }
      ],
      "stateMutability": "view",
      "type": "function",
      "constant": true
    },
    {
      "inputs": [
        {
          "internalType": "string",
          "name": "_nombre",
          "type": "string"
        }
      ],
      "name": "creaPartido",
      "outputs": [
        {
          "internalType": "uint256",
          "name": "",
          "type": "uint256"
        }
      ],
      "stateMutability": "nonpayable",
      "type": "function"
    },
    {
      "inputs": [
        {
          "internalType": "string",
          "name": "_direccion",
          "type": "string"
        },
        {
          "internalType": "string",
          "name": "_nombre",
          "type": "string"
        },
        {
          "internalType": "string",
          "name": "_calle",
          "type": "string"
        },
        {
          "internalType": "string",
          "name": "_dni",
          "type": "string"
        }
      ],
      "name": "creaVotante",
      "outputs": [],
      "stateMutability": "nonpayable",
      "type": "function"
    },
    {
      "inputs": [
        {
          "internalType": "address",
          "name": "_direccionVotante",
          "type": "address"
        },
        {
          "internalType": "string",
          "name": "_partido",
          "type": "string"
        }
      ],
      "name": "votaPartido",
      "outputs": [],
      "stateMutability": "nonpayable",
      "type": "function"
    },
    {
      "inputs": [
        {
          "internalType": "address",
          "name": "_presidente",
          "type": "address"
        },
        {
          "internalType": "string",
          "name": "_colegio",
          "type": "string"
        }
      ],
      "name": "creaMesa",
      "outputs": [],
      "stateMutability": "nonpayable",
      "type": "function"
    },
    {
      "inputs": [
        {
          "internalType": "address",
          "name": "_direccionPresidente",
          "type": "address"
        },
        {
          "internalType": "uint256",
          "name": "_numeroMesa",
          "type": "uint256"
        }
      ],
      "name": "presidenteMesa",
      "outputs": [],
      "stateMutability": "nonpayable",
      "type": "function"
    }
  ],
  "bytecode": "0x60806040523480156200001157600080fd5b506040516200285d3803806200285d833981810160405260408110156200003757600080fd5b81019080805160405193929190846401000000008211156200005857600080fd5b838201915060208201858111156200006f57600080fd5b82518660018202830111640100000000821117156200008d57600080fd5b8083526020830192505050908051906020019080838360005b83811015620000c3578082015181840152602081019050620000a6565b50505050905090810190601f168015620000f15780820380516001836020036101000a031916815260200191505b50604052602001805160405193929190846401000000008211156200011557600080fd5b838201915060208201858111156200012c57600080fd5b82518660018202830111640100000000821117156200014a57600080fd5b8083526020830192505050908051906020019080838360005b838110156200018057808201518184015260208101905062000163565b50505050905090810190601f168015620001ae5780820380516001836020036101000a031916815260200191505b50604052505050606082905060008151141562000217576040517f08c379a00000000000000000000000000000000000000000000000000000000081526004018080602001828103825260328152602001806200282b6032913960400191505060405180910390fd5b606082905060008151141562000279576040517f08c379a0000000000000000000000000000000000000000000000000000000008152600401808060200182810382526030815260200180620027fb6030913960400191505060405180910390fd5b336000806101000a81548173ffffffffffffffffffffffffffffffffffffffff021916908373ffffffffffffffffffffffffffffffffffffffff1602179055508360019080519060200190620002d1929190620002f5565b508260029080519060200190620002ea929190620002f5565b5050505050620003ab565b828054600181600116156101000203166002900490600052602060002090601f0160209004810192826200032d576000855562000379565b82601f106200034857805160ff191683800117855562000379565b8280016001018555821562000379579182015b82811115620003785782518255916020019190600101906200035b565b5b5090506200038891906200038c565b5090565b5b80821115620003a75760008160009055506001016200038d565b5090565b61244080620003bb6000396000f3fe608060405234801561001057600080fd5b50600436106101005760003560e01c80635b94ea1011610097578063e0e2e8f211610066578063e0e2e8f214610956578063f197b32914610b60578063f326971614610de0578063f851a44014610e6357610100565b80635b94ea101461067d578063bc7b35b2146106bf578063c5c204e314610742578063d8f0d1c21461088757610100565b80632e03f838116100d35780632e03f838146103eb5780633463574f1461044357806338bfab431461057e57806340deb070146105d657610100565b80630c57c4fa146101055780631c760e0e146101e057806325a4cf40146102c2578063292ff6e914610310575b600080fd5b6101de6004803603604081101561011b57600080fd5b81019080803573ffffffffffffffffffffffffffffffffffffffff1690602001909291908035906020019064010000000081111561015857600080fd5b82018360208201111561016a57600080fd5b8035906020019184600183028401116401000000008311171561018c57600080fd5b91908080601f016020809104026020016040519081016040528093929190818152602001838380828437600081840152601f19601f820116905080830192505050505050509192919290505050610e97565b005b61020c600480360360208110156101f657600080fd5b810190808035906020019092919050505061103b565b604051808781526020018673ffffffffffffffffffffffffffffffffffffffff168152602001806020018581526020018481526020018315158152602001828103825286818151815260200191508051906020019080838360005b83811015610282578082015181840152602081019050610267565b50505050905090810190601f1680156102af5780820380516001836020036101000a031916815260200191505b5097505050505050505060405180910390f35b61030e600480360360408110156102d857600080fd5b81019080803573ffffffffffffffffffffffffffffffffffffffff1690602001909291908035906020019092919050505061113c565b005b6103e96004803603604081101561032657600080fd5b81019080803573ffffffffffffffffffffffffffffffffffffffff1690602001909291908035906020019064010000000081111561036357600080fd5b82018360208201111561037557600080fd5b8035906020019184600183028401116401000000008311171561039757600080fd5b91908080601f016020809104026020016040519081016040528093929190818152602001838380828437600081840152601f19601f8201169050808301925050505050505091929192905050506111f8565b005b6104176004803603602081101561040157600080fd5b8101908080359060200190929190505050611474565b604051808273ffffffffffffffffffffffffffffffffffffffff16815260200191505060405180910390f35b6104fc6004803603602081101561045957600080fd5b810190808035906020019064010000000081111561047657600080fd5b82018360208201111561048857600080fd5b803590602001918460018302840111640100000000831117156104aa57600080fd5b91908080601f016020809104026020016040519081016040528093929190818152602001838380828437600081840152601f19601f8201169050808301925050505050505091929192905050506114b3565b6040518080602001838152602001828103825284818151815260200191508051906020019080838360005b83811015610542578082015181840152602081019050610527565b50505050905090810190601f16801561056f5780820380516001836020036101000a031916815260200191505b50935050505060405180910390f35b6105aa6004803603602081101561059457600080fd5b8101908080359060200190929190505050611585565b604051808273ffffffffffffffffffffffffffffffffffffffff16815260200191505060405180910390f35b610602600480360360208110156105ec57600080fd5b81019080803590602001909291905050506115c4565b6040518080602001828103825283818151815260200191508051906020019080838360005b83811015610642578082015181840152602081019050610627565b50505050905090810190601f16801561066f5780820380516001836020036101000a031916815260200191505b509250505060405180910390f35b6106a96004803603602081101561069357600080fd5b8101908080359060200190929190505050611680565b6040518082815260200191505060405180910390f35b6106c76116a4565b6040518080602001828103825283818151815260200191508051906020019080838360005b838110156107075780820151818401526020810190506106ec565b50505050905090810190601f1680156107345780820380516001836020036101000a031916815260200191505b509250505060405180910390f35b61076e6004803603602081101561075857600080fd5b8101908080359060200190929190505050611742565b60405180806020018773ffffffffffffffffffffffffffffffffffffffff16815260200180602001868152602001858152602001848152602001838103835289818151815260200191508051906020019080838360005b838110156107e05780820151818401526020810190506107c5565b50505050905090810190601f16801561080d5780820380516001836020036101000a031916815260200191505b50838103825287818151815260200191508051906020019080838360005b8381101561084657808201518184015260208101905061082b565b50505050905090810190601f1680156108735780820380516001836020036101000a031916815260200191505b509850505050505050505060405180910390f35b6109406004803603602081101561089d57600080fd5b81019080803590602001906401000000008111156108ba57600080fd5b8201836020820111156108cc57600080fd5b803590602001918460018302840111640100000000831117156108ee57600080fd5b91908080601f016020809104026020016040519081016040528093929190818152602001838380828437600081840152601f19601f8201169050808301925050505050505091929192905050506118ce565b6040518082815260200191505060405180910390f35b6109986004803603602081101561096c57600080fd5b81019080803573ffffffffffffffffffffffffffffffffffffffff169060200190929190505050611af6565b6040518080602001806020018060200180602001861515815260200185810385528a818151815260200191508051906020019080838360005b838110156109ec5780820151818401526020810190506109d1565b50505050905090810190601f168015610a195780820380516001836020036101000a031916815260200191505b50858103845289818151815260200191508051906020019080838360005b83811015610a52578082015181840152602081019050610a37565b50505050905090810190601f168015610a7f5780820380516001836020036101000a031916815260200191505b50858103835288818151815260200191508051906020019080838360005b83811015610ab8578082015181840152602081019050610a9d565b50505050905090810190601f168015610ae55780820380516001836020036101000a031916815260200191505b50858103825287818151815260200191508051906020019080838360005b83811015610b1e578082015181840152602081019050610b03565b50505050905090810190601f168015610b4b5780820380516001836020036101000a031916815260200191505b50995050505050505050505060405180910390f35b610dde60048036036080811015610b7657600080fd5b8101908080359060200190640100000000811115610b9357600080fd5b820183602082011115610ba557600080fd5b80359060200191846001830284011164010000000083111715610bc757600080fd5b91908080601f016020809104026020016040519081016040528093929190818152602001838380828437600081840152601f19601f82011690508083019250505050505050919291929080359060200190640100000000811115610c2a57600080fd5b820183602082011115610c3c57600080fd5b80359060200191846001830284011164010000000083111715610c5e57600080fd5b91908080601f016020809104026020016040519081016040528093929190818152602001838380828437600081840152601f19601f82011690508083019250505050505050919291929080359060200190640100000000811115610cc157600080fd5b820183602082011115610cd357600080fd5b80359060200191846001830284011164010000000083111715610cf557600080fd5b91908080601f016020809104026020016040519081016040528093929190818152602001838380828437600081840152601f19601f82011690508083019250505050505050919291929080359060200190640100000000811115610d5857600080fd5b820183602082011115610d6a57600080fd5b80359060200191846001830284011164010000000083111715610d8c57600080fd5b91908080601f016020809104026020016040519081016040528093929190818152602001838380828437600081840152601f19601f820116905080830192505050505050509192919290505050611d99565b005b610de8612164565b6040518080602001828103825283818151815260200191508051906020019080838360005b83811015610e28578082015181840152602081019050610e0d565b50505050905090810190601f168015610e555780820380516001836020036101000a031916815260200191505b509250505060405180910390f35b610e6b612202565b604051808273ffffffffffffffffffffffffffffffffffffffff16815260200191505060405180910390f35b60001515600760008473ffffffffffffffffffffffffffffffffffffffff1673ffffffffffffffffffffffffffffffffffffffff16815260200190815260200160002060040160009054906101000a900460ff16151514610f60576040517f08c379a00000000000000000000000000000000000000000000000000000000081526004018080602001828103825260178152602001807f456c20766f74616e746520796120686120766f7461646f00000000000000000081525060200191505060405180910390fd5b6008816040518082805190602001908083835b60208310610f965780518252602082019150602081019050602083039250610f73565b6001836020036101000a0380198251168184511680821785525050505050509050019150509081526020016040518091039020600101600081548092919060010191905055506001600760008473ffffffffffffffffffffffffffffffffffffffff1673ffffffffffffffffffffffffffffffffffffffff16815260200190815260200160002060040160006101000a81548160ff0219169083151502179055505050565b60096020528060005260406000206000915090508060000154908060010160009054906101000a900473ffffffffffffffffffffffffffffffffffffffff1690806002018054600181600116156101000203166002900480601f0160208091040260200160405190810160405280929190818152602001828054600181600116156101000203166002900480156111135780601f106110e857610100808354040283529160200191611113565b820191906000526020600020905b8154815290600101906020018083116110f657829003601f168201915b5050505050908060030154908060040154908060050160009054906101000a900460ff16905086565b816009600083815260200190815260200160002060010160006101000a81548173ffffffffffffffffffffffffffffffffffffffff021916908373ffffffffffffffffffffffffffffffffffffffff1602179055506006829080600181540180825580915050600190039060005260206000200160009091909190916101000a81548173ffffffffffffffffffffffffffffffffffffffff021916908373ffffffffffffffffffffffffffffffffffffffff1602179055505050565b6060819050600081511415611275576040517f08c379a000000000000000000000000000000000000000000000000000000000815260040180806020018281038252601d8152602001807f456c20636f6c6567696f206e6f2070756564652073657220766163696f00000081525060200191505060405180910390fd5b60008060006001905060008083146112d8576040517f08c379a000000000000000000000000000000000000000000000000000000000815260040180806020018281038252602781526020018061236b6027913960400191505060405180910390fd5b60008414611331576040517f08c379a000000000000000000000000000000000000000000000000000000000815260040180806020018281038252602a8152602001806123e1602a913960400191505060405180910390fd5b6005805490509150611341612226565b6040518060c001604052808481526020018973ffffffffffffffffffffffffffffffffffffffff168152602001888152602001868152602001858152602001831515815250905080600960008581526020019081526020016000206000820151816000015560208201518160010160006101000a81548173ffffffffffffffffffffffffffffffffffffffff021916908373ffffffffffffffffffffffffffffffffffffffff1602179055506040820151816002019080519060200190611409929190612274565b50606082015181600301556080820151816004015560a08201518160050160006101000a81548160ff02191690831515021790555090505060058390806001815401808255809150506001900390600052602060002001600090919091909150555050505050505050565b6003818154811061148457600080fd5b906000526020600020016000915054906101000a900473ffffffffffffffffffffffffffffffffffffffff1681565b600881805160208101820180518482526020830160208501208183528095505050505050600091509050806000018054600181600116156101000203166002900480601f0160208091040260200160405190810160405280929190818152602001828054600181600116156101000203166002900480156115755780601f1061154a57610100808354040283529160200191611575565b820191906000526020600020905b81548152906001019060200180831161155857829003601f168201915b5050505050908060010154905082565b6006818154811061159557600080fd5b906000526020600020016000915054906101000a900473ffffffffffffffffffffffffffffffffffffffff1681565b600481815481106115d457600080fd5b906000526020600020016000915090508054600181600116156101000203166002900480601f0160208091040260200160405190810160405280929190818152602001828054600181600116156101000203166002900480156116785780601f1061164d57610100808354040283529160200191611678565b820191906000526020600020905b81548152906001019060200180831161165b57829003601f168201915b505050505081565b6005818154811061169057600080fd5b906000526020600020016000915090505481565b60018054600181600116156101000203166002900480601f01602080910402602001604051908101604052809291908181526020018280546001816001161561010002031660029004801561173a5780601f1061170f5761010080835404028352916020019161173a565b820191906000526020600020905b81548152906001019060200180831161171d57829003601f168201915b505050505081565b600a602052806000526040600020600091509050806000018054600181600116156101000203166002900480601f0160208091040260200160405190810160405280929190818152602001828054600181600116156101000203166002900480156117ee5780601f106117c3576101008083540402835291602001916117ee565b820191906000526020600020905b8154815290600101906020018083116117d157829003601f168201915b5050505050908060010160009054906101000a900473ffffffffffffffffffffffffffffffffffffffff1690806002018054600181600116156101000203166002900480601f0160208091040260200160405190810160405280929190818152602001828054600181600116156101000203166002900480156118b25780601f10611887576101008083540402835291602001916118b2565b820191906000526020600020905b81548152906001019060200180831161189557829003601f168201915b5050505050908060030154908060040154908060050154905086565b60008060009054906101000a900473ffffffffffffffffffffffffffffffffffffffff1673ffffffffffffffffffffffffffffffffffffffff163373ffffffffffffffffffffffffffffffffffffffff1614611992576040517f08c379a000000000000000000000000000000000000000000000000000000000815260040180806020018281038252600d8152602001807f6e6f20657265732061646d696e0000000000000000000000000000000000000081525060200191505060405180910390fd5b60608290506000815114156119f2576040517f08c379a000000000000000000000000000000000000000000000000000000000815260040180806020018281038252602a8152602001806123b7602a913960400191505060405180910390fd5b60006119fc612302565b6040518060400160405280868152602001838152509050806008866040518082805190602001908083835b60208310611a4a5780518252602082019150602081019050602083039250611a27565b6001836020036101000a03801982511681845116808217855250505050505090500191505090815260200160405180910390206000820151816000019080519060200190611a99929190612274565b5060208201518160010155905050600485908060018154018082558091505060019003906000526020600020016000909190919091509080519060200190611ae2929190612274565b506001600480549050039350505050919050565b6007602052806000526040600020600091509050806000018054600181600116156101000203166002900480601f016020809104026020016040519081016040528092919081815260200182805460018160011615610100020316600290048015611ba25780601f10611b7757610100808354040283529160200191611ba2565b820191906000526020600020905b815481529060010190602001808311611b8557829003601f168201915b505050505090806001018054600181600116156101000203166002900480601f016020809104026020016040519081016040528092919081815260200182805460018160011615610100020316600290048015611c405780601f10611c1557610100808354040283529160200191611c40565b820191906000526020600020905b815481529060010190602001808311611c2357829003601f168201915b505050505090806002018054600181600116156101000203166002900480601f016020809104026020016040519081016040528092919081815260200182805460018160011615610100020316600290048015611cde5780601f10611cb357610100808354040283529160200191611cde565b820191906000526020600020905b815481529060010190602001808311611cc157829003601f168201915b505050505090806003018054600181600116156101000203166002900480601f016020809104026020016040519081016040528092919081815260200182805460018160011615610100020316600290048015611d7c5780601f10611d5157610100808354040283529160200191611d7c565b820191906000526020600020905b815481529060010190602001808311611d5f57829003601f168201915b5050505050908060040160009054906101000a900460ff16905085565b6060849050600081511415611e16576040517f08c379a000000000000000000000000000000000000000000000000000000000815260040180806020018281038252601f8152602001807f4c6120646972656363696f6e206e6f2070756564652073657220766163696f0081525060200191505060405180910390fd5b6060849050600081511415611e93576040517f08c379a000000000000000000000000000000000000000000000000000000000815260040180806020018281038252601c8152602001807f456c206e6f6d627265206e6f2070756564652073657220766163696f0000000081525060200191505060405180910390fd5b6060849050600081511415611f10576040517f08c379a000000000000000000000000000000000000000000000000000000000815260040180806020018281038252601b8152602001807f4c612063616c6c65206e6f2070756564652073657220766163696f000000000081525060200191505060405180910390fd5b6060869050600081511415611f8d576040517f08c379a00000000000000000000000000000000000000000000000000000000081526004018080602001828103825260198152602001807f456c20444e49206e6f2070756564652073657220766163696f0000000000000081525060200191505060405180910390fd5b600080151581151514611feb576040517f08c379a00000000000000000000000000000000000000000000000000000000081526004018080602001828103825260258152602001806123926025913960400191505060405180910390fd5b611ff361231c565b6040518060a001604052808b81526020018a8152602001898152602001888152602001831515815250905080600760003373ffffffffffffffffffffffffffffffffffffffff1673ffffffffffffffffffffffffffffffffffffffff168152602001908152602001600020600082015181600001908051906020019061207a929190612274565b506020820151816001019080519060200190612097929190612274565b5060408201518160020190805190602001906120b4929190612274565b5060608201518160030190805190602001906120d1929190612274565b5060808201518160040160006101000a81548160ff0219169083151502179055509050506003339080600181540180825580915050600190039060005260206000200160009091909190916101000a81548173ffffffffffffffffffffffffffffffffffffffff021916908373ffffffffffffffffffffffffffffffffffffffff16021790555050505050505050505050565b60028054600181600116156101000203166002900480601f0160208091040260200160405190810160405280929190818152602001828054600181600116156101000203166002900480156121fa5780601f106121cf576101008083540402835291602001916121fa565b820191906000526020600020905b8154815290600101906020018083116121dd57829003601f168201915b505050505081565b60008054906101000a900473ffffffffffffffffffffffffffffffffffffffff1681565b6040518060c0016040528060008152602001600073ffffffffffffffffffffffffffffffffffffffff1681526020016060815260200160008152602001600081526020016000151581525090565b828054600181600116156101000203166002900490600052602060002090601f0160209004810192826122aa57600085556122f1565b82601f106122c357805160ff19168380011785556122f1565b828001600101855582156122f1579182015b828111156122f05782518255916020019190600101906122d5565b5b5090506122fe919061234d565b5090565b604051806040016040528060608152602001600081525090565b6040518060a00160405280606081526020016060815260200160608152602001606081526020016000151581525090565b5b8082111561236657600081600090555060010161234e565b509056fe456c206e756d65726f20646520766f746f7320696e696369616c65732064656265207365722030456c207573756172696f206e7565766f206e6f206465626520686162657220766f7461646f456c206e6f6d6272652064656c207061727469646f206e6f20707565646520657374617220766163696f456c206e756d65726f20646520766f74616e74657320696e696369616c65732064656265207365722030a26469706673582212203b253ce346c3e0892b244e1ea06bd6bf897aa7985e9b18e04794721515ac640e64736f6c63430007040033456c207965617220646520657374617320656c656363696f6e6573206e6f20707565646520657374617220766163696f456c206e6f6d62726520646520657374617320656c656363696f6e6573206e6f20707565646520657374617220766163696f",
  "immutableReferences": {},
  "source": "// SPDX-License-Identifier: UNLICENSED\r\npragma solidity ^0.7.4;\r\n\r\ncontract Elecciones {\r\n    \r\n    address public admin;\r\n    \r\n    string public nombre;\r\n    \r\n    string public year;\r\n    \r\n    struct DatosVotante{\r\n        string direccion;\r\n        string nombre;\r\n        string calle;\r\n        string dni;\r\n        bool votado;\r\n    }\r\n    \r\n    struct Partido{\r\n        string nombre;\r\n        uint votos;\r\n    }\r\n    \r\n    \r\n    \r\n  struct ColegioElectoral{\r\n      string nombre;\r\n      address admin;\r\n      string direccion;\r\n      uint numeroMesas;\r\n      uint numeroVotantes;\r\n      uint numeroVotos;\r\n  }\r\n    \r\n        \r\n  struct Mesa{\r\n      uint numero;\r\n      address presidente;\r\n      string colegio;\r\n      uint numeroVotantes;\r\n      uint numeroVotos;\r\n      bool actaFirmada;\r\n  }\r\n    \r\n    //Partido[] public partidos;\r\n    \r\n  \r\n    \r\n    address[] public votantes;\r\n    string[] public partidos;\r\n    uint[] public mesas;\r\n    address[] public presidentes;\r\n    mapping( address => DatosVotante) public datosVotante;\r\n    mapping( string => Partido) public datosPartidos;\r\n    mapping( uint => Mesa) public datosMesa;\r\n    mapping( uint => ColegioElectoral) public colegioElectoral;\r\n\r\nconstructor(string memory _nombre, string memory _year){\r\n    \r\n    bytes memory bn = bytes(_nombre);\r\n    require(bn.length != 0, \"El nombre de estas elecciones no puede estar vacio\");\r\n    \r\n    bytes memory ba = bytes(_year);\r\n    require(ba.length !=0, \"El year de estas elecciones no puede estar vacio\");\r\n    \r\n    admin= msg.sender;\r\n    nombre= _nombre;\r\n    year= _year;\r\n    \r\n}\r\n\r\nmodifier onlyAdmin() {\r\n    require(msg.sender == admin ,\"no eres admin\");\r\n    _;\r\n}\r\n\r\nfunction creaPartido(string memory _nombre) public onlyAdmin returns(uint){\r\n    bytes memory bn = bytes(_nombre);\r\n    require(bn.length != 0, \"El nombre del partido no puede estar vacio\");\r\n    uint _votosIniciales = 0;\r\n    \r\n    \r\n    Partido memory datos= Partido(_nombre,_votosIniciales);\r\n    datosPartidos[_nombre]=datos;\r\n    partidos.push(_nombre);\r\n    //partidos.push(Partido(_nombre,_votosIniciales));\r\n    return partidos.length-1;\r\n}\r\n\r\nfunction creaVotante(string memory _direccion, string memory _nombre, string memory _calle,string memory _dni) public {\r\n        \r\n        bytes memory bd = bytes(_direccion);\r\n        require(bd.length != 0, \"La direccion no puede ser vacio\");\r\n        \r\n        bytes memory bn = bytes(_nombre);\r\n        require(bn.length != 0, \"El nombre no puede ser vacio\");\r\n        \r\n        bytes memory bc = bytes(_calle);\r\n        require(bc.length != 0, \"La calle no puede ser vacio\");\r\n        \r\n        bytes memory bdni = bytes(_nombre);\r\n        require(bdni.length != 0, \"El DNI no puede ser vacio\");\r\n        \r\n        bool _votado = false;\r\n        \r\n        require(_votado == false, \"El usuario nuevo no debe haber votado\");\r\n        \r\n       \r\n        \r\n        DatosVotante memory datos = DatosVotante(_direccion,_nombre, _calle,_dni,_votado);\r\n        \r\n        datosVotante[msg.sender] = datos;\r\n        \r\n        votantes.push(msg.sender);\r\n        \r\n    }\r\n    \r\n    function votaPartido(address _direccionVotante, string memory _partido) public{\r\n        \r\n        \r\n        require(datosVotante[_direccionVotante].votado == false, \"El votante ya ha votado\");\r\n        \r\n        datosPartidos[_partido].votos ++;\r\n        datosVotante[_direccionVotante].votado = true;\r\n    }\r\n\r\n\r\n\r\n/* \r\nFaltan comprobaciones de atributos , modificadores y si la mesa est creada\r\ncrear presidente aqu??? como crear address vaca\r\n*/\r\n    function creaMesa(address _presidente,string memory _colegio) public{\r\n        \r\n        bytes memory bc = bytes(_colegio);\r\n        require(bc.length != 0, \"El colegio no puede ser vacio\");\r\n        \r\n        \r\n        \r\n        \r\n        \r\n        uint _numeroVotantes = 0;\r\n        uint _numeroVotos = 0;\r\n        uint _numero = 1;\r\n        bool _actaFirmada = false;\r\n        \r\n        require(_numeroVotos == 0, \"El numero de votos iniciales debe ser 0\");\r\n        require(_numeroVotantes == 0, \"El numero de votantes iniciales debe ser 0\");\r\n        \r\n       _numero = mesas.length;\r\n        \r\n        Mesa memory mesa = Mesa(_numero,_presidente,_colegio, _numeroVotantes,_numeroVotos,_actaFirmada);\r\n        \r\n        datosMesa[_numero] = mesa;\r\n        \r\n        mesas.push(_numero);\r\n        \r\n    }\r\n    \r\n    \r\n    /*\r\n    \r\n    Asigna presidente a la mesa, pero si la mesa no est creada, la crea solo con el presidente\r\n    Que pasa si creo el mismo presidente en otra mesa??\r\n    \r\n    */\r\n    function presidenteMesa(address _direccionPresidente,uint  _numeroMesa) public{\r\n        \r\n        \r\n        \r\n        datosMesa[_numeroMesa].presidente = _direccionPresidente;\r\n        presidentes.push(_direccionPresidente);\r\n        \r\n    }\r\n\r\n}",
  "sourcePath": "C:/Users/jaime/tfg/EleccionesDemo/contracts/Elecciones.sol",
  "compiler": {
    "name": "solc",
    "version": "0.7.4+commit.3f05b770.Emscripten.clang"
  },
  "schemaVersion": "3.3.3",
  "updatedAt": "2021-04-21T16:28:44.427Z",
  "networkType": "ethereum",
  "devdoc": {
    "kind": "dev",
    "methods": {},
    "version": 1
  },
  "userdoc": {
    "kind": "user",
    "methods": {},
    "version": 1
  }
}