{
  "contractName": "Elecciones",
  "abi": [
    {
      "inputs": [
        {
          "internalType": "string",
          "name": "_nombre",
          "type": "string"
        },
        {
          "internalType": "string",
          "name": "_year",
          "type": "string"
        }
      ],
      "stateMutability": "nonpayable",
      "type": "constructor"
    },
    {
      "inputs": [],
      "name": "admin",
      "outputs": [
        {
          "internalType": "address",
          "name": "",
          "type": "address"
        }
      ],
      "stateMutability": "view",
      "type": "function",
      "constant": true
    },
    {
      "inputs": [
        {
          "internalType": "uint256",
          "name": "",
          "type": "uint256"
        }
      ],
      "name": "colegioElectoral",
      "outputs": [
        {
          "internalType": "uint256",
          "name": "id",
          "type": "uint256"
        },
        {
          "internalType": "string",
          "name": "nombre",
          "type": "string"
        },
        {
          "internalType": "address",
          "name": "adminColegio",
          "type": "address"
        },
        {
          "internalType": "string",
          "name": "direccion",
          "type": "string"
        },
        {
          "internalType": "uint256",
          "name": "numeroMesas",
          "type": "uint256"
        },
        {
          "internalType": "uint256",
          "name": "numeroVotantes",
          "type": "uint256"
        },
        {
          "internalType": "uint256",
          "name": "numeroVotos",
          "type": "uint256"
        }
      ],
      "stateMutability": "view",
      "type": "function",
      "constant": true
    },
    {
      "inputs": [
        {
          "internalType": "uint256",
          "name": "",
          "type": "uint256"
        }
      ],
      "name": "colegios",
      "outputs": [
        {
          "internalType": "uint256",
          "name": "id",
          "type": "uint256"
        },
        {
          "internalType": "string",
          "name": "nombre",
          "type": "string"
        },
        {
          "internalType": "address",
          "name": "adminColegio",
          "type": "address"
        },
        {
          "internalType": "string",
          "name": "direccion",
          "type": "string"
        },
        {
          "internalType": "uint256",
          "name": "numeroMesas",
          "type": "uint256"
        },
        {
          "internalType": "uint256",
          "name": "numeroVotantes",
          "type": "uint256"
        },
        {
          "internalType": "uint256",
          "name": "numeroVotos",
          "type": "uint256"
        }
      ],
      "stateMutability": "view",
      "type": "function",
      "constant": true
    },
    {
      "inputs": [
        {
          "internalType": "uint256",
          "name": "",
          "type": "uint256"
        }
      ],
      "name": "datosMesa",
      "outputs": [
        {
          "internalType": "uint256",
          "name": "idColegio",
          "type": "uint256"
        },
        {
          "internalType": "uint256",
          "name": "numeroMesa",
          "type": "uint256"
        },
        {
          "internalType": "address",
          "name": "presidente",
          "type": "address"
        },
        {
          "internalType": "uint256",
          "name": "numeroVotantes",
          "type": "uint256"
        },
        {
          "internalType": "uint256",
          "name": "numeroVotos",
          "type": "uint256"
        }
      ],
      "stateMutability": "view",
      "type": "function",
      "constant": true
    },
    {
      "inputs": [
        {
          "internalType": "string",
          "name": "",
          "type": "string"
        }
      ],
      "name": "datosPartidos",
      "outputs": [
        {
          "internalType": "string",
          "name": "nombre",
          "type": "string"
        },
        {
          "internalType": "uint256",
          "name": "votos",
          "type": "uint256"
        }
      ],
      "stateMutability": "view",
      "type": "function",
      "constant": true
    },
    {
      "inputs": [
        {
          "internalType": "address",
          "name": "",
          "type": "address"
        }
      ],
      "name": "datosPresidente",
      "outputs": [
        {
          "internalType": "string",
          "name": "nombre",
          "type": "string"
        },
        {
          "internalType": "address",
          "name": "direccion",
          "type": "address"
        },
        {
          "internalType": "uint256",
          "name": "numeroMesa",
          "type": "uint256"
        },
        {
          "internalType": "uint256",
          "name": "idColegio",
          "type": "uint256"
        }
      ],
      "stateMutability": "view",
      "type": "function",
      "constant": true
    },
    {
      "inputs": [
        {
          "internalType": "address",
          "name": "",
          "type": "address"
        }
      ],
      "name": "datosVotante",
      "outputs": [
        {
          "internalType": "address",
          "name": "direccion",
          "type": "address"
        },
        {
          "internalType": "uint256",
          "name": "idColegio",
          "type": "uint256"
        },
        {
          "internalType": "uint256",
          "name": "numeroMesa",
          "type": "uint256"
        },
        {
          "internalType": "string",
          "name": "nombre",
          "type": "string"
        },
        {
          "internalType": "string",
          "name": "calle",
          "type": "string"
        },
        {
          "internalType": "string",
          "name": "dni",
          "type": "string"
        },
        {
          "internalType": "bool",
          "name": "votado",
          "type": "bool"
        }
      ],
      "stateMutability": "view",
      "type": "function",
      "constant": true
    },
    {
      "inputs": [],
      "name": "empezado",
      "outputs": [
        {
          "internalType": "bool",
          "name": "",
          "type": "bool"
        }
      ],
      "stateMutability": "view",
      "type": "function",
      "constant": true
    },
    {
      "inputs": [
        {
          "internalType": "uint256",
          "name": "",
          "type": "uint256"
        },
        {
          "internalType": "uint256",
          "name": "",
          "type": "uint256"
        }
      ],
      "name": "mesaColegio",
      "outputs": [
        {
          "internalType": "uint256",
          "name": "",
          "type": "uint256"
        }
      ],
      "stateMutability": "view",
      "type": "function",
      "constant": true
    },
    {
      "inputs": [
        {
          "internalType": "uint256",
          "name": "",
          "type": "uint256"
        }
      ],
      "name": "mesas",
      "outputs": [
        {
          "internalType": "uint256",
          "name": "idColegio",
          "type": "uint256"
        },
        {
          "internalType": "uint256",
          "name": "numeroMesa",
          "type": "uint256"
        },
        {
          "internalType": "address",
          "name": "presidente",
          "type": "address"
        },
        {
          "internalType": "uint256",
          "name": "numeroVotantes",
          "type": "uint256"
        },
        {
          "internalType": "uint256",
          "name": "numeroVotos",
          "type": "uint256"
        }
      ],
      "stateMutability": "view",
      "type": "function",
      "constant": true
    },
    {
      "inputs": [],
      "name": "nombre",
      "outputs": [
        {
          "internalType": "string",
          "name": "",
          "type": "string"
        }
      ],
      "stateMutability": "view",
      "type": "function",
      "constant": true
    },
    {
      "inputs": [
        {
          "internalType": "uint256",
          "name": "",
          "type": "uint256"
        }
      ],
      "name": "partidos",
      "outputs": [
        {
          "internalType": "string",
          "name": "",
          "type": "string"
        }
      ],
      "stateMutability": "view",
      "type": "function",
      "constant": true
    },
    {
      "inputs": [
        {
          "internalType": "uint256",
          "name": "",
          "type": "uint256"
        }
      ],
      "name": "presidentes",
      "outputs": [
        {
          "internalType": "address",
          "name": "",
          "type": "address"
        }
      ],
      "stateMutability": "view",
      "type": "function",
      "constant": true
    },
    {
      "inputs": [
        {
          "internalType": "uint256",
          "name": "",
          "type": "uint256"
        },
        {
          "internalType": "uint256",
          "name": "",
          "type": "uint256"
        }
      ],
      "name": "votanteColegio",
      "outputs": [
        {
          "internalType": "address",
          "name": "",
          "type": "address"
        }
      ],
      "stateMutability": "view",
      "type": "function",
      "constant": true
    },
    {
      "inputs": [
        {
          "internalType": "uint256",
          "name": "",
          "type": "uint256"
        },
        {
          "internalType": "uint256",
          "name": "",
          "type": "uint256"
        }
      ],
      "name": "votanteMesa",
      "outputs": [
        {
          "internalType": "address",
          "name": "",
          "type": "address"
        }
      ],
      "stateMutability": "view",
      "type": "function",
      "constant": true
    },
    {
      "inputs": [
        {
          "internalType": "uint256",
          "name": "",
          "type": "uint256"
        }
      ],
      "name": "votantes",
      "outputs": [
        {
          "internalType": "address",
          "name": "",
          "type": "address"
        }
      ],
      "stateMutability": "view",
      "type": "function",
      "constant": true
    },
    {
      "inputs": [],
      "name": "year",
      "outputs": [
        {
          "internalType": "string",
          "name": "",
          "type": "string"
        }
      ],
      "stateMutability": "view",
      "type": "function",
      "constant": true
    },
    {
      "inputs": [
        {
          "internalType": "string",
          "name": "_nombrePartido",
          "type": "string"
        }
      ],
      "name": "creaPartido",
      "outputs": [
        {
          "internalType": "uint256",
          "name": "",
          "type": "uint256"
        }
      ],
      "stateMutability": "nonpayable",
      "type": "function"
    },
    {
      "inputs": [],
      "name": "partidosLength",
      "outputs": [
        {
          "internalType": "uint256",
          "name": "",
          "type": "uint256"
        }
      ],
      "stateMutability": "view",
      "type": "function",
      "constant": true
    },
    {
      "inputs": [
        {
          "internalType": "address",
          "name": "_direccion",
          "type": "address"
        },
        {
          "internalType": "uint256",
          "name": "_numeroMesa",
          "type": "uint256"
        },
        {
          "internalType": "string",
          "name": "_nombre",
          "type": "string"
        },
        {
          "internalType": "string",
          "name": "_calle",
          "type": "string"
        },
        {
          "internalType": "string",
          "name": "_dni",
          "type": "string"
        }
      ],
      "name": "creaVotante",
      "outputs": [],
      "stateMutability": "nonpayable",
      "type": "function"
    },
    {
      "inputs": [],
      "name": "votantesLength",
      "outputs": [
        {
          "internalType": "uint256",
          "name": "",
          "type": "uint256"
        }
      ],
      "stateMutability": "view",
      "type": "function",
      "constant": true
    },
    {
      "inputs": [
        {
          "internalType": "uint256",
          "name": "_numeroMesa",
          "type": "uint256"
        }
      ],
      "name": "votanteMesaLength",
      "outputs": [
        {
          "internalType": "uint256",
          "name": "",
          "type": "uint256"
        }
      ],
      "stateMutability": "view",
      "type": "function",
      "constant": true
    },
    {
      "inputs": [
        {
          "internalType": "uint256",
          "name": "_idColegio",
          "type": "uint256"
        }
      ],
      "name": "votanteColegioLength",
      "outputs": [
        {
          "internalType": "uint256",
          "name": "",
          "type": "uint256"
        }
      ],
      "stateMutability": "view",
      "type": "function",
      "constant": true
    },
    {
      "inputs": [
        {
          "internalType": "string",
          "name": "_partido",
          "type": "string"
        }
      ],
      "name": "votaPartido",
      "outputs": [],
      "stateMutability": "nonpayable",
      "type": "function"
    },
    {
      "inputs": [
        {
          "internalType": "uint256",
          "name": "_idColegio",
          "type": "uint256"
        }
      ],
      "name": "creaMesa",
      "outputs": [],
      "stateMutability": "nonpayable",
      "type": "function"
    },
    {
      "inputs": [],
      "name": "mesasLength",
      "outputs": [
        {
          "internalType": "uint256",
          "name": "",
          "type": "uint256"
        }
      ],
      "stateMutability": "view",
      "type": "function",
      "constant": true
    },
    {
      "inputs": [
        {
          "internalType": "uint256",
          "name": "id",
          "type": "uint256"
        },
        {
          "internalType": "string",
          "name": "_nombre",
          "type": "string"
        },
        {
          "internalType": "string",
          "name": "_direccion",
          "type": "string"
        }
      ],
      "name": "creaColegio",
      "outputs": [],
      "stateMutability": "nonpayable",
      "type": "function"
    },
    {
      "inputs": [],
      "name": "colegiosLength",
      "outputs": [
        {
          "internalType": "uint256",
          "name": "",
          "type": "uint256"
        }
      ],
      "stateMutability": "view",
      "type": "function",
      "constant": true
    },
    {
      "inputs": [
        {
          "internalType": "uint256",
          "name": "_idColegio",
          "type": "uint256"
        }
      ],
      "name": "mesaColegioLength",
      "outputs": [
        {
          "internalType": "uint256",
          "name": "",
          "type": "uint256"
        }
      ],
      "stateMutability": "view",
      "type": "function",
      "constant": true
    },
    {
      "inputs": [
        {
          "internalType": "string",
          "name": "_nombre",
          "type": "string"
        },
        {
          "internalType": "address",
          "name": "_direccionPresidente",
          "type": "address"
        },
        {
          "internalType": "uint256",
          "name": "_numeroMesa",
          "type": "uint256"
        }
      ],
      "name": "asignaPresidenteMesa",
      "outputs": [],
      "stateMutability": "nonpayable",
      "type": "function"
    },
    {
      "inputs": [
        {
          "internalType": "address",
          "name": "_direccion",
          "type": "address"
        }
      ],
      "name": "presidenteExiste",
      "outputs": [
        {
          "internalType": "bool",
          "name": "",
          "type": "bool"
        }
      ],
      "stateMutability": "view",
      "type": "function",
      "constant": true
    },
    {
      "inputs": [],
      "name": "quienSoy",
      "outputs": [
        {
          "internalType": "string",
          "name": "_nombre",
          "type": "string"
        },
        {
          "internalType": "address",
          "name": "_direccion",
          "type": "address"
        },
        {
          "internalType": "uint256",
          "name": "_idColegio",
          "type": "uint256"
        },
        {
          "internalType": "uint256",
          "name": "_numeroMesa",
          "type": "uint256"
        },
        {
          "internalType": "string",
          "name": "_rol",
          "type": "string"
        }
      ],
      "stateMutability": "view",
      "type": "function",
      "constant": true
    },
    {
      "inputs": [],
      "name": "empezarElecciones",
      "outputs": [],
      "stateMutability": "nonpayable",
      "type": "function"
    },
    {
      "inputs": [],
      "name": "finalizarElecciones",
      "outputs": [],
      "stateMutability": "nonpayable",
      "type": "function"
    }
  ],
  "bytecode": "0x60806040523480156200001157600080fd5b506040516200516838038062005168833981810160405260408110156200003757600080fd5b81019080805160405193929190846401000000008211156200005857600080fd5b838201915060208201858111156200006f57600080fd5b82518660018202830111640100000000821117156200008d57600080fd5b8083526020830192505050908051906020019080838360005b83811015620000c3578082015181840152602081019050620000a6565b50505050905090810190601f168015620000f15780820380516001836020036101000a031916815260200191505b50604052602001805160405193929190846401000000008211156200011557600080fd5b838201915060208201858111156200012c57600080fd5b82518660018202830111640100000000821117156200014a57600080fd5b8083526020830192505050908051906020019080838360005b838110156200018057808201518184015260208101905062000163565b50505050905090810190601f168015620001ae5780820380516001836020036101000a031916815260200191505b50604052505050606082905060008151141562000217576040517f08c379a0000000000000000000000000000000000000000000000000000000008152600401808060200182810382526032815260200180620051366032913960400191505060405180910390fd5b606082905060008151141562000279576040517f08c379a0000000000000000000000000000000000000000000000000000000008152600401808060200182810382526030815260200180620051066030913960400191505060405180910390fd5b336000806101000a81548173ffffffffffffffffffffffffffffffffffffffff021916908373ffffffffffffffffffffffffffffffffffffffff1602179055508360019080519060200190620002d192919062000310565b508260029080519060200190620002ea92919062000310565b506000600360006101000a81548160ff02191690831515021790555050505050620003c6565b828054600181600116156101000203166002900490600052602060002090601f01602090048101928262000348576000855562000394565b82601f106200036357805160ff191683800117855562000394565b8280016001018555821562000394579182015b828111156200039357825182559160200191906001019062000376565b5b509050620003a39190620003a7565b5090565b5b80821115620003c2576000816000905550600101620003a8565b5090565b614d3080620003d66000396000f3fe608060405234801561001057600080fd5b50600436106102065760003560e01c80635b94ea101161011a578063aacca74e116100ad578063e0e2e8f21161007c578063e0e2e8f21461112b578063ef69e4b9146112f4578063f326971614611340578063f851a440146113c3578063fd9dc95c146113f757610206565b8063aacca74e14610e6f578063bc7b35b214610e8d578063c5c204e314610f10578063d8f0d1c21461105c57610206565b80639ce6214c116100e95780639ce6214c14610c525780639ef5117e14610d0d5780639f611b0014610df5578063a3016c0614610e4f57610206565b80635b94ea1014610b505780636649ed2514610bc457806377c0d41a14610bce5780638b96958514610c1057610206565b80633463574f1161019d5780634779e2911161016c5780634779e2911461087057806347d5c1f41461087a57806348a4218a146109d657806352dea703146109f45780635376688314610a3657610206565b80633463574f146105d4578063369061d81461070f57806338bfab431461077157806340deb070146107c957610206565b80631c760e0e116101d95780631c760e0e146104055780632519accb146104795780632e03f8381461049757806333c87b03146104ef57610206565b8063027c84871461020b5780630d38bdfd146102395780630e2386f9146103855780631945d255146103a3575b600080fd5b6102376004803603602081101561022157600080fd5b810190808035906020019092919050505061160a565b005b6102656004803603602081101561024f57600080fd5b8101908080359060200190929190505050611a14565b60405180888152602001806020018773ffffffffffffffffffffffffffffffffffffffff16815260200180602001868152602001858152602001848152602001838103835289818151815260200191508051906020019080838360005b838110156102dd5780820151818401526020810190506102c2565b50505050905090810190601f16801561030a5780820380516001836020036101000a031916815260200191505b50838103825287818151815260200191508051906020019080838360005b83811015610343578082015181840152602081019050610328565b50505050905090810190601f1680156103705780820380516001836020036101000a031916815260200191505b50995050505050505050505060405180910390f35b61038d611bb6565b6040518082815260200191505060405180910390f35b6103d9600480360360408110156103b957600080fd5b810190808035906020019092919080359060200190929190505050611bc3565b604051808273ffffffffffffffffffffffffffffffffffffffff16815260200191505060405180910390f35b6104316004803603602081101561041b57600080fd5b8101908080359060200190929190505050611c11565b604051808681526020018581526020018473ffffffffffffffffffffffffffffffffffffffff1681526020018381526020018281526020019550505050505060405180910390f35b610481611c67565b6040518082815260200191505060405180910390f35b6104c3600480360360208110156104ad57600080fd5b8101908080359060200190929190505050611c74565b604051808273ffffffffffffffffffffffffffffffffffffffff16815260200191505060405180910390f35b6105d26004803603606081101561050557600080fd5b810190808035906020019064010000000081111561052257600080fd5b82018360208201111561053457600080fd5b8035906020019184600183028401116401000000008311171561055657600080fd5b91908080601f016020809104026020016040519081016040528093929190818152602001838380828437600081840152601f19601f820116905080830192505050505050509192919290803573ffffffffffffffffffffffffffffffffffffffff16906020019092919080359060200190929190505050611cb3565b005b61068d600480360360208110156105ea57600080fd5b810190808035906020019064010000000081111561060757600080fd5b82018360208201111561061957600080fd5b8035906020019184600183028401116401000000008311171561063b57600080fd5b91908080601f016020809104026020016040519081016040528093929190818152602001838380828437600081840152601f19601f82011690508083019250505050505050919291929050505061202c565b6040518080602001838152602001828103825284818151815260200191508051906020019080838360005b838110156106d35780820151818401526020810190506106b8565b50505050905090810190601f1680156107005780820380516001836020036101000a031916815260200191505b50935050505060405180910390f35b6107456004803603604081101561072557600080fd5b8101908080359060200190929190803590602001909291905050506120fe565b604051808273ffffffffffffffffffffffffffffffffffffffff16815260200191505060405180910390f35b61079d6004803603602081101561078757600080fd5b810190808035906020019092919050505061214c565b604051808273ffffffffffffffffffffffffffffffffffffffff16815260200191505060405180910390f35b6107f5600480360360208110156107df57600080fd5b810190808035906020019092919050505061218b565b6040518080602001828103825283818151815260200191508051906020019080838360005b8381101561083557808201518184015260208101905061081a565b50505050905090810190601f1680156108625780820380516001836020036101000a031916815260200191505b509250505060405180910390f35b610878612247565b005b6109d46004803603606081101561089057600080fd5b8101908080359060200190929190803590602001906401000000008111156108b757600080fd5b8201836020820111156108c957600080fd5b803590602001918460018302840111640100000000831117156108eb57600080fd5b91908080601f016020809104026020016040519081016040528093929190818152602001838380828437600081840152601f19601f8201169050808301925050505050505091929192908035906020019064010000000081111561094e57600080fd5b82018360208201111561096057600080fd5b8035906020019184600183028401116401000000008311171561098257600080fd5b91908080601f016020809104026020016040519081016040528093929190818152602001838380828437600081840152601f19601f820116905080830192505050505050509192919290505050612325565b005b6109de61280c565b6040518082815260200191505060405180910390f35b610a2060048036036020811015610a0a57600080fd5b8101908080359060200190929190505050612819565b6040518082815260200191505060405180910390f35b610a3e612839565b60405180806020018673ffffffffffffffffffffffffffffffffffffffff16815260200185815260200184815260200180602001838103835288818151815260200191508051906020019080838360005b83811015610aaa578082015181840152602081019050610a8f565b50505050905090810190601f168015610ad75780820380516001836020036101000a031916815260200191505b50838103825284818151815260200191508051906020019080838360005b83811015610b10578082015181840152602081019050610af5565b50505050905090810190601f168015610b3d5780820380516001836020036101000a031916815260200191505b5097505050505050505060405180910390f35b610b7c60048036036020811015610b6657600080fd5b8101908080359060200190929190505050612eb2565b604051808681526020018581526020018473ffffffffffffffffffffffffffffffffffffffff1681526020018381526020018281526020019550505050505060405180910390f35b610bcc612f18565b005b610bfa60048036036020811015610be457600080fd5b8101908080359060200190929190505050612ff6565b6040518082815260200191505060405180910390f35b610c3c60048036036020811015610c2657600080fd5b8101908080359060200190929190505050613016565b6040518082815260200191505060405180910390f35b610d0b60048036036020811015610c6857600080fd5b8101908080359060200190640100000000811115610c8557600080fd5b820183602082011115610c9757600080fd5b80359060200191846001830284011164010000000083111715610cb957600080fd5b91908080601f016020809104026020016040519081016040528093929190818152602001838380828437600081840152601f19601f820116905080830192505050505050509192919290505050613036565b005b610d4f60048036036020811015610d2357600080fd5b81019080803573ffffffffffffffffffffffffffffffffffffffff1690602001909291905050506135de565b60405180806020018573ffffffffffffffffffffffffffffffffffffffff168152602001848152602001838152602001828103825286818151815260200191508051906020019080838360005b83811015610db7578082015181840152602081019050610d9c565b50505050905090810190601f168015610de45780820380516001836020036101000a031916815260200191505b509550505050505060405180910390f35b610e3760048036036020811015610e0b57600080fd5b81019080803573ffffffffffffffffffffffffffffffffffffffff1690602001909291905050506136c6565b60405180821515815260200191505060405180910390f35b610e576137bb565b60405180821515815260200191505060405180910390f35b610e776137ce565b6040518082815260200191505060405180910390f35b610e956137db565b6040518080602001828103825283818151815260200191508051906020019080838360005b83811015610ed5578082015181840152602081019050610eba565b50505050905090810190601f168015610f025780820380516001836020036101000a031916815260200191505b509250505060405180910390f35b610f3c60048036036020811015610f2657600080fd5b8101908080359060200190929190505050613879565b60405180888152602001806020018773ffffffffffffffffffffffffffffffffffffffff16815260200180602001868152602001858152602001848152602001838103835289818151815260200191508051906020019080838360005b83811015610fb4578082015181840152602081019050610f99565b50505050905090810190601f168015610fe15780820380516001836020036101000a031916815260200191505b50838103825287818151815260200191508051906020019080838360005b8381101561101a578082015181840152602081019050610fff565b50505050905090810190601f1680156110475780820380516001836020036101000a031916815260200191505b50995050505050505050505060405180910390f35b6111156004803603602081101561107257600080fd5b810190808035906020019064010000000081111561108f57600080fd5b8201836020820111156110a157600080fd5b803590602001918460018302840111640100000000831117156110c357600080fd5b91908080601f016020809104026020016040519081016040528093929190818152602001838380828437600081840152601f19601f820116905080830192505050505050509192919290505050613a0b565b6040518082815260200191505060405180910390f35b61116d6004803603602081101561114157600080fd5b81019080803573ffffffffffffffffffffffffffffffffffffffff169060200190929190505050613d3d565b604051808873ffffffffffffffffffffffffffffffffffffffff1681526020018781526020018681526020018060200180602001806020018515158152602001848103845288818151815260200191508051906020019080838360005b838110156111e55780820151818401526020810190506111ca565b50505050905090810190601f1680156112125780820380516001836020036101000a031916815260200191505b50848103835287818151815260200191508051906020019080838360005b8381101561124b578082015181840152602081019050611230565b50505050905090810190601f1680156112785780820380516001836020036101000a031916815260200191505b50848103825286818151815260200191508051906020019080838360005b838110156112b1578082015181840152602081019050611296565b50505050905090810190601f1680156112de5780820380516001836020036101000a031916815260200191505b509a505050505050505050505060405180910390f35b61132a6004803603604081101561130a57600080fd5b810190808035906020019092919080359060200190929190505050613f74565b6040518082815260200191505060405180910390f35b611348613fa5565b6040518080602001828103825283818151815260200191508051906020019080838360005b8381101561138857808201518184015260208101905061136d565b50505050905090810190601f1680156113b55780820380516001836020036101000a031916815260200191505b509250505060405180910390f35b6113cb614043565b604051808273ffffffffffffffffffffffffffffffffffffffff16815260200191505060405180910390f35b611608600480360360a081101561140d57600080fd5b81019080803573ffffffffffffffffffffffffffffffffffffffff169060200190929190803590602001909291908035906020019064010000000081111561145457600080fd5b82018360208201111561146657600080fd5b8035906020019184600183028401116401000000008311171561148857600080fd5b91908080601f016020809104026020016040519081016040528093929190818152602001838380828437600081840152601f19601f820116905080830192505050505050509192919290803590602001906401000000008111156114eb57600080fd5b8201836020820111156114fd57600080fd5b8035906020019184600183028401116401000000008311171561151f57600080fd5b91908080601f016020809104026020016040519081016040528093929190818152602001838380828437600081840152601f19601f8201169050808301925050505050505091929192908035906020019064010000000081111561158257600080fd5b82018360208201111561159457600080fd5b803590602001918460018302840111640100000000831117156115b657600080fd5b91908080601f016020809104026020016040519081016040528093929190818152602001838380828437600081840152601f19601f820116905080830192505050505050509192919290505050614067565b005b60008054906101000a900473ffffffffffffffffffffffffffffffffffffffff1673ffffffffffffffffffffffffffffffffffffffff163373ffffffffffffffffffffffffffffffffffffffff16146116cb576040517f08c379a000000000000000000000000000000000000000000000000000000000815260040180806020018281038252601f8152602001807f536f6c6f207065726d697469646f20616c2061646d696e6973747261646f720081525060200191505060405180910390fd5b60001515600360009054906101000a900460ff16151514611754576040517f08c379a000000000000000000000000000000000000000000000000000000000815260040180806020018281038252601b8152602001807f4c617320656c656363696f6e65732068616e20656d70657a61646f000000000081525060200191505060405180910390fd5b60008060008081146117b1576040517f08c379a0000000000000000000000000000000000000000000000000000000008152600401808060200182810382526027815260200180614c5b6027913960400191505060405180910390fd5b6000821461180a576040517f08c379a000000000000000000000000000000000000000000000000000000000815260040180806020018281038252602a815260200180614cd1602a913960400191505060405180910390fd5b6000600780549050905061181c614a6a565b6040518060a001604052808781526020018381526020018673ffffffffffffffffffffffffffffffffffffffff16815260200185815260200184815250905080600b6000848152602001908152602001600020600082015181600001556020820151816001015560408201518160020160006101000a81548173ffffffffffffffffffffffffffffffffffffffff021916908373ffffffffffffffffffffffffffffffffffffffff16021790555060608201518160030155608082015181600401559050506007819080600181540180825580915050600190039060005260206000209060050201600090919091909150600082015181600001556020820151816001015560408201518160020160006101000a81548173ffffffffffffffffffffffffffffffffffffffff021916908373ffffffffffffffffffffffffffffffffffffffff16021790555060608201518160030155608082015181600401555050600d6000878152602001908152602001600020829080600181540180825580915050600190039060005260206000200160009091909190915055600886815481106119c557fe5b906000526020600020906007020160040160008154809291906001019190505550600c600087815260200190815260200160002060040160008154809291906001019190505550505050505050565b60088181548110611a2457600080fd5b9060005260206000209060070201600091509050806000015490806001018054600181600116156101000203166002900480601f016020809104026020016040519081016040528092919081815260200182805460018160011615610100020316600290048015611ad65780601f10611aab57610100808354040283529160200191611ad6565b820191906000526020600020905b815481529060010190602001808311611ab957829003601f168201915b5050505050908060020160009054906101000a900473ffffffffffffffffffffffffffffffffffffffff1690806003018054600181600116156101000203166002900480601f016020809104026020016040519081016040528092919081815260200182805460018160011615610100020316600290048015611b9a5780601f10611b6f57610100808354040283529160200191611b9a565b820191906000526020600020905b815481529060010190602001808311611b7d57829003601f168201915b5050505050908060040154908060050154908060060154905087565b6000600480549050905090565b600f6020528160005260406000208181548110611bdf57600080fd5b906000526020600020016000915091509054906101000a900473ffffffffffffffffffffffffffffffffffffffff1681565b600b6020528060005260406000206000915090508060000154908060010154908060020160009054906101000a900473ffffffffffffffffffffffffffffffffffffffff16908060030154908060040154905085565b6000600780549050905090565b60048181548110611c8457600080fd5b906000526020600020016000915054906101000a900473ffffffffffffffffffffffffffffffffffffffff1681565b60008054906101000a900473ffffffffffffffffffffffffffffffffffffffff1673ffffffffffffffffffffffffffffffffffffffff163373ffffffffffffffffffffffffffffffffffffffff1614611d74576040517f08c379a000000000000000000000000000000000000000000000000000000000815260040180806020018281038252601f8152602001807f536f6c6f207065726d697469646f20616c2061646d696e6973747261646f720081525060200191505060405180910390fd5b60001515600360009054906101000a900460ff16151514611dfd576040517f08c379a000000000000000000000000000000000000000000000000000000000815260040180806020018281038252601b8152602001807f4c617320656c656363696f6e65732068616e20656d70657a61646f000000000081525060200191505060405180910390fd5b81600b600083815260200190815260200160002060020160006101000a81548173ffffffffffffffffffffffffffffffffffffffff021916908373ffffffffffffffffffffffffffffffffffffffff1602179055508160078281548110611e6057fe5b906000526020600020906005020160020160006101000a81548173ffffffffffffffffffffffffffffffffffffffff021916908373ffffffffffffffffffffffffffffffffffffffff1602179055506006829080600181540180825580915050600190039060005260206000200160009091909190916101000a81548173ffffffffffffffffffffffffffffffffffffffff021916908373ffffffffffffffffffffffffffffffffffffffff160217905550600060078281548110611f2157fe5b906000526020600020906005020160000154905060405180608001604052808581526020018473ffffffffffffffffffffffffffffffffffffffff16815260200183815260200182815250601060008573ffffffffffffffffffffffffffffffffffffffff1673ffffffffffffffffffffffffffffffffffffffff1681526020019081526020016000206000820151816000019080519060200190611fc7929190614aaf565b5060208201518160010160006101000a81548173ffffffffffffffffffffffffffffffffffffffff021916908373ffffffffffffffffffffffffffffffffffffffff160217905550604082015181600201556060820151816003015590505050505050565b600a81805160208101820180518482526020830160208501208183528095505050505050600091509050806000018054600181600116156101000203166002900480601f0160208091040260200160405190810160405280929190818152602001828054600181600116156101000203166002900480156120ee5780601f106120c3576101008083540402835291602001916120ee565b820191906000526020600020905b8154815290600101906020018083116120d157829003601f168201915b5050505050908060010154905082565b600e602052816000526040600020818154811061211a57600080fd5b906000526020600020016000915091509054906101000a900473ffffffffffffffffffffffffffffffffffffffff1681565b6006818154811061215c57600080fd5b906000526020600020016000915054906101000a900473ffffffffffffffffffffffffffffffffffffffff1681565b6005818154811061219b57600080fd5b906000526020600020016000915090508054600181600116156101000203166002900480601f01602080910402602001604051908101604052809291908181526020018280546001816001161561010002031660029004801561223f5780601f106122145761010080835404028352916020019161223f565b820191906000526020600020905b81548152906001019060200180831161222257829003601f168201915b505050505081565b60008054906101000a900473ffffffffffffffffffffffffffffffffffffffff1673ffffffffffffffffffffffffffffffffffffffff163373ffffffffffffffffffffffffffffffffffffffff1614612308576040517f08c379a000000000000000000000000000000000000000000000000000000000815260040180806020018281038252601f8152602001807f536f6c6f207065726d697469646f20616c2061646d696e6973747261646f720081525060200191505060405180910390fd5b6000600360006101000a81548160ff021916908315150217905550565b60008054906101000a900473ffffffffffffffffffffffffffffffffffffffff1673ffffffffffffffffffffffffffffffffffffffff163373ffffffffffffffffffffffffffffffffffffffff16146123e6576040517f08c379a000000000000000000000000000000000000000000000000000000000815260040180806020018281038252601f8152602001807f536f6c6f207065726d697469646f20616c2061646d696e6973747261646f720081525060200191505060405180910390fd5b60001515600360009054906101000a900460ff1615151461246f576040517f08c379a000000000000000000000000000000000000000000000000000000000815260040180806020018281038252601b8152602001807f4c617320656c656363696f6e65732068616e20656d70657a61646f000000000081525060200191505060405180910390fd5b60008060009054906101000a900473ffffffffffffffffffffffffffffffffffffffff16905060008060006060869050600081511415612517576040517f08c379a000000000000000000000000000000000000000000000000000000000815260040180806020018281038252601c8152602001807f456c206e6f6d627265206e6f2070756564652073657220766163696f0000000081525060200191505060405180910390fd5b6060869050600081511415612594576040517f08c379a000000000000000000000000000000000000000000000000000000000815260040180806020018281038252601c8152602001807f456c206e6f6d627265206e6f2070756564652073657220766163696f0000000081525060200191505060405180910390fd5b600015156125a18a61478d565b151514612616576040517f08c379a00000000000000000000000000000000000000000000000000000000081526004018080602001828103825260148152602001807f456c20636f6c6567696f2079612065786973746500000000000000000000000081525060200191505060405180910390fd5b61261e614b3d565b6040518060e001604052808b81526020018a81526020018873ffffffffffffffffffffffffffffffffffffffff16815260200189815260200187815260200186815260200185815250905080600c60008c81526020019081526020016000206000820151816000015560208201518160010190805190602001906126a3929190614aaf565b5060408201518160020160006101000a81548173ffffffffffffffffffffffffffffffffffffffff021916908373ffffffffffffffffffffffffffffffffffffffff1602179055506060820151816003019080519060200190612707929190614aaf565b506080820151816004015560a0820151816005015560c08201518160060155905050600881908060018154018082558091505060019003906000526020600020906007020160009091909190915060008201518160000155602082015181600101908051906020019061277b929190614aaf565b5060408201518160020160006101000a81548173ffffffffffffffffffffffffffffffffffffffff021916908373ffffffffffffffffffffffffffffffffffffffff16021790555060608201518160030190805190602001906127df929190614aaf565b506080820151816004015560a0820151816005015560c08201518160060155505050505050505050505050565b6000600880549050905090565b6000600e6000838152602001908152602001600020805490509050919050565b60606000806000606061284a614b90565b600960003373ffffffffffffffffffffffffffffffffffffffff1673ffffffffffffffffffffffffffffffffffffffff1681526020019081526020016000206040518060e00160405290816000820160009054906101000a900473ffffffffffffffffffffffffffffffffffffffff1673ffffffffffffffffffffffffffffffffffffffff1673ffffffffffffffffffffffffffffffffffffffff1681526020016001820154815260200160028201548152602001600382018054600181600116156101000203166002900480601f0160208091040260200160405190810160405280929190818152602001828054600181600116156101000203166002900480156129975780601f1061296c57610100808354040283529160200191612997565b820191906000526020600020905b81548152906001019060200180831161297a57829003601f168201915b50505050508152602001600482018054600181600116156101000203166002900480601f016020809104026020016040519081016040528092919081815260200182805460018160011615610100020316600290048015612a395780601f10612a0e57610100808354040283529160200191612a39565b820191906000526020600020905b815481529060010190602001808311612a1c57829003601f168201915b50505050508152602001600582018054600181600116156101000203166002900480601f016020809104026020016040519081016040528092919081815260200182805460018160011615610100020316600290048015612adb5780601f10612ab057610100808354040283529160200191612adb565b820191906000526020600020905b815481529060010190602001808311612abe57829003601f168201915b505050505081526020016006820160009054906101000a900460ff1615151515815250509050612b09614be5565b601060003373ffffffffffffffffffffffffffffffffffffffff1673ffffffffffffffffffffffffffffffffffffffff168152602001908152602001600020604051806080016040529081600082018054600181600116156101000203166002900480601f016020809104026020016040519081016040528092919081815260200182805460018160011615610100020316600290048015612bec5780601f10612bc157610100808354040283529160200191612bec565b820191906000526020600020905b815481529060010190602001808311612bcf57829003601f168201915b505050505081526020016001820160009054906101000a900473ffffffffffffffffffffffffffffffffffffffff1673ffffffffffffffffffffffffffffffffffffffff1673ffffffffffffffffffffffffffffffffffffffff16815260200160028201548152602001600382015481525050905060011515612c6e33614856565b15151415612ccf57816060015196508160000151955081602001519450816040015193506040518060400160405280600781526020017f566f74616e7465000000000000000000000000000000000000000000000000008152509250612ea9565b612cd8336136c6565b15612d3657806000015196508060200151955080606001519450806040015193506040518060400160405280600a81526020017f507265736964656e7465000000000000000000000000000000000000000000008152509250612ea8565b60008054906101000a900473ffffffffffffffffffffffffffffffffffffffff1673ffffffffffffffffffffffffffffffffffffffff163373ffffffffffffffffffffffffffffffffffffffff161415612e2a576040518060400160405280600581526020017f61646d696e000000000000000000000000000000000000000000000000000000815250965060008054906101000a900473ffffffffffffffffffffffffffffffffffffffff16955060009450600093506040518060400160405280600d81526020017f41646d696e6973747261646f72000000000000000000000000000000000000008152509250612ea7565b6040518060400160405280601581526020017f5573756172696f206e6f207265676973747261646f000000000000000000000081525096506000955060009450600093506040518060400160405280601581526020017f5573756172696f206e6f207265676973747261646f000000000000000000000081525092505b5b5b50509091929394565b60078181548110612ec257600080fd5b90600052602060002090600502016000915090508060000154908060010154908060020160009054906101000a900473ffffffffffffffffffffffffffffffffffffffff16908060030154908060040154905085565b60008054906101000a900473ffffffffffffffffffffffffffffffffffffffff1673ffffffffffffffffffffffffffffffffffffffff163373ffffffffffffffffffffffffffffffffffffffff1614612fd9576040517f08c379a000000000000000000000000000000000000000000000000000000000815260040180806020018281038252601f8152602001807f536f6c6f207065726d697469646f20616c2061646d696e6973747261646f720081525060200191505060405180910390fd5b6001600360006101000a81548160ff021916908315150217905550565b6000600e6000838152602001908152602001600020805490509050919050565b6000600d6000838152602001908152602001600020805490509050919050565b60011515600360009054906101000a900460ff161515146130bf576040517f08c379a000000000000000000000000000000000000000000000000000000000815260040180806020018281038252601e8152602001807f4c617320656c656363696f6e6573206e6f2068616e20656d70657a61646f000081525060200191505060405180910390fd5b60008054906101000a900473ffffffffffffffffffffffffffffffffffffffff1673ffffffffffffffffffffffffffffffffffffffff163373ffffffffffffffffffffffffffffffffffffffff161415613181576040517f08c379a00000000000000000000000000000000000000000000000000000000081526004018080602001828103825260198152602001807f536f6c6f207065726d697469646f20616c20766f74616e74650000000000000081525060200191505060405180910390fd5b6000339050600115156131938361494b565b151514613208576040517f08c379a00000000000000000000000000000000000000000000000000000000081526004018080602001828103825260148152602001807f456c207061727469646f206e6f2065786973746500000000000000000000000081525060200191505060405180910390fd5b6001151561321582614856565b15151461328a576040517f08c379a00000000000000000000000000000000000000000000000000000000081526004018080602001828103825260148152602001807f456c20766f74616e7465206e6f2065786973746500000000000000000000000081525060200191505060405180910390fd5b60001515600960008373ffffffffffffffffffffffffffffffffffffffff1673ffffffffffffffffffffffffffffffffffffffff16815260200190815260200160002060060160009054906101000a900460ff16151514613353576040517f08c379a00000000000000000000000000000000000000000000000000000000081526004018080602001828103825260178152602001807f456c20766f74616e746520796120686120766f7461646f00000000000000000081525060200191505060405180910390fd5b600a826040518082805190602001908083835b602083106133895780518252602082019150602081019050602083039250613366565b6001836020036101000a0380198251168184511680821785525050505050509050019150509081526020016040518091039020600101600081548092919060010191905055506001600960008373ffffffffffffffffffffffffffffffffffffffff1673ffffffffffffffffffffffffffffffffffffffff16815260200190815260200160002060060160006101000a81548160ff0219169083151502179055506007600960008373ffffffffffffffffffffffffffffffffffffffff1673ffffffffffffffffffffffffffffffffffffffff168152602001908152602001600020600201548154811061347957fe5b906000526020600020906005020160040160008154809291906001019190505550600b6000600960008473ffffffffffffffffffffffffffffffffffffffff1673ffffffffffffffffffffffffffffffffffffffff168152602001908152602001600020600201548152602001908152602001600020600401600081548092919060010191905055506008600960008373ffffffffffffffffffffffffffffffffffffffff1673ffffffffffffffffffffffffffffffffffffffff168152602001908152602001600020600101548154811061355157fe5b906000526020600020906007020160060160008154809291906001019190505550600c6000600960008473ffffffffffffffffffffffffffffffffffffffff1673ffffffffffffffffffffffffffffffffffffffff168152602001908152602001600020600101548152602001908152602001600020600601600081548092919060010191905055505050565b6010602052806000526040600020600091509050806000018054600181600116156101000203166002900480601f01602080910402602001604051908101604052809291908181526020018280546001816001161561010002031660029004801561368a5780601f1061365f5761010080835404028352916020019161368a565b820191906000526020600020905b81548152906001019060200180831161366d57829003601f168201915b5050505050908060010160009054906101000a900473ffffffffffffffffffffffffffffffffffffffff16908060020154908060030154905084565b60006060601060008473ffffffffffffffffffffffffffffffffffffffff1673ffffffffffffffffffffffffffffffffffffffff1681526020019081526020016000206000018054600181600116156101000203166002900480601f0160208091040260200160405190810160405280929190818152602001828054600181600116156101000203166002900480156137a05780601f10613775576101008083540402835291602001916137a0565b820191906000526020600020905b81548152906001019060200180831161378357829003601f168201915b50505050509050606081905060008151141592505050919050565b600360009054906101000a900460ff1681565b6000600580549050905090565b60018054600181600116156101000203166002900480601f0160208091040260200160405190810160405280929190818152602001828054600181600116156101000203166002900480156138715780601f1061384657610100808354040283529160200191613871565b820191906000526020600020905b81548152906001019060200180831161385457829003601f168201915b505050505081565b600c602052806000526040600020600091509050806000015490806001018054600181600116156101000203166002900480601f01602080910402602001604051908101604052809291908181526020018280546001816001161561010002031660029004801561392b5780601f106139005761010080835404028352916020019161392b565b820191906000526020600020905b81548152906001019060200180831161390e57829003601f168201915b5050505050908060020160009054906101000a900473ffffffffffffffffffffffffffffffffffffffff1690806003018054600181600116156101000203166002900480601f0160208091040260200160405190810160405280929190818152602001828054600181600116156101000203166002900480156139ef5780601f106139c4576101008083540402835291602001916139ef565b820191906000526020600020905b8154815290600101906020018083116139d257829003601f168201915b5050505050908060040154908060050154908060060154905087565b60008060009054906101000a900473ffffffffffffffffffffffffffffffffffffffff1673ffffffffffffffffffffffffffffffffffffffff163373ffffffffffffffffffffffffffffffffffffffff1614613acf576040517f08c379a000000000000000000000000000000000000000000000000000000000815260040180806020018281038252601f8152602001807f536f6c6f207065726d697469646f20616c2061646d696e6973747261646f720081525060200191505060405180910390fd5b60001515600360009054906101000a900460ff16151514613b58576040517f08c379a000000000000000000000000000000000000000000000000000000000815260040180806020018281038252601b8152602001807f4c617320656c656363696f6e65732068616e20656d70657a61646f000000000081525060200191505060405180910390fd5b6060829050600081511415613bb8576040517f08c379a000000000000000000000000000000000000000000000000000000000815260040180806020018281038252602a815260200180614ca7602a913960400191505060405180910390fd5b6000801515613bc68561494b565b151514613c3b576040517f08c379a00000000000000000000000000000000000000000000000000000000081526004018080602001828103825260148152602001807f456c207061727469646f2079612065786973746500000000000000000000000081525060200191505060405180910390fd5b613c43614c23565b604051806040016040528086815260200183815250905080600a866040518082805190602001908083835b60208310613c915780518252602082019150602081019050602083039250613c6e565b6001836020036101000a03801982511681845116808217855250505050505090500191505090815260200160405180910390206000820151816000019080519060200190613ce0929190614aaf565b5060208201518160010155905050600585908060018154018082558091505060019003906000526020600020016000909190919091509080519060200190613d29929190614aaf565b506001600580549050039350505050919050565b60096020528060005260406000206000915090508060000160009054906101000a900473ffffffffffffffffffffffffffffffffffffffff1690806001015490806002015490806003018054600181600116156101000203166002900480601f016020809104026020016040519081016040528092919081815260200182805460018160011615610100020316600290048015613e1b5780601f10613df057610100808354040283529160200191613e1b565b820191906000526020600020905b815481529060010190602001808311613dfe57829003601f168201915b505050505090806004018054600181600116156101000203166002900480601f016020809104026020016040519081016040528092919081815260200182805460018160011615610100020316600290048015613eb95780601f10613e8e57610100808354040283529160200191613eb9565b820191906000526020600020905b815481529060010190602001808311613e9c57829003601f168201915b505050505090806005018054600181600116156101000203166002900480601f016020809104026020016040519081016040528092919081815260200182805460018160011615610100020316600290048015613f575780601f10613f2c57610100808354040283529160200191613f57565b820191906000526020600020905b815481529060010190602001808311613f3a57829003601f168201915b5050505050908060060160009054906101000a900460ff16905087565b600d6020528160005260406000208181548110613f9057600080fd5b90600052602060002001600091509150505481565b60028054600181600116156101000203166002900480601f01602080910402602001604051908101604052809291908181526020018280546001816001161561010002031660029004801561403b5780601f106140105761010080835404028352916020019161403b565b820191906000526020600020905b81548152906001019060200180831161401e57829003601f168201915b505050505081565b60008054906101000a900473ffffffffffffffffffffffffffffffffffffffff1681565b60008054906101000a900473ffffffffffffffffffffffffffffffffffffffff1673ffffffffffffffffffffffffffffffffffffffff163373ffffffffffffffffffffffffffffffffffffffff1614614128576040517f08c379a000000000000000000000000000000000000000000000000000000000815260040180806020018281038252601f8152602001807f536f6c6f207065726d697469646f20616c2061646d696e6973747261646f720081525060200191505060405180910390fd5b60001515600360009054906101000a900460ff161515146141b1576040517f08c379a000000000000000000000000000000000000000000000000000000000815260040180806020018281038252601b8152602001807f4c617320656c656363696f6e65732068616e20656d70657a61646f000000000081525060200191505060405180910390fd5b606083905060008151141561422e576040517f08c379a000000000000000000000000000000000000000000000000000000000815260040180806020018281038252601c8152602001807f456c206e6f6d627265206e6f2070756564652073657220766163696f0000000081525060200191505060405180910390fd5b60608390506000815114156142ab576040517f08c379a000000000000000000000000000000000000000000000000000000000815260040180806020018281038252601b8152602001807f4c612063616c6c65206e6f2070756564652073657220766163696f000000000081525060200191505060405180910390fd5b6060859050600081511415614328576040517f08c379a00000000000000000000000000000000000000000000000000000000081526004018080602001828103825260198152602001807f456c20444e49206e6f2070756564652073657220766163696f0000000000000081525060200191505060405180910390fd5b60008015156143368a614856565b1515146143ab576040517f08c379a00000000000000000000000000000000000000000000000000000000081526004018080602001828103825260148152602001807f456c20766f74616e74652079612065786973746500000000000000000000000081525060200191505060405180910390fd5b6000151581151514614408576040517f08c379a0000000000000000000000000000000000000000000000000000000008152600401808060200182810382526025815260200180614c826025913960400191505060405180910390fd5b6000600b60008a815260200190815260200160002060000154905061442b614b90565b6040518060e001604052808c73ffffffffffffffffffffffffffffffffffffffff1681526020018381526020018b81526020018a8152602001898152602001888152602001841515815250905080600960008d73ffffffffffffffffffffffffffffffffffffffff1673ffffffffffffffffffffffffffffffffffffffff16815260200190815260200160002060008201518160000160006101000a81548173ffffffffffffffffffffffffffffffffffffffff021916908373ffffffffffffffffffffffffffffffffffffffff1602179055506020820151816001015560408201518160020155606082015181600301908051906020019061452f929190614aaf565b50608082015181600401908051906020019061454c929190614aaf565b5060a0820151816005019080519060200190614569929190614aaf565b5060c08201518160060160006101000a81548160ff02191690831515021790555090505060048b9080600181540180825580915050600190039060005260206000200160009091909190916101000a81548173ffffffffffffffffffffffffffffffffffffffff021916908373ffffffffffffffffffffffffffffffffffffffff160217905550600e60008b81526020019081526020016000208b9080600181540180825580915050600190039060005260206000200160009091909190916101000a81548173ffffffffffffffffffffffffffffffffffffffff021916908373ffffffffffffffffffffffffffffffffffffffff160217905550600f60008381526020019081526020016000208b9080600181540180825580915050600190039060005260206000200160009091909190916101000a81548173ffffffffffffffffffffffffffffffffffffffff021916908373ffffffffffffffffffffffffffffffffffffffff16021790555060078a815481106146e557fe5b906000526020600020906005020160030160008154809291906001019190505550600b60008b8152602001908152602001600020600301600081548092919060010191905055506008828154811061473957fe5b906000526020600020906007020160050160008154809291906001019190505550600c6000838152602001908152602001600020600501600081548092919060010191905055505050505050505050505050565b60006060600c60008481526020019081526020016000206001018054600181600116156101000203166002900480601f01602080910402602001604051908101604052809291908181526020018280546001816001161561010002031660029004801561483b5780601f106148105761010080835404028352916020019161483b565b820191906000526020600020905b81548152906001019060200180831161481e57829003601f168201915b50505050509050606081905060008151141592505050919050565b60006060600960008473ffffffffffffffffffffffffffffffffffffffff1673ffffffffffffffffffffffffffffffffffffffff1681526020019081526020016000206003018054600181600116156101000203166002900480601f0160208091040260200160405190810160405280929190818152602001828054600181600116156101000203166002900480156149305780601f1061490557610100808354040283529160200191614930565b820191906000526020600020905b81548152906001019060200180831161491357829003601f168201915b50505050509050606081905060008151141592505050919050565b60006060600a836040518082805190602001908083835b602083106149855780518252602082019150602081019050602083039250614962565b6001836020036101000a03801982511681845116808217855250505050505090500191505090815260200160405180910390206000018054600181600116156101000203166002900480601f016020809104026020016040519081016040528092919081815260200182805460018160011615610100020316600290048015614a4f5780601f10614a2457610100808354040283529160200191614a4f565b820191906000526020600020905b815481529060010190602001808311614a3257829003601f168201915b50505050509050606081905060008151141592505050919050565b6040518060a001604052806000815260200160008152602001600073ffffffffffffffffffffffffffffffffffffffff16815260200160008152602001600081525090565b828054600181600116156101000203166002900490600052602060002090601f016020900481019282614ae55760008555614b2c565b82601f10614afe57805160ff1916838001178555614b2c565b82800160010185558215614b2c579182015b82811115614b2b578251825591602001919060010190614b10565b5b509050614b399190614c3d565b5090565b6040518060e001604052806000815260200160608152602001600073ffffffffffffffffffffffffffffffffffffffff168152602001606081526020016000815260200160008152602001600081525090565b6040518060e00160405280600073ffffffffffffffffffffffffffffffffffffffff16815260200160008152602001600081526020016060815260200160608152602001606081526020016000151581525090565b604051806080016040528060608152602001600073ffffffffffffffffffffffffffffffffffffffff16815260200160008152602001600081525090565b604051806040016040528060608152602001600081525090565b5b80821115614c56576000816000905550600101614c3e565b509056fe456c206e756d65726f20646520766f746f7320696e696369616c65732064656265207365722030456c207573756172696f206e7565766f206e6f206465626520686162657220766f7461646f456c206e6f6d6272652064656c207061727469646f206e6f20707565646520657374617220766163696f456c206e756d65726f20646520766f74616e74657320696e696369616c65732064656265207365722030a2646970667358221220c00e136496eb93264674b754758513e9e3504b26ef082cb7acf6f7324bf36ffe64736f6c63430007040033456c207965617220646520657374617320656c656363696f6e6573206e6f20707565646520657374617220766163696f456c206e6f6d62726520646520657374617320656c656363696f6e6573206e6f20707565646520657374617220766163696f",
  "immutableReferences": {},
  "source": "// SPDX-License-Identifier: UNLICENSED\r\npragma solidity ^0.7.4;\r\n\r\ncontract Elecciones {\r\n    \r\n    address public admin;\r\n    \r\n    string public nombre;\r\n    \r\n    string public year;\r\n    \r\n    bool public empezado;\r\n    \r\n    struct DatosVotante{\r\n        address direccion;\r\n        uint idColegio;\r\n        uint numeroMesa;\r\n        string nombre;\r\n        string calle;\r\n        string dni;\r\n        bool votado;\r\n    }\r\n\r\n    struct DatosPresidente{\r\n        string nombre;\r\n        address direccion;\r\n        uint numeroMesa;\r\n        uint idColegio;\r\n    }\r\n    \r\n    struct Partido{\r\n        string nombre;\r\n        uint votos;\r\n    }\r\n    \r\n    \r\n    //Como crear array dentro de struct\r\n  struct ColegioElectoral{\r\n      uint id;\r\n      string nombre;\r\n      address adminColegio;\r\n      string direccion;\r\n      uint numeroMesas;\r\n      uint numeroVotantes;\r\n      uint numeroVotos;\r\n  }\r\n    \r\n        \r\n  struct Mesa{\r\n      uint idColegio;\r\n      uint numeroMesa;\r\n      address presidente;\r\n      uint numeroVotantes;\r\n      uint numeroVotos;\r\n  }\r\n    \r\n    \r\n  \r\n    //Arrays con el total de votantes, partidos, presidentes ...\r\n    address[] public votantes;\r\n    string[] public partidos;\r\n    address[] public presidentes;\r\n    Mesa[] public mesas;\r\n    ColegioElectoral[] public colegios;\r\n        \r\n    mapping( address => DatosVotante) public datosVotante;\r\n    mapping( string => Partido) public datosPartidos;\r\n    mapping( uint => Mesa) public datosMesa;\r\n    mapping( uint => ColegioElectoral) public colegioElectoral;\r\n    //array que dado el indice de colegio, devuelve un array con los numeros de mesa de ese colegio.\r\n    mapping( uint => uint[]) public mesaColegio;\r\n    //array que dado un numero de mesa, te devuelve un array de direcciones de sus votantes.\r\n    mapping( uint => address[]) public votanteMesa;\r\n    //array que dado un numero de colegio, te devuelve un array de direcciones de sus votantes.\r\n    mapping( uint => address[]) public votanteColegio;\r\n    mapping( address => DatosPresidente) public datosPresidente;\r\nconstructor(string memory _nombre, string memory _year){\r\n    \r\n    bytes memory bn = bytes(_nombre);\r\n    require(bn.length != 0, \"El nombre de estas elecciones no puede estar vacio\");\r\n    \r\n    bytes memory ba = bytes(_year);\r\n    require(ba.length !=0, \"El year de estas elecciones no puede estar vacio\");\r\n    \r\n    admin= msg.sender;\r\n    nombre= _nombre;\r\n    year= _year;\r\n    empezado= false;\r\n    \r\n}\r\n\r\nmodifier onlyAdmin() {\r\n    require(msg.sender == admin ,\"Solo permitido al administrador\");\r\n    \r\n    _;\r\n}\r\n\r\nmodifier onlyVotante() {\r\n    require(msg.sender != admin ,\"Solo permitido al votante\");\r\n    \r\n    _;\r\n}\r\nmodifier onlyEmpezado(){\r\n    require(empezado == true, \"Las elecciones no han empezado\");\r\n    \r\n    _;\r\n}\r\n\r\nmodifier onlyFinalizado(){\r\n    require(empezado == false, \"Las elecciones han empezado\");\r\n    _;\r\n}\r\n\r\nfunction creaPartido(string memory _nombrePartido) onlyAdmin onlyFinalizado public returns(uint){\r\n    bytes memory bn = bytes(_nombrePartido);\r\n    require(bn.length != 0, \"El nombre del partido no puede estar vacio\");\r\n    uint _votosIniciales = 0;\r\n    \r\n    require(partidoExiste(_nombrePartido) == false,\"El partido ya existe\");\r\n    \r\n    Partido memory datos= Partido(_nombrePartido,_votosIniciales);\r\n    datosPartidos[_nombrePartido]=datos;\r\n    partidos.push(_nombrePartido);\r\n    //partidos.push(Partido(_nombre,_votosIniciales));\r\n    return partidos.length-1;\r\n}\r\n\r\nfunction partidosLength() public view returns(uint) {\r\n        return partidos.length;\r\n    }\r\n    \r\nfunction partidoExiste(string memory _nombrePartido) private view returns(bool){\r\n         string memory _bnombre = datosPartidos[_nombrePartido].nombre;\r\n         \r\n         bytes memory b = bytes(_bnombre);\r\n         \r\n         return b.length != 0 ;\r\n     }\r\n\r\nfunction creaVotante(address _direccion,uint _numeroMesa, string memory _nombre, string memory _calle,string memory _dni) onlyAdmin  onlyFinalizado public {\r\n        \r\n        \r\n        \r\n        bytes memory bn = bytes(_nombre);\r\n        require(bn.length != 0, \"El nombre no puede ser vacio\");\r\n        \r\n        bytes memory bc = bytes(_calle);\r\n        require(bc.length != 0, \"La calle no puede ser vacio\");\r\n        \r\n        bytes memory bdni = bytes(_nombre);\r\n        require(bdni.length != 0, \"El DNI no puede ser vacio\");\r\n        \r\n        bool _votado = false;\r\n        \r\n        require(votanteExiste(_direccion) == false,\"El votante ya existe\");\r\n        require(_votado == false, \"El usuario nuevo no debe haber votado\");\r\n        \r\n        uint _idColegio = datosMesa[_numeroMesa].idColegio;\r\n       \r\n        //creamos el nuevo votante con sus parametros iniciales\r\n        DatosVotante memory datos = DatosVotante(_direccion,_idColegio,_numeroMesa,_nombre, _calle,_dni,_votado);\r\n        datosVotante[_direccion]=(datos);\r\n        \r\n        //metemos el votante en el array global con todos los votantes, y luego en el arrya que asigna numero de mesa a votantes\r\n        votantes.push(_direccion);\r\n        votanteMesa[_numeroMesa].push(_direccion);\r\n        votanteColegio[_idColegio].push(_direccion);\r\n        \r\n        mesas[_numeroMesa].numeroVotantes ++;\r\n        datosMesa[_numeroMesa].numeroVotantes ++;\r\n        colegios[_idColegio].numeroVotantes ++;\r\n        colegioElectoral[_idColegio].numeroVotantes ++;\r\n        \r\n        \r\n        \r\n    }\r\n    \r\n    function votanteExiste(address _direccion) private view returns(bool){\r\n         string memory _bnombre = datosVotante[_direccion].nombre;\r\n         bytes memory b = bytes(_bnombre);\r\n         return b.length != 0 ;\r\n     }\r\n\r\n\r\n    function votantesLength() public view returns(uint) {\r\n        return votantes.length;\r\n    }\r\n    \r\n    function votanteMesaLength(uint _numeroMesa) public view returns(uint) {\r\n        return votanteMesa[_numeroMesa].length;\r\n    }\r\n\r\n    function votanteColegioLength(uint _idColegio) public view returns(uint) {\r\n        return votanteMesa[_idColegio].length;\r\n    }\r\n    \r\n    \r\n    function votaPartido(string memory _partido) onlyEmpezado onlyVotante public{\r\n        //se recoge la direccion del usuario que llama al mtodo\r\n        address _direccionVotante = msg.sender;\r\n        //se comprueba que el partido y el votante exista\r\n        require(partidoExiste(_partido) == true,\"El partido no existe\");\r\n        require(votanteExiste(_direccionVotante) == true,\"El votante no existe\");\r\n        //se comprueba que el usuario no ha votado\r\n        require(datosVotante[_direccionVotante].votado == false, \"El votante ya ha votado\");\r\n        //se ejerce el voto\r\n        datosPartidos[_partido].votos ++;\r\n        datosVotante[_direccionVotante].votado = true;\r\n        //actualizar el numero de votos dentro de los colegios y las mesas correspondientes a ese votante;\r\n        mesas[datosVotante[_direccionVotante].numeroMesa].numeroVotos ++;\r\n        datosMesa[datosVotante[_direccionVotante].numeroMesa].numeroVotos ++;\r\n        colegios[datosVotante[_direccionVotante].idColegio].numeroVotos ++;\r\n        colegioElectoral[datosVotante[_direccionVotante].idColegio].numeroVotos ++;   \r\n    }\r\n\r\n\r\n\r\n/* \r\nFaltan comprobaciones de atributos , modificadores y si la mesa est creada\r\ncrear presidente aqu??? como crear address vaca\r\n*/\r\n    function creaMesa(uint _idColegio) onlyAdmin  onlyFinalizado public{\r\n        \r\n        // bytes memory bc = bytes(_colegio);\r\n        // require(bc.length != 0, \"El colegio no puede ser vacio\");\r\n        \r\n        \r\n       // Array temporal, copia de las mesas que hay en el colegio dado en el parametro\r\n        \r\n        \r\n        \r\n        \r\n        address _presidente = 0x0000000000000000000000000000000000000000;\r\n        uint _numeroVotantes = 0;\r\n        uint _numeroVotos = 0;\r\n        \r\n        require(_numeroVotos == 0, \"El numero de votos iniciales debe ser 0\");\r\n        require(_numeroVotantes == 0, \"El numero de votantes iniciales debe ser 0\");\r\n        \r\n        //Cogemos el length del numero de mesas de ese colegio, sera el numero de la nueva mesa\r\n        uint _numeroMesa = mesas.length;\r\n        \r\n        Mesa memory mesa = Mesa(_idColegio,_numeroMesa,_presidente,_numeroVotantes,_numeroVotos);\r\n        \r\n        datosMesa[_numeroMesa] = mesa;\r\n        \r\n        mesas.push(mesa);\r\n        \r\n        /*\r\n        Metemos la nueva mesa en el array temporal\r\n        despues metemos el array temporal con la nueva mesa en el colegio deseado\r\n        */\r\n        \r\n        mesaColegio[_idColegio].push(_numeroMesa);\r\n        colegios[_idColegio].numeroMesas++;\r\n        colegioElectoral[_idColegio].numeroMesas++;\r\n        \r\n    }\r\n    \r\n    function mesasLength() public view returns(uint) {\r\n        return mesas.length;\r\n    }\r\n    \r\n    \r\n    function creaColegio(uint id, string memory _nombre,string memory _direccion) onlyAdmin onlyFinalizado public{\r\n        \r\n        address _admin = admin;\r\n        uint numeroMesas = 0;\r\n        uint numeroVotantes = 0;\r\n        uint numeroVotos = 0;\r\n        \r\n        bytes memory bn = bytes(_nombre);\r\n        require(bn.length != 0, \"El nombre no puede ser vacio\");\r\n        \r\n        bytes memory bd = bytes(_direccion);\r\n        require(bd.length != 0, \"El nombre no puede ser vacio\");\r\n        \r\n        require(colegioExiste(id) == false,\"El colegio ya existe\");\r\n        \r\n        ColegioElectoral memory colegio = ColegioElectoral(id,_nombre,_admin,_direccion,numeroMesas,numeroVotantes,numeroVotos);\r\n        colegioElectoral[id]= colegio;\r\n        colegios.push(colegio);\r\n        \r\n        \r\n        \r\n    }\r\n    \r\n    function colegiosLength() public view returns(uint) {\r\n        return colegios.length;\r\n    }\r\n    \r\n    \r\n    /*\r\n    comprobar si existe el colegio, introducimos el id, comprobamos si en ese id hay un nombre, si tiene algun byte, entonces devuelve true, es decir, hay colegio\r\n    */\r\n    \r\n     function colegioExiste(uint id) private view returns(bool){\r\n         string memory _bnombre = colegioElectoral[id].nombre;\r\n         \r\n         bytes memory b = bytes(_bnombre);\r\n         \r\n         return b.length != 0 ;\r\n     }\r\n    \r\n    \r\n    function mesaColegioLength(uint _idColegio) public view returns(uint) {\r\n        return mesaColegio[_idColegio].length;\r\n    }\r\n    \r\n    \r\n    \r\n    /*\r\n    \r\n    - meter presidente en colegioMesa\r\n    -Que pasa si creo el mismo presidente en otra mesa??\r\n    \r\n    */\r\n    function asignaPresidenteMesa(string memory _nombre,address _direccionPresidente,uint  _numeroMesa) onlyAdmin onlyFinalizado public{\r\n        \r\n        \r\n        \r\n        datosMesa[_numeroMesa].presidente = _direccionPresidente;\r\n        mesas[_numeroMesa].presidente =_direccionPresidente;\r\n        presidentes.push(_direccionPresidente);\r\n        uint _idColegio = mesas[_numeroMesa].idColegio;\r\n        datosPresidente[_direccionPresidente] = DatosPresidente(_nombre,_direccionPresidente,_numeroMesa,_idColegio);\r\n    }\r\n\r\n    function presidenteExiste(address _direccion) public view returns(bool){\r\n         string memory _bnombre = datosPresidente[_direccion].nombre;\r\n         \r\n         bytes memory b = bytes(_bnombre);\r\n         \r\n         return b.length != 0 ;\r\n     }\r\n    \r\n    \r\n    \r\n    function quienSoy()  public view returns (string memory _nombre, \r\n    address _direccion,uint _idColegio, uint _numeroMesa,string memory _rol) {\r\n        DatosVotante memory datosV = datosVotante[msg.sender];\r\n        DatosPresidente memory datosP = datosPresidente[msg.sender];\r\n        if(votanteExiste(msg.sender) == true){\r\n            _nombre = datosV.nombre;\r\n            _direccion = datosV.direccion;\r\n            _idColegio = datosV.idColegio;\r\n            _numeroMesa= datosV.numeroMesa;\r\n            _rol = \"Votante\";\r\n        }else if(presidenteExiste(msg.sender)){\r\n            _nombre = datosP.nombre;\r\n            _direccion = datosP.direccion;\r\n            _idColegio = datosP.idColegio;\r\n            _numeroMesa= datosP.numeroMesa;\r\n            _rol = \"Presidente\";\r\n        }else if(msg.sender == admin){\r\n            _nombre=\"admin\";\r\n            _direccion=admin;\r\n            _idColegio=0;\r\n            _numeroMesa=0;\r\n            _rol=\"Administrador\";\r\n        }else{\r\n            _nombre=\"Usuario no registrado\";\r\n            _direccion=0x0000000000000000000000000000000000000000;\r\n            _idColegio=0;\r\n            _numeroMesa=0;\r\n            _rol=\"Usuario no registrado\";    \r\n        }\r\n    }\r\n    \r\n    \r\n    function empezarElecciones() onlyAdmin public {\r\n        empezado = true;\r\n        \r\n    }\r\n    \r\n    function finalizarElecciones() onlyAdmin public {\r\n        empezado = false;\r\n    }\r\n    \r\n}",
  "sourcePath": "C:/Users/jaime/tfg/EleccionesDemo/contracts/Elecciones.sol",
  "compiler": {
    "name": "solc",
    "version": "0.7.4+commit.3f05b770.Emscripten.clang"
  },
  "schemaVersion": "3.3.3",
  "updatedAt": "2021-06-20T16:04:38.965Z",
  "networkType": "ethereum",
  "devdoc": {
    "kind": "dev",
    "methods": {},
    "version": 1
  },
  "userdoc": {
    "kind": "user",
    "methods": {},
    "version": 1
  }
}